{
  "abi": [
    {
      "anonymous": false,
      "inputs": [
        {
          "indexed": false,
          "internalType": "uint8",
          "name": "version",
          "type": "uint8"
        }
      ],
      "name": "Initialized",
      "type": "event"
    },
    {
      "anonymous": false,
      "inputs": [
        {
          "indexed": true,
          "internalType": "bytes32",
          "name": "role",
          "type": "bytes32"
        },
        {
          "indexed": true,
          "internalType": "bytes32",
          "name": "previousAdminRole",
          "type": "bytes32"
        },
        {
          "indexed": true,
          "internalType": "bytes32",
          "name": "newAdminRole",
          "type": "bytes32"
        }
      ],
      "name": "RoleAdminChanged",
      "type": "event"
    },
    {
      "anonymous": false,
      "inputs": [
        {
          "indexed": true,
          "internalType": "bytes32",
          "name": "role",
          "type": "bytes32"
        },
        {
          "indexed": true,
          "internalType": "address",
          "name": "account",
          "type": "address"
        },
        {
          "indexed": true,
          "internalType": "address",
          "name": "sender",
          "type": "address"
        }
      ],
      "name": "RoleGranted",
      "type": "event"
    },
    {
      "anonymous": false,
      "inputs": [
        {
          "indexed": true,
          "internalType": "bytes32",
          "name": "role",
          "type": "bytes32"
        },
        {
          "indexed": true,
          "internalType": "address",
          "name": "account",
          "type": "address"
        },
        {
          "indexed": true,
          "internalType": "address",
          "name": "sender",
          "type": "address"
        }
      ],
      "name": "RoleRevoked",
      "type": "event"
    },
    {
      "inputs": [],
      "name": "CONTRACT_URL",
      "outputs": [
        {
          "internalType": "string",
          "name": "",
          "type": "string"
        }
      ],
      "stateMutability": "view",
      "type": "function"
    },
    {
      "inputs": [],
      "name": "DEFAULT_ADMIN_ROLE",
      "outputs": [
        {
          "internalType": "bytes32",
          "name": "",
          "type": "bytes32"
        }
      ],
      "stateMutability": "view",
      "type": "function"
    },
    {
      "inputs": [],
      "name": "NATIVE_TOKEN",
      "outputs": [
        {
          "internalType": "address",
          "name": "",
          "type": "address"
        }
      ],
      "stateMutability": "view",
      "type": "function"
    },
    {
      "inputs": [],
      "name": "boomER721Token",
      "outputs": [
        {
          "internalType": "contract BoomERC721",
          "name": "",
          "type": "address"
        }
      ],
      "stateMutability": "view",
      "type": "function"
    },
    {
      "inputs": [],
      "name": "boomERC20Token",
      "outputs": [
        {
          "internalType": "contract TokenERC20",
          "name": "",
          "type": "address"
        }
      ],
      "stateMutability": "view",
      "type": "function"
    },
    {
      "inputs": [],
      "name": "contractType",
      "outputs": [
        {
          "internalType": "bytes32",
          "name": "",
          "type": "bytes32"
        }
      ],
      "stateMutability": "pure",
      "type": "function"
    },
    {
      "inputs": [],
      "name": "contractURI",
      "outputs": [
        {
          "internalType": "string",
          "name": "",
          "type": "string"
        }
      ],
      "stateMutability": "view",
      "type": "function"
    },
    {
      "inputs": [],
      "name": "contractVersion",
      "outputs": [
        {
          "internalType": "uint8",
          "name": "",
          "type": "uint8"
        }
      ],
      "stateMutability": "pure",
      "type": "function"
    },
    {
      "inputs": [
        {
          "internalType": "string",
          "name": "_name",
          "type": "string"
        },
        {
          "internalType": "string",
          "name": "_symbol",
          "type": "string"
        }
      ],
      "name": "deployBoom721Token",
      "outputs": [
        {
          "internalType": "contract BoomERC721",
          "name": "_token",
          "type": "address"
        }
      ],
      "stateMutability": "nonpayable",
      "type": "function"
    },
    {
      "inputs": [
        {
          "internalType": "string",
          "name": "_name",
          "type": "string"
        },
        {
          "internalType": "string",
          "name": "_symbol",
          "type": "string"
        }
      ],
      "name": "deployBoomERC20Token",
      "outputs": [
        {
          "internalType": "contract TokenERC20",
          "name": "_token",
          "type": "address"
        }
      ],
      "stateMutability": "nonpayable",
      "type": "function"
    },
    {
      "inputs": [],
      "name": "deployMarketplace",
      "outputs": [
        {
          "internalType": "contract Marketplace",
          "name": "_marketplace",
          "type": "address"
        }
      ],
      "stateMutability": "nonpayable",
      "type": "function"
    },
    {
      "inputs": [
        {
          "internalType": "bytes32",
          "name": "role",
          "type": "bytes32"
        }
      ],
      "name": "getRoleAdmin",
      "outputs": [
        {
          "internalType": "bytes32",
          "name": "",
          "type": "bytes32"
        }
      ],
      "stateMutability": "view",
      "type": "function"
    },
    {
      "inputs": [
        {
          "internalType": "bytes32",
          "name": "role",
          "type": "bytes32"
        },
        {
          "internalType": "uint256",
          "name": "index",
          "type": "uint256"
        }
      ],
      "name": "getRoleMember",
      "outputs": [
        {
          "internalType": "address",
          "name": "",
          "type": "address"
        }
      ],
      "stateMutability": "view",
      "type": "function"
    },
    {
      "inputs": [
        {
          "internalType": "bytes32",
          "name": "role",
          "type": "bytes32"
        }
      ],
      "name": "getRoleMemberCount",
      "outputs": [
        {
          "internalType": "uint256",
          "name": "",
          "type": "uint256"
        }
      ],
      "stateMutability": "view",
      "type": "function"
    },
    {
      "inputs": [
        {
          "internalType": "bytes32",
          "name": "role",
          "type": "bytes32"
        },
        {
          "internalType": "address",
          "name": "account",
          "type": "address"
        }
      ],
      "name": "grantRole",
      "outputs": [],
      "stateMutability": "nonpayable",
      "type": "function"
    },
    {
      "inputs": [
        {
          "internalType": "bytes32",
          "name": "role",
          "type": "bytes32"
        },
        {
          "internalType": "address",
          "name": "account",
          "type": "address"
        }
      ],
      "name": "hasRole",
      "outputs": [
        {
          "internalType": "bool",
          "name": "",
          "type": "bool"
        }
      ],
      "stateMutability": "view",
      "type": "function"
    },
    {
      "inputs": [
        {
          "internalType": "address",
          "name": "_defaultAdmin",
          "type": "address"
        },
        {
          "internalType": "string",
          "name": "_contractURI",
          "type": "string"
        },
        {
          "internalType": "address[]",
          "name": "_trustedForwarders",
          "type": "address[]"
        },
        {
          "internalType": "address",
          "name": "_saleRecipient",
          "type": "address"
        },
        {
          "internalType": "address",
          "name": "_royaltyRecipient",
          "type": "address"
        },
        {
          "internalType": "uint128",
          "name": "_royaltyBps",
          "type": "uint128"
        },
        {
          "internalType": "uint128",
          "name": "_platformFeeBps",
          "type": "uint128"
        },
        {
          "internalType": "address",
          "name": "_platformFeeRecipient",
          "type": "address"
        },
        {
          "internalType": "address",
          "name": "_nativeTokenWrapper",
          "type": "address"
        }
      ],
      "name": "initialize",
      "outputs": [],
      "stateMutability": "nonpayable",
      "type": "function"
    },
    {
      "inputs": [],
      "name": "marketplace",
      "outputs": [
        {
          "internalType": "contract Marketplace",
          "name": "",
          "type": "address"
        }
      ],
      "stateMutability": "view",
      "type": "function"
    },
    {
      "inputs": [
        {
          "internalType": "bytes[]",
          "name": "data",
          "type": "bytes[]"
        }
      ],
      "name": "multicall",
      "outputs": [
        {
          "internalType": "bytes[]",
          "name": "results",
          "type": "bytes[]"
        }
      ],
      "stateMutability": "nonpayable",
      "type": "function"
    },
    {
      "inputs": [],
      "name": "owner",
      "outputs": [
        {
          "internalType": "address",
          "name": "",
          "type": "address"
        }
      ],
      "stateMutability": "view",
      "type": "function"
    },
    {
      "inputs": [],
      "name": "platformFeeBps",
      "outputs": [
        {
          "internalType": "uint128",
          "name": "",
          "type": "uint128"
        }
      ],
      "stateMutability": "view",
      "type": "function"
    },
    {
      "inputs": [],
      "name": "platformFeeRecipient",
      "outputs": [
        {
          "internalType": "address",
          "name": "",
          "type": "address"
        }
      ],
      "stateMutability": "view",
      "type": "function"
    },
    {
      "inputs": [],
      "name": "primarySaleRecipient",
      "outputs": [
        {
          "internalType": "address",
          "name": "",
          "type": "address"
        }
      ],
      "stateMutability": "view",
      "type": "function"
    },
    {
      "inputs": [
        {
          "internalType": "bytes32",
          "name": "role",
          "type": "bytes32"
        },
        {
          "internalType": "address",
          "name": "account",
          "type": "address"
        }
      ],
      "name": "renounceRole",
      "outputs": [],
      "stateMutability": "nonpayable",
      "type": "function"
    },
    {
      "inputs": [
        {
          "internalType": "bytes32",
          "name": "role",
          "type": "bytes32"
        },
        {
          "internalType": "address",
          "name": "account",
          "type": "address"
        }
      ],
      "name": "revokeRole",
      "outputs": [],
      "stateMutability": "nonpayable",
      "type": "function"
    },
    {
      "inputs": [
        {
          "internalType": "string",
          "name": "_uri",
          "type": "string"
        }
      ],
      "name": "setContractURI",
      "outputs": [],
      "stateMutability": "nonpayable",
      "type": "function"
    },
    {
      "inputs": [
        {
          "internalType": "bytes4",
          "name": "interfaceId",
          "type": "bytes4"
        }
      ],
      "name": "supportsInterface",
      "outputs": [
        {
          "internalType": "bool",
          "name": "",
          "type": "bool"
        }
      ],
      "stateMutability": "view",
      "type": "function"
    },
    {
      "inputs": [
        {
          "internalType": "uint256",
          "name": "",
          "type": "uint256"
        }
      ],
      "name": "trustedForwarders",
      "outputs": [
        {
          "internalType": "address",
          "name": "",
          "type": "address"
        }
      ],
      "stateMutability": "view",
      "type": "function"
    }
  ],
  "bytecode": {
    "object": "0x608060405234801561001057600080fd5b5062010af580620000226000396000f3fe608060405234801561001057600080fd5b50600436106101c45760003560e01c806391d14854116100f9578063ca15c87311610097578063e085530d11610071578063e085530d146103ed578063e3182d1a14610400578063e8a3d48514610414578063eb13554f1461041c57600080fd5b8063ca15c873146103b3578063cb2ef6f7146103c6578063d547741f146103da57600080fd5b8063a217fddf116100d3578063a217fddf14610363578063a3c93bf81461036b578063abc8c7af1461037f578063ac9650d81461039357600080fd5b806391d148541461032e578063938e3d7b14610341578063a0a8e4601461035457600080fd5b806331f7d9641161016657806388cd399a1161014057806388cd399a146102f857806388ea8960146103005780638da5cb5b146103135780639010d07c1461031b57600080fd5b806331f7d964146102be57806336568abe146102d25780636563d71e146102e557600080fd5b806322dcd13e116101a257806322dcd13e14610230578063248a9ca3146102635780632e58853d146102945780632f2ff15d146102a957600080fd5b806301ffc9a7146101c957806307671c74146101f1578063079fe40e1461021c575b600080fd5b6101dc6101d73660046113e2565b610430565b60405190151581526020015b60405180910390f35b6102046101ff3660046114c3565b61045b565b6040516001600160a01b0390911681526020016101e8565b61012d54610204906001600160a01b031681565b6101355461024b90600160801b90046001600160801b031681565b6040516001600160801b0390911681526020016101e8565b610286610271366004611527565b600090815260c9602052604090206001015490565b6040519081526020016101e8565b61029c610542565b6040516101e89190611598565b6102bc6102b73660046115c7565b6105d1565b005b61012e54610204906001600160a01b031681565b6102bc6102e03660046115c7565b6105fb565b6102046102f33660046114c3565b61067e565b610204610771565b6102bc61030e36600461160a565b610851565b610204610a6f565b610204610329366004611757565b610aa5565b6101dc61033c3660046115c7565b610ac4565b6102bc61034f366004611779565b610aef565b604051600181526020016101e8565b610286600081565b61013954610204906001600160a01b031681565b61013754610204906001600160a01b031681565b6103a66103a13660046117eb565b610b0e565b6040516101e8919061184e565b6102866103c1366004611527565b610c03565b6a426f6f6d466163746f727960a81b610286565b6102bc6103e83660046115c7565b610c1a565b6102046103fb366004611527565b610c3f565b61013854610204906001600160a01b031681565b61029c610c6a565b61013054610204906001600160a01b031681565b60006001600160e01b03198216635a05180f60e01b1480610455575061045582610c78565b92915050565b60006040516104699061133e565b604051809103906000f080158015610485573d6000803e3d6000fd5b506101325461012d546101305461013554604051636fd6c05360e11b81529495506001600160a01b038087169563dfad80a6956104ed95908316948b948b9461012f9461013194821693909116916001600160801b03600160801b90910416906004016119b0565b600060405180830381600087803b15801561050757600080fd5b505af115801561051b573d6000803e3d6000fd5b505061013980546001600160a01b0319166001600160a01b03851617905550909392505050565b61012f8054610550906118b0565b80601f016020809104026020016040519081016040528092919081815260200182805461057c906118b0565b80156105c95780601f1061059e576101008083540402835291602001916105c9565b820191906000526020600020905b8154815290600101906020018083116105ac57829003601f168201915b505050505081565b600082815260c960205260409020600101546105ec81610cad565b6105f68383610cba565b505050565b6001600160a01b03811633146106705760405162461bcd60e51b815260206004820152602f60248201527f416363657373436f6e74726f6c3a2063616e206f6e6c792072656e6f756e636560448201526e103937b632b9903337b91039b2b63360891b60648201526084015b60405180910390fd5b61067a8282610cdc565b5050565b600060405161068c9061134c565b604051809103906000f0801580156106a8573d6000803e3d6000fd5b506101325461012d54610134546101355461013054604051633856458d60e21b81529596506001600160a01b038088169663e15916349661071c96908316958c958c9561012f956101319594811694938116936001600160801b0380851694600160801b9004169290911690600401611a40565b600060405180830381600087803b15801561073657600080fd5b505af115801561074a573d6000803e3d6000fd5b505061013880546001600160a01b0319166001600160a01b03851617905550909392505050565b600060405161077f9061135a565b604051809103906000f08015801561079b573d6000803e3d6000fd5b5061013254610130546101355461012e5460405163efd14db560e01b81529495506001600160a01b038087169563efd14db5956107fe959083169461012f946101319492831693600160801b9092046001600160801b0316921690600401611ae0565b600060405180830381600087803b15801561081857600080fd5b505af115801561082c573d6000803e3d6000fd5b505061013780546001600160a01b0319166001600160a01b0385161790555090919050565b600054610100900460ff16158080156108715750600054600160ff909116105b8061088b5750303b15801561088b575060005460ff166001145b6108ee5760405162461bcd60e51b815260206004820152602e60248201527f496e697469616c697a61626c653a20636f6e747261637420697320616c72656160448201526d191e481a5b9a5d1a585b1a5e995960921b6064820152608401610667565b6000805460ff191660011790558015610911576000805461ff0019166101001790555b610919610cfe565b61013480546001600160a01b03199081166001600160a01b038981169190911790925561013580546fffffffffffffffffffffffffffffffff19166001600160801b0389161790556101308054821686841617905561012d80549091169189169190911790558751610993906101319060208b0190611368565b5061012f6109a18a82611b8c565b5061013580546001600160801b031667ffffffffffffffff8616600160801b0217905561013380546001600160a01b0319166001600160a01b038c161790556109eb60008b610d2f565b61013280546001600160a01b03808d166001600160a01b03199283161790925561012e8054928516929091169190911790558015610a63576000805461ff0019169055604051600181527f7f26b83ff96e1f2b6a682f133852f6798a09c465da95921460cefb38474024989060200160405180910390a15b50505050505050505050565b61013354600090610a8a9082906001600160a01b0316610ac4565b610a945750600090565b50610133546001600160a01b031690565b600082815260fb60205260408120610abd9083610d39565b9392505050565b600091825260c9602090815260408084206001600160a01b0393909316845291905290205460ff1690565b6000610afa81610cad565b610136610b08838583611c4c565b50505050565b60608167ffffffffffffffff811115610b2957610b2961140c565b604051908082528060200260200182016040528015610b5c57816020015b6060815260200190600190039081610b475790505b50905060005b82811015610bfc57610bcc30858584818110610b8057610b80611d0d565b9050602002810190610b929190611d23565b8080601f016020809104026020016040519081016040528093929190818152602001838380828437600092019190915250610d4592505050565b828281518110610bde57610bde611d0d565b60200260200101819052508080610bf490611d87565b915050610b62565b5092915050565b600081815260fb6020526040812061045590610e3a565b600082815260c96020526040902060010154610c3581610cad565b6105f68383610cdc565b6101318181548110610c5057600080fd5b6000918252602090912001546001600160a01b0316905081565b6101368054610550906118b0565b60006001600160e01b03198216637965db0b60e01b148061045557506301ffc9a760e01b6001600160e01b0319831614610455565b610cb78133610e44565b50565b610cc48282610e9d565b600082815260fb602052604090206105f69082610f23565b610ce68282610f38565b600082815260fb602052604090206105f69082610f9f565b600054610100900460ff16610d255760405162461bcd60e51b815260040161066790611da0565b610d2d610fb4565b565b61067a8282610cba565b6000610abd8383610fe1565b60606001600160a01b0383163b610dad5760405162461bcd60e51b815260206004820152602660248201527f416464726573733a2064656c65676174652063616c6c20746f206e6f6e2d636f6044820152651b9d1c9858dd60d21b6064820152608401610667565b600080846001600160a01b031684604051610dc89190611deb565b600060405180830381855af49150503d8060008114610e03576040519150601f19603f3d011682016040523d82523d6000602084013e610e08565b606091505b5091509150610e31828260405180606001604052806027815260200162010a996027913961100b565b95945050505050565b6000610455825490565b610e4e8282610ac4565b61067a57610e5b81611024565b610e66836020611036565b604051602001610e77929190611e07565b60408051601f198184030181529082905262461bcd60e51b825261066791600401611598565b610ea78282610ac4565b61067a57600082815260c9602090815260408083206001600160a01b03851684529091529020805460ff19166001179055610edf3390565b6001600160a01b0316816001600160a01b0316837f2f8788117e7eff1d82e926ec794901d17c78024a50270940304540a733656f0d60405160405180910390a45050565b6000610abd836001600160a01b0384166111d2565b610f428282610ac4565b1561067a57600082815260c9602090815260408083206001600160a01b0385168085529252808320805460ff1916905551339285917ff6391f5c32d9c69d2a47ea670b442974b53935d1edc7fd64eb21e047a839171b9190a45050565b6000610abd836001600160a01b038416611221565b600054610100900460ff16610fdb5760405162461bcd60e51b815260040161066790611da0565b60018055565b6000826000018281548110610ff857610ff8611d0d565b9060005260206000200154905092915050565b6060831561101a575081610abd565b610abd8383611314565b60606104556001600160a01b03831660145b60606000611045836002611e7c565b611050906002611e9b565b67ffffffffffffffff8111156110685761106861140c565b6040519080825280601f01601f191660200182016040528015611092576020820181803683370190505b509050600360fc1b816000815181106110ad576110ad611d0d565b60200101906001600160f81b031916908160001a905350600f60fb1b816001815181106110dc576110dc611d0d565b60200101906001600160f81b031916908160001a9053506000611100846002611e7c565b61110b906001611e9b565b90505b6001811115611183576f181899199a1a9b1b9c1cb0b131b232b360811b85600f166010811061113f5761113f611d0d565b1a60f81b82828151811061115557611155611d0d565b60200101906001600160f81b031916908160001a90535060049490941c9361117c81611eb3565b905061110e565b508315610abd5760405162461bcd60e51b815260206004820181905260248201527f537472696e67733a20686578206c656e67746820696e73756666696369656e746044820152606401610667565b600081815260018301602052604081205461121957508154600181810184556000848152602080822090930184905584548482528286019093526040902091909155610455565b506000610455565b6000818152600183016020526040812054801561130a576000611245600183611eca565b855490915060009061125990600190611eca565b90508181146112be57600086600001828154811061127957611279611d0d565b906000526020600020015490508087600001848154811061129c5761129c611d0d565b6000918252602080832090910192909255918252600188019052604090208390555b85548690806112cf576112cf611ee1565b600190038181906000526020600020016000905590558560010160008681526020019081526020016000206000905560019350505050610455565b6000915050610455565b8151156113245781518083602001fd5b8060405162461bcd60e51b81526004016106679190611598565b6148b68062001ef883390190565b6149cb80620067ae83390190565b615920806200b17983390190565b8280548282559060005260206000209081019282156113bd579160200282015b828111156113bd57825182546001600160a01b0319166001600160a01b03909116178255602090920191600190910190611388565b506113c99291506113cd565b5090565b5b808211156113c957600081556001016113ce565b6000602082840312156113f457600080fd5b81356001600160e01b031981168114610abd57600080fd5b634e487b7160e01b600052604160045260246000fd5b604051601f8201601f1916810167ffffffffffffffff8111828210171561144b5761144b61140c565b604052919050565b600082601f83011261146457600080fd5b813567ffffffffffffffff81111561147e5761147e61140c565b611491601f8201601f1916602001611422565b8181528460208386010111156114a657600080fd5b816020850160208301376000918101602001919091529392505050565b600080604083850312156114d657600080fd5b823567ffffffffffffffff808211156114ee57600080fd5b6114fa86838701611453565b9350602085013591508082111561151057600080fd5b5061151d85828601611453565b9150509250929050565b60006020828403121561153957600080fd5b5035919050565b60005b8381101561155b578181015183820152602001611543565b83811115610b085750506000910152565b60008151808452611584816020860160208601611540565b601f01601f19169290920160200192915050565b602081526000610abd602083018461156c565b80356001600160a01b03811681146115c257600080fd5b919050565b600080604083850312156115da57600080fd5b823591506115ea602084016115ab565b90509250929050565b80356001600160801b03811681146115c257600080fd5b60008060008060008060008060006101208a8c03121561162957600080fd5b6116328a6115ab565b985060208a013567ffffffffffffffff8082111561164f57600080fd5b61165b8d838e01611453565b995060408c013591508082111561167157600080fd5b818c0191508c601f83011261168557600080fd5b8135818111156116975761169761140c565b8060051b91506116a960208301611422565b81815260209284018301928101908f8411156116c457600080fd5b6020850194505b838510156116ed576116dc856115ab565b8252602094850194909101906116cb565b809b50505050505061170160608b016115ab565b955061170f60808b016115ab565b945061171d60a08b016115f3565b935061172b60c08b016115f3565b925061173960e08b016115ab565b91506117486101008b016115ab565b90509295985092959850929598565b6000806040838503121561176a57600080fd5b50508035926020909101359150565b6000806020838503121561178c57600080fd5b823567ffffffffffffffff808211156117a457600080fd5b818501915085601f8301126117b857600080fd5b8135818111156117c757600080fd5b8660208285010111156117d957600080fd5b60209290920196919550909350505050565b600080602083850312156117fe57600080fd5b823567ffffffffffffffff8082111561181657600080fd5b818501915085601f83011261182a57600080fd5b81358181111561183957600080fd5b8660208260051b85010111156117d957600080fd5b6000602080830181845280855180835260408601915060408160051b870101925083870160005b828110156118a357603f1988860301845261189185835161156c565b94509285019290850190600101611875565b5092979650505050505050565b600181811c908216806118c457607f821691505b6020821081036118e457634e487b7160e01b600052602260045260246000fd5b50919050565b600081546118f7816118b0565b808552602060018381168015611914576001811461192e5761195c565b60ff1985168884015283151560051b88018301955061195c565b866000528260002060005b858110156119545781548a8201860152908301908401611939565b890184019650505b505050505092915050565b6000815480845260208085019450836000528060002060005b838110156119a55781546001600160a01b031687529582019560019182019101611980565b509495945050505050565b6001600160a01b038981168252610100602083018190526000916119d68483018c61156c565b915083820360408501526119ea828b61156c565b915083820360608501526119fe828a6118ea565b91508382036080850152611a128289611967565b96811660a08501529490941660c0830152506001600160801b039190911660e0909101525095945050505050565b6001600160a01b038b8116825261014060208301819052600091611a668483018e61156c565b91508382036040850152611a7a828d61156c565b91508382036060850152611a8e828c6118ea565b91508382036080850152611aa2828b611967565b98811660a085015296871660c084015250506001600160801b0393841660e08201529190921661010082015291166101209091015295945050505050565b600060018060a01b03808916835260c06020840152611b0260c08401896118ea565b8381036040850152611b148189611967565b9682166060850152506001600160801b0394909416608083015250911660a0909101529392505050565b601f8211156105f657600081815260208120601f850160051c81016020861015611b655750805b601f850160051c820191505b81811015611b8457828155600101611b71565b505050505050565b815167ffffffffffffffff811115611ba657611ba661140c565b611bba81611bb484546118b0565b84611b3e565b602080601f831160018114611bef5760008415611bd75750858301515b600019600386901b1c1916600185901b178555611b84565b600085815260208120601f198616915b82811015611c1e57888601518255948401946001909101908401611bff565b5085821015611c3c5787850151600019600388901b60f8161c191681555b5050505050600190811b01905550565b67ffffffffffffffff831115611c6457611c6461140c565b611c7883611c7283546118b0565b83611b3e565b6000601f841160018114611cac5760008515611c945750838201355b600019600387901b1c1916600186901b178355611d06565b600083815260209020601f19861690835b82811015611cdd5786850135825560209485019460019092019101611cbd565b5086821015611cfa5760001960f88860031b161c19848701351681555b505060018560011b0183555b5050505050565b634e487b7160e01b600052603260045260246000fd5b6000808335601e19843603018112611d3a57600080fd5b83018035915067ffffffffffffffff821115611d5557600080fd5b602001915036819003821315611d6a57600080fd5b9250929050565b634e487b7160e01b600052601160045260246000fd5b600060018201611d9957611d99611d71565b5060010190565b6020808252602b908201527f496e697469616c697a61626c653a20636f6e7472616374206973206e6f74206960408201526a6e697469616c697a696e6760a81b606082015260800190565b60008251611dfd818460208701611540565b9190910192915050565b7f416363657373436f6e74726f6c3a206163636f756e7420000000000000000000815260008351611e3f816017850160208801611540565b7001034b99036b4b9b9b4b733903937b6329607d1b6017918401918201528351611e70816028840160208801611540565b01602801949350505050565b6000816000190483118215151615611e9657611e96611d71565b500290565b60008219821115611eae57611eae611d71565b500190565b600081611ec257611ec2611d71565b506000190190565b600082821015611edc57611edc611d71565b500390565b634e487b7160e01b600052603160045260246000fdfe608060405234801561001057600080fd5b50614896806100206000396000f3fe6080604052600436106102c95760003560e01c80637ecebe0011610175578063a9059cbb116100dc578063d45573f611610095578063dd62ed3e1161006f578063dd62ed3e1461091c578063dfad80a61461093c578063e8a3d4851461095c578063f1127ed81461097157600080fd5b8063d45573f6146108a5578063d505accf146108dc578063d547741f146108fc57600080fd5b8063a9059cbb146107b9578063ac9650d8146107d9578063c1b606e214610806578063c3cda52014610845578063ca15c87314610865578063cb2ef6f71461088557600080fd5b8063938e3d7b1161012e578063938e3d7b1461071b57806395d89b411461073b5780639ab24eb014610750578063a0a8e46014610770578063a217fddf14610784578063a457c2d71461079957600080fd5b80637ecebe00146106735780638456cb59146106935780638e539e8c146106a85780638f0fefbb146106c85780639010d07c146106db57806391d14854146106fb57600080fd5b80633950935111610234578063587cde1e116101ed5780636f4f2837116101c75780636f4f2837146105c85780636fcfff45146105e857806370a082311461061d57806379cc67901461065357600080fd5b8063587cde1e146105555780635c19a95c1461058f5780635c975abb146105af57600080fd5b806339509351146104875780633a46b1a8146104a75780633f4ba83a146104c757806342966c68146104dc578063449a52f8146104fc578063572b6c051461051c57600080fd5b806323b872dd1161028657806323b872dd146103bf578063248a9ca3146103df5780632f2ff15d14610410578063313ce567146104305780633644e5151461045257806336568abe1461046757600080fd5b806301ffc9a7146102ce57806306fdde0314610303578063079fe40e14610325578063095ea7b31461035e57806318160ddd1461037e5780631e7ac4881461039d575b600080fd5b3480156102da57600080fd5b506102ee6102e9366004613c5c565b6109bb565b60405190151581526020015b60405180910390f35b34801561030f57600080fd5b506103186109e6565b6040516102fa9190613cde565b34801561033157600080fd5b506102c354610346906001600160a01b031681565b6040516001600160a01b0390911681526020016102fa565b34801561036a57600080fd5b506102ee610379366004613d0d565b610a78565b34801561038a57600080fd5b5060cb545b6040519081526020016102fa565b3480156103a957600080fd5b506103bd6103b8366004613d0d565b610a9a565b005b3480156103cb57600080fd5b506102ee6103da366004613d37565b610b60565b3480156103eb57600080fd5b5061038f6103fa366004613d73565b600090815261025c602052604090206001015490565b34801561041c57600080fd5b506103bd61042b366004613d8c565b610b90565b34801561043c57600080fd5b5060125b60405160ff90911681526020016102fa565b34801561045e57600080fd5b5061038f610bbb565b34801561047357600080fd5b506103bd610482366004613d8c565b610bca565b34801561049357600080fd5b506102ee6104a2366004613d0d565b610c58565b3480156104b357600080fd5b5061038f6104c2366004613d0d565b610c84565b3480156104d357600080fd5b506103bd610cf8565b3480156104e857600080fd5b506103bd6104f7366004613d73565b610d68565b34801561050857600080fd5b506103bd610517366004613d0d565b610d7c565b34801561052857600080fd5b506102ee610537366004613db8565b6001600160a01b031660009081526065602052604090205460ff1690565b34801561056157600080fd5b50610346610570366004613db8565b6001600160a01b0390811660009081526101f860205260409020541690565b34801561059b57600080fd5b506103bd6105aa366004613db8565b610dec565b3480156105bb57600080fd5b5061012d5460ff166102ee565b3480156105d457600080fd5b506103bd6105e3366004613db8565b610dfd565b3480156105f457600080fd5b50610608610603366004613db8565b610e54565b60405163ffffffff90911681526020016102fa565b34801561062957600080fd5b5061038f610638366004613db8565b6001600160a01b0316600090815260c9602052604090205490565b34801561065f57600080fd5b506103bd61066e366004613d0d565b610e77565b34801561067f57600080fd5b5061038f61068e366004613db8565b610e93565b34801561069f57600080fd5b506103bd610eb2565b3480156106b457600080fd5b5061038f6106c3366004613d73565b610f20565b6103bd6106d6366004613e14565b610f7d565b3480156106e757600080fd5b506103466106f6366004613e70565b611097565b34801561070757600080fd5b506102ee610716366004613d8c565b6110b0565b34801561072757600080fd5b506103bd610736366004613e92565b6110dc565b34801561074757600080fd5b506103186110fb565b34801561075c57600080fd5b5061038f61076b366004613db8565b61110a565b34801561077c57600080fd5b506001610440565b34801561079057600080fd5b5061038f600081565b3480156107a557600080fd5b506102ee6107b4366004613d0d565b611193565b3480156107c557600080fd5b506102ee6107d4366004613d0d565b611224565b3480156107e557600080fd5b506107f96107f4366004613ed3565b61123c565b6040516102fa9190613f47565b34801561081257600080fd5b50610826610821366004613e14565b611330565b6040805192151583526001600160a01b039091166020830152016102fa565b34801561085157600080fd5b506103bd610860366004613fba565b611398565b34801561087157600080fd5b5061038f610880366004613d73565b6114ce565b34801561089157600080fd5b50690546f6b656e45524332360b41b61038f565b3480156108b157600080fd5b506102c2546102c154604080516001600160a01b03909316835261ffff9091166020830152016102fa565b3480156108e857600080fd5b506103bd6108f7366004614012565b6114e6565b34801561090857600080fd5b506103bd610917366004613d8c565b61164a565b34801561092857600080fd5b5061038f61093736600461407c565b611670565b34801561094857600080fd5b506103bd6109573660046141d6565b61169b565b34801561096857600080fd5b506103186118b6565b34801561097d57600080fd5b5061099161098c3660046142be565b611945565b60408051825163ffffffff1681526020928301516001600160e01b031692810192909252016102fa565b60006001600160e01b03198216635a05180f60e01b14806109e057506109e0826119ca565b92915050565b606060cc80546109f5906142fe565b80601f0160208091040260200160405190810160405280929190818152602001828054610a21906142fe565b8015610a6e5780601f10610a4357610100808354040283529160200191610a6e565b820191906000526020600020905b815481529060010190602001808311610a5157829003601f168201915b5050505050905090565b600080610a836119ff565b9050610a90818585611a09565b5060019392505050565b6000610aa581611b2d565b612710821115610aec5760405162461bcd60e51b815260206004820152600d60248201526c313839901e1e9018981818181760991b60448201526064015b60405180910390fd5b6102c180546001600160801b0319166001600160401b0384161790556102c280546001600160a01b0385166001600160a01b031990911681179091556040518381527fe2497bd806ec41a6e0dd992c29a72efc0ef8fec9092d1978fd4a1e00b2f183049060200160405180910390a2505050565b600080610b6b6119ff565b9050610b78858285611b3e565b610b83858585611bb2565b60019150505b9392505050565b600082815261025c6020526040902060010154610bac81611b2d565b610bb68383611d6e565b505050565b6000610bc5611d91565b905090565b610bd26119ff565b6001600160a01b0316816001600160a01b031614610c4a5760405162461bcd60e51b815260206004820152602f60248201527f416363657373436f6e74726f6c3a2063616e206f6e6c792072656e6f756e636560448201526e103937b632b9903337b91039b2b63360891b6064820152608401610ae3565b610c548282611e0e565b5050565b600080610c636119ff565b9050610a90818585610c758589611670565b610c7f9190614348565b611a09565b6000438210610cd55760405162461bcd60e51b815260206004820152601f60248201527f4552433230566f7465733a20626c6f636b206e6f7420796574206d696e6564006044820152606401610ae3565b6001600160a01b03831660009081526101f960205260409020610b899083611e31565b610d247f65d7a28e3265b37a6474929f336521b332c1681b933f6cb9f3376673440d862a6107166119ff565b610d5e5760405162461bcd60e51b815260206004820152600b60248201526a3737ba103830bab9b2b91760a91b6044820152606401610ae3565b610d66611f28565b565b610d79610d736119ff565b82611f81565b50565b610da87f9f2df0fed2c77648de5860a4cc508cd0818c85b8b8a1ab4ceeef8d981c8956a66107166119ff565b610de25760405162461bcd60e51b815260206004820152600b60248201526a3737ba1036b4b73a32b91760a91b6044820152606401610ae3565b610c548282611f8b565b610d79610df76119ff565b82611fdc565b6000610e0881611b2d565b6102c380546001600160a01b0319166001600160a01b0384169081179091556040517f299d17e95023f496e0ffc4909cff1a61f74bb5eb18de6f900f4155bfa1b3b33390600090a25050565b6001600160a01b03811660009081526101f960205260408120546109e090612057565b610e8982610e836119ff565b83611b3e565b610c548282611f81565b6001600160a01b03811660009081526101c560205260408120546109e0565b610ede7f65d7a28e3265b37a6474929f336521b332c1681b933f6cb9f3376673440d862a6107166119ff565b610f185760405162461bcd60e51b815260206004820152600b60248201526a3737ba103830bab9b2b91760a91b6044820152606401610ae3565b610d666120c0565b6000438210610f715760405162461bcd60e51b815260206004820152601f60248201527f4552433230566f7465733a20626c6f636b206e6f7420796574206d696e6564006044820152606401610ae3565b6109e06101fa83611e31565b610f856120ff565b6000610f92848484612158565b9050600080610fa46020870187613db8565b6001600160a01b031614610fc457610fbf6020860186613db8565b610fcc565b610fcc6119ff565b9050600080610fe16040880160208901613db8565b6001600160a01b03161461100457610fff6040870160208801613db8565b611012565b6102c3546001600160a01b03165b90506110328161102860a0890160808a01613db8565b8860600135612254565b611040828760400135611f8b565b816001600160a01b0316836001600160a01b03167fc4d88b1adde72eb5acf63f3e219ef5b223262233acf507c3b171277c91973c67886040516110839190614377565b60405180910390a3505050610bb660018055565b600082815261028e60205260408120610b899083612333565b600091825261025c602090815260408084206001600160a01b0393909316845291905290205460ff1690565b60006110e781611b2d565b6102c06110f583858361445b565b50505050565b606060cd80546109f5906142fe565b6001600160a01b03811660009081526101f960205260408120548015611180576001600160a01b03831660009081526101f96020526040902061114e60018361451b565b8154811061115e5761115e614532565b60009182526020909120015464010000000090046001600160e01b0316611183565b60005b6001600160e01b03169392505050565b60008061119e6119ff565b905060006111ac8286611670565b90508381101561120c5760405162461bcd60e51b815260206004820152602560248201527f45524332303a2064656372656173656420616c6c6f77616e63652062656c6f77604482015264207a65726f60d81b6064820152608401610ae3565b6112198286868403611a09565b506001949350505050565b60008061122f6119ff565b9050610a90818585611bb2565b6060816001600160401b03811115611256576112566140a6565b60405190808252806020026020018201604052801561128957816020015b60608152602001906001900390816112745790505b50905060005b82811015611329576112f9308585848181106112ad576112ad614532565b90506020028101906112bf9190614548565b8080601f01602080910402602001604051908101604052809392919081815260200183838082843760009201919091525061233f92505050565b82828151811061130b5761130b614532565b602002602001018190525080806113219061458e565b91505061128f565b5092915050565b6000806000611340868686612433565b60e087013560009081526102c4602052604090205490915060ff1615801561138d575061138d7f9f2df0fed2c77648de5860a4cc508cd0818c85b8b8a1ab4ceeef8d981c8956a6826110b0565b969095509350505050565b834211156113e85760405162461bcd60e51b815260206004820152601d60248201527f4552433230566f7465733a207369676e617475726520657870697265640000006044820152606401610ae3565b604080517fe48329057bfd03d55e49b547132e39cffd9c1820ad7b9d4c5307691425d15adf60208201526001600160a01b0388169181019190915260608101869052608081018590526000906114629061145a9060a00160405160208183030381529060405280519060200120612497565b8585856124e5565b905061146d8161250d565b86146114bb5760405162461bcd60e51b815260206004820152601960248201527f4552433230566f7465733a20696e76616c6964206e6f6e6365000000000000006044820152606401610ae3565b6114c58188611fdc565b50505050505050565b600081815261028e602052604081206109e090612536565b834211156115365760405162461bcd60e51b815260206004820152601d60248201527f45524332305065726d69743a206578706972656420646561646c696e650000006044820152606401610ae3565b60007f6e71edae12b1b97f4d1f60370fef10105fa2faae0126114a169c64845d6126c98888886115658c61250d565b6040805160208101969096526001600160a01b0394851690860152929091166060840152608083015260a082015260c0810186905260e00160405160208183030381529060405280519060200120905060006115c082612497565b905060006115d0828787876124e5565b9050896001600160a01b0316816001600160a01b0316146116335760405162461bcd60e51b815260206004820152601e60248201527f45524332305065726d69743a20696e76616c6964207369676e617475726500006044820152606401610ae3565b61163e8a8a8a611a09565b50505050505050505050565b600082815261025c602052604090206001015461166681611b2d565b610bb68383611e0e565b6001600160a01b03918216600090815260ca6020908152604080832093909416825291909152205490565b600054610100900460ff16158080156116bb5750600054600160ff909116105b806116d55750303b1580156116d5575060005460ff166001145b6117385760405162461bcd60e51b815260206004820152602e60248201527f496e697469616c697a61626c653a20636f6e747261637420697320616c72656160448201526d191e481a5b9a5d1a585b1a5e995960921b6064820152608401610ae3565b6000805460ff19166001179055801561175b576000805461ff0019166101001790555b61176485612540565b61176d886125cf565b6117778888612619565b6102c061178487826145a7565b506102c380546001600160a01b038087166001600160a01b0319928316179092556102c28054928616929091169190911790556102c180546001600160801b0384166001600160801b03199091161790556117e060008a612659565b6117f860008051602061481a8339815191528a612659565b6118227f9f2df0fed2c77648de5860a4cc508cd0818c85b8b8a1ab4ceeef8d981c8956a68a612659565b61184c7f65d7a28e3265b37a6474929f336521b332c1681b933f6cb9f3376673440d862a8a612659565b61186560008051602061481a8339815191526000612659565b80156118ab576000805461ff0019169055604051600181527f7f26b83ff96e1f2b6a682f133852f6798a09c465da95921460cefb38474024989060200160405180910390a15b505050505050505050565b6102c080546118c4906142fe565b80601f01602080910402602001604051908101604052809291908181526020018280546118f0906142fe565b801561193d5780601f106119125761010080835404028352916020019161193d565b820191906000526020600020905b81548152906001019060200180831161192057829003601f168201915b505050505081565b60408051808201909152600080825260208201526001600160a01b03831660009081526101f960205260409020805463ffffffff841690811061198a5761198a614532565b60009182526020918290206040805180820190915291015463ffffffff8116825264010000000090046001600160e01b0316918101919091529392505050565b60006001600160e01b03198216637965db0b60e01b14806109e057506301ffc9a760e01b6001600160e01b03198316146109e0565b6000610bc5612663565b6001600160a01b038316611a6b5760405162461bcd60e51b8152602060048201526024808201527f45524332303a20617070726f76652066726f6d20746865207a65726f206164646044820152637265737360e01b6064820152608401610ae3565b6001600160a01b038216611acc5760405162461bcd60e51b815260206004820152602260248201527f45524332303a20617070726f766520746f20746865207a65726f206164647265604482015261737360f01b6064820152608401610ae3565b6001600160a01b03838116600081815260ca602090815260408083209487168084529482529182902085905590518481527f8c5be1e5ebec7d5bd14f71427d1e84f3dd0314c0f7b2291e5b200ac8c7c3b925910160405180910390a3505050565b610d7981611b396119ff565b61268d565b6000611b4a8484611670565b905060001981146110f55781811015611ba55760405162461bcd60e51b815260206004820152601d60248201527f45524332303a20696e73756666696369656e7420616c6c6f77616e63650000006044820152606401610ae3565b6110f58484848403611a09565b6001600160a01b038316611c165760405162461bcd60e51b815260206004820152602560248201527f45524332303a207472616e736665722066726f6d20746865207a65726f206164604482015264647265737360d81b6064820152608401610ae3565b6001600160a01b038216611c785760405162461bcd60e51b815260206004820152602360248201527f45524332303a207472616e7366657220746f20746865207a65726f206164647260448201526265737360e81b6064820152608401610ae3565b611c838383836126e6565b6001600160a01b038316600090815260c9602052604090205481811015611cfb5760405162461bcd60e51b815260206004820152602660248201527f45524332303a207472616e7366657220616d6f756e7420657863656564732062604482015265616c616e636560d01b6064820152608401610ae3565b6001600160a01b03808516600081815260c9602052604080822086860390559286168082529083902080548601905591517fddf252ad1be2c89b69c2b068fc378daa952ba7f163c4a11628f55a4df523b3ef90611d5b9086815260200190565b60405180910390a36110f58484846127b2565b611d7882826127bd565b600082815261028e60205260409020610bb69082612845565b6000610bc57f8b73c3c69bb8fe3d512ecc4cf759cc79239f7b179b0ffacaa9a75d522b39400f611dc16101915490565b610192546040805160208101859052908101839052606081018290524660808201523060a082015260009060c0016040516020818303038152906040528051906020012090509392505050565b611e18828261285a565b600082815261028e60205260409020610bb690826128e0565b815460009081816005811115611e8b576000611e4c846128f5565b611e56908561451b565b600088815260209020909150869082015463ffffffff161115611e7b57809150611e89565b611e86816001614348565b92505b505b80821015611ed8576000611e9f83836129dd565b600088815260209020909150869082015463ffffffff161115611ec457809150611ed2565b611ecf816001614348565b92505b50611e8b565b8015611f1257611efb86611eed60018461451b565b600091825260209091200190565b5464010000000090046001600160e01b0316611f15565b60005b6001600160e01b03169695505050505050565b611f306129f8565b61012d805460ff191690557f5db9ee0a495bf2e6ff9c91a7834c1ba4fdd244a5e8aa4e537bd38aeae4b073aa611f646119ff565b6040516001600160a01b03909116815260200160405180910390a1565b610c548282612a42565b611f958282612a5b565b816001600160a01b03167f3f2c9d57c068687834f0de942a9babb9e5acab57d516d3480a3c16ee165a427382604051611fd091815260200190565b60405180910390a25050565b6001600160a01b0382811660008181526101f860208181526040808420805460c9845282862054949093528787166001600160a01b03198416811790915590519190951694919391928592917f3134e8a2e6d97e929a7e54011ea5485d7d196dd5f0ba4d4ef95803e8e3fc257f9190a46110f5828483612a65565b600063ffffffff8211156120bc5760405162461bcd60e51b815260206004820152602660248201527f53616665436173743a2076616c756520646f65736e27742066697420696e203360448201526532206269747360d01b6064820152608401610ae3565b5090565b6120c8612ba4565b61012d805460ff191660011790557f62e78cea01bee320cd4e420270b5ea74000d11b0c9f74754ebdbfc544b05a258611f646119ff565b6002600154036121515760405162461bcd60e51b815260206004820152601f60248201527f5265656e7472616e637947756172643a207265656e7472616e742063616c6c006044820152606401610ae3565b6002600155565b6000806000612168868686611330565b91509150816121ad5760405162461bcd60e51b8152602060048201526011602482015270696e76616c6964207369676e617475726560781b6044820152606401610ae3565b426121be60c0880160a08901614666565b6001600160801b0316111580156121ed5750426121e160e0880160c08901614666565b6001600160801b031610155b61222b5760405162461bcd60e51b815260206004820152600f60248201526e1c995c5d595cdd08195e1c1a5c9959608a1b6044820152606401610ae3565b60e086013560009081526102c460205260409020805460ff191660011790559150509392505050565b8060000361226157505050565b6102c1546000906127109061227f906001600160801b031684614681565b61228991906146b6565b905073eeeeeeeeeeeeeeeeeeeeeeeeeeeeeeeeeeeeeeed196001600160a01b038416016122f8578134146122f85760405162461bcd60e51b815260206004820152601660248201527536bab9ba1039b2b732103a37ba30b610383934b1b29760511b6044820152606401610ae3565b612317836123046119ff565b6102c2546001600160a01b031684612beb565b6110f5836123236119ff565b8661232e858761451b565b612beb565b6000610b898383612c31565b60606001600160a01b0383163b6123a75760405162461bcd60e51b815260206004820152602660248201527f416464726573733a2064656c65676174652063616c6c20746f206e6f6e2d636f6044820152651b9d1c9858dd60d21b6064820152608401610ae3565b600080846001600160a01b0316846040516123c291906146d8565b600060405180830381855af49150503d80600081146123fd576040519150601f19603f3d011682016040523d82523d6000602084013e612402565b606091505b509150915061242a828260405180606001604052806027815260200161483a60279139612c5b565b95945050505050565b600061248f83838080601f016020809104026020016040519081016040528093929190818152602001838380828437600092019190915250612489925061247d9150889050612c74565b80519060200120612497565b90612d68565b949350505050565b60006109e06124a4611d91565b8360405161190160f01b6020820152602281018390526042810182905260009060620160405160208183030381529060405280519060200120905092915050565b60008060006124f687878787612d8c565b9150915061250381612e50565b5095945050505050565b6001600160a01b03811660009081526101c5602052604090208054600181018255905b50919050565b60006109e0825490565b600054610100900460ff166125675760405162461bcd60e51b8152600401610ae3906146f4565b60005b8151811015610c545760016065600084848151811061258b5761258b614532565b6020908102919091018101516001600160a01b03168252810191909152604001600020805460ff1916911515919091179055806125c78161458e565b91505061256a565b600054610100900460ff166125f65760405162461bcd60e51b8152600401610ae3906146f4565b610d7981604051806040016040528060018152602001603160f81b815250612f9a565b600054610100900460ff166126405760405162461bcd60e51b8152600401610ae3906146f4565b60cc61264c83826145a7565b5060cd610bb682826145a7565b610c548282611d6e565b3360009081526065602052604081205460ff1615612688575060131936013560601c90565b503390565b61269782826110b0565b610c54576126a481612fdd565b6126af836020612fef565b6040516020016126c092919061473f565b60408051601f198184030181529082905262461bcd60e51b8252610ae391600401613cde565b6126f183838361318a565b61270a60008051602061481a83398151915260006110b0565b15801561271f57506001600160a01b03831615155b801561273357506001600160a01b03821615155b15610bb65761275060008051602061481a833981519152846110b0565b8061276e575061276e60008051602061481a833981519152836110b0565b610bb65760405162461bcd60e51b81526020600482015260156024820152743a3930b739b332b939903932b9ba3934b1ba32b21760591b6044820152606401610ae3565b610bb68383836131f1565b6127c782826110b0565b610c5457600082815261025c602090815260408083206001600160a01b03851684529091529020805460ff191660011790556128016119ff565b6001600160a01b0316816001600160a01b0316837f2f8788117e7eff1d82e926ec794901d17c78024a50270940304540a733656f0d60405160405180910390a45050565b6000610b89836001600160a01b038416613224565b61286482826110b0565b15610c5457600082815261025c602090815260408083206001600160a01b03851684529091529020805460ff1916905561289c6119ff565b6001600160a01b0316816001600160a01b0316837ff6391f5c32d9c69d2a47ea670b442974b53935d1edc7fd64eb21e047a839171b60405160405180910390a45050565b6000610b89836001600160a01b038416613273565b60008160000361290757506000919050565b6000600161291484613366565b901c6001901b9050600181848161292d5761292d6146a0565b048201901c90506001818481612945576129456146a0565b048201901c9050600181848161295d5761295d6146a0565b048201901c90506001818481612975576129756146a0565b048201901c9050600181848161298d5761298d6146a0565b048201901c905060018184816129a5576129a56146a0565b048201901c905060018184816129bd576129bd6146a0565b048201901c9050610b89818285816129d7576129d76146a0565b046133fa565b60006129ec60028484186146b6565b610b8990848416614348565b61012d5460ff16610d665760405162461bcd60e51b815260206004820152601460248201527314185d5cd8589b194e881b9bdd081c185d5cd95960621b6044820152606401610ae3565b612a4c8282613410565b6110f56101fa61355783613563565b610c5482826136b7565b816001600160a01b0316836001600160a01b031614158015612a875750600081115b15610bb6576001600160a01b03831615612b16576001600160a01b03831660009081526101f9602052604081208190612ac39061355785613563565b91509150846001600160a01b03167fdec2bacdd2f05b59de34da9b523dff8be42e5e38e818c82fdb0bae774387a7248383604051612b0b929190918252602082015260400190565b60405180910390a250505b6001600160a01b03821615610bb6576001600160a01b03821660009081526101f9602052604081208190612b4d9061374285613563565b91509150836001600160a01b03167fdec2bacdd2f05b59de34da9b523dff8be42e5e38e818c82fdb0bae774387a7248383604051612b95929190918252602082015260400190565b60405180910390a25050505050565b61012d5460ff1615610d665760405162461bcd60e51b815260206004820152601060248201526f14185d5cd8589b194e881c185d5cd95960821b6044820152606401610ae3565b80156110f55773eeeeeeeeeeeeeeeeeeeeeeeeeeeeeeeeeeeeeeed196001600160a01b03851601612c2557612c20828261374e565b6110f5565b6110f5848484846137f1565b6000826000018281548110612c4857612c48614532565b9060005260206000200154905092915050565b60608315612c6a575081610b89565b610b898383613844565b60607fbac245dbd9b8b2bb334c0675db20a7a7a8506de563990c4ce3207f4c3c5b75e1612ca46020840184613db8565b612cb46040850160208601613db8565b60408501356060860135612cce60a0880160808901613db8565b612cde60c0890160a08a01614666565b612cee60e08a0160c08b01614666565b6040805160208101999099526001600160a01b03978816908901529486166060880152608087019390935260a086019190915290921660c08401526001600160801b0391821660e0808501919091529116610100830152830135610120820152610140016040516020818303038152906040529050919050565b6000806000612d77858561386e565b91509150612d8481612e50565b509392505050565b6000807f7fffffffffffffffffffffffffffffff5d576e7357a4501ddfe92f46681b20a0831115612dc35750600090506003612e47565b6040805160008082526020820180845289905260ff881692820192909252606081018690526080810185905260019060a0016020604051602081039080840390855afa158015612e17573d6000803e3d6000fd5b5050604051601f1901519150506001600160a01b038116612e4057600060019250925050612e47565b9150600090505b94509492505050565b6000816004811115612e6457612e646147b4565b03612e6c5750565b6001816004811115612e8057612e806147b4565b03612ecd5760405162461bcd60e51b815260206004820152601860248201527f45434453413a20696e76616c6964207369676e617475726500000000000000006044820152606401610ae3565b6002816004811115612ee157612ee16147b4565b03612f2e5760405162461bcd60e51b815260206004820152601f60248201527f45434453413a20696e76616c6964207369676e6174757265206c656e677468006044820152606401610ae3565b6003816004811115612f4257612f426147b4565b03610d795760405162461bcd60e51b815260206004820152602260248201527f45434453413a20696e76616c6964207369676e6174757265202773272076616c604482015261756560f01b6064820152608401610ae3565b600054610100900460ff16612fc15760405162461bcd60e51b8152600401610ae3906146f4565b8151602092830120815191909201206101919190915561019255565b60606109e06001600160a01b03831660145b60606000612ffe836002614681565b613009906002614348565b6001600160401b03811115613020576130206140a6565b6040519080825280601f01601f19166020018201604052801561304a576020820181803683370190505b509050600360fc1b8160008151811061306557613065614532565b60200101906001600160f81b031916908160001a905350600f60fb1b8160018151811061309457613094614532565b60200101906001600160f81b031916908160001a90535060006130b8846002614681565b6130c3906001614348565b90505b600181111561313b576f181899199a1a9b1b9c1cb0b131b232b360811b85600f16601081106130f7576130f7614532565b1a60f81b82828151811061310d5761310d614532565b60200101906001600160f81b031916908160001a90535060049490941c93613134816147ca565b90506130c6565b508315610b895760405162461bcd60e51b815260206004820181905260248201527f537472696e67733a20686578206c656e67746820696e73756666696369656e746044820152606401610ae3565b61012d5460ff1615610bb65760405162461bcd60e51b815260206004820152602a60248201527f45524332305061757361626c653a20746f6b656e207472616e736665722077686044820152691a5b19481c185d5cd95960b21b6064820152608401610ae3565b6001600160a01b0383811660009081526101f86020526040808220548584168352912054610bb692918216911683612a65565b600081815260018301602052604081205461326b575081546001818101845560008481526020808220909301849055845484825282860190935260409020919091556109e0565b5060006109e0565b6000818152600183016020526040812054801561335c57600061329760018361451b565b85549091506000906132ab9060019061451b565b90508181146133105760008660000182815481106132cb576132cb614532565b90600052602060002001549050808760000184815481106132ee576132ee614532565b6000918252602080832090910192909255918252600188019052604090208390555b8554869080613321576133216147e1565b6001900381819060005260206000200160009055905585600101600086815260200190815260200160002060009055600193505050506109e0565b60009150506109e0565b600080608083901c1561337b57608092831c92015b604083901c1561338d57604092831c92015b602083901c1561339f57602092831c92015b601083901c156133b157601092831c92015b600883901c156133c357600892831c92015b600483901c156133d557600492831c92015b600283901c156133e757600292831c92015b600183901c156109e05760010192915050565b60008183106134095781610b89565b5090919050565b6001600160a01b0382166134705760405162461bcd60e51b815260206004820152602160248201527f45524332303a206275726e2066726f6d20746865207a65726f206164647265736044820152607360f81b6064820152608401610ae3565b61347c826000836126e6565b6001600160a01b038216600090815260c96020526040902054818110156134f05760405162461bcd60e51b815260206004820152602260248201527f45524332303a206275726e20616d6f756e7420657863656564732062616c616e604482015261636560f01b6064820152608401610ae3565b6001600160a01b038316600081815260c960209081526040808320868603905560cb80548790039055518581529192917fddf252ad1be2c89b69c2b068fc378daa952ba7f163c4a11628f55a4df523b3ef910160405180910390a3610bb6836000846127b2565b6000610b89828461451b565b825460009081908181156135b05761358087611eed60018561451b565b60408051808201909152905463ffffffff8116825264010000000090046001600160e01b031660208201526135c5565b60408051808201909152600080825260208201525b905080602001516001600160e01b031693506135e584868863ffffffff16565b92506000821180156135fd5750805163ffffffff1643145b156136425761360b836138b3565b61361a88611eed60018661451b565b80546001600160e01b03929092166401000000000263ffffffff9092169190911790556136ad565b86604051806040016040528061365743612057565b63ffffffff16815260200161366b866138b3565b6001600160e01b0390811690915282546001810184556000938452602093849020835194909301519091166401000000000263ffffffff909316929092179101555b5050935093915050565b6136c1828261391c565b60cb546001600160e01b0310156137335760405162461bcd60e51b815260206004820152603060248201527f4552433230566f7465733a20746f74616c20737570706c79207269736b73206f60448201526f766572666c6f77696e6720766f74657360801b6064820152608401610ae3565b6110f56101fa61374283613563565b6000610b898284614348565b6000826001600160a01b03168260405160006040518083038185875af1925050503d806000811461379b576040519150601f19603f3d011682016040523d82523d6000602084013e6137a0565b606091505b5050905080610bb65760405162461bcd60e51b815260206004820152601c60248201527f6e617469766520746f6b656e207472616e73666572206661696c6564000000006044820152606401610ae3565b816001600160a01b0316836001600160a01b031603156110f557306001600160a01b0384160361382f57612c206001600160a01b03851683836139f1565b6110f56001600160a01b038516848484613a54565b8151156138545781518083602001fd5b8060405162461bcd60e51b8152600401610ae39190613cde565b60008082516041036138a45760208301516040840151606085015160001a61389887828585612d8c565b945094505050506138ac565b506000905060025b9250929050565b60006001600160e01b038211156120bc5760405162461bcd60e51b815260206004820152602760248201527f53616665436173743a2076616c756520646f65736e27742066697420696e20326044820152663234206269747360c81b6064820152608401610ae3565b6001600160a01b0382166139725760405162461bcd60e51b815260206004820152601f60248201527f45524332303a206d696e7420746f20746865207a65726f2061646472657373006044820152606401610ae3565b61397e600083836126e6565b8060cb60008282546139909190614348565b90915550506001600160a01b038216600081815260c960209081526040808320805486019055518481527fddf252ad1be2c89b69c2b068fc378daa952ba7f163c4a11628f55a4df523b3ef910160405180910390a3610c54600083836127b2565b6040516001600160a01b038316602482015260448101829052610bb690849063a9059cbb60e01b906064015b60408051601f198184030181529190526020810180516001600160e01b03166001600160e01b031990931692909217909152613a8c565b6040516001600160a01b03808516602483015283166044820152606481018290526110f59085906323b872dd60e01b90608401613a1d565b6000613ae1826040518060400160405280602081526020017f5361666545524332303a206c6f772d6c6576656c2063616c6c206661696c6564815250856001600160a01b0316613b5e9092919063ffffffff16565b805190915015610bb65780806020019051810190613aff91906147f7565b610bb65760405162461bcd60e51b815260206004820152602a60248201527f5361666545524332303a204552433230206f7065726174696f6e20646964206e6044820152691bdd081cdd58d8d9595960b21b6064820152608401610ae3565b606061248f848460008585600080866001600160a01b03168587604051613b8591906146d8565b60006040518083038185875af1925050503d8060008114613bc2576040519150601f19603f3d011682016040523d82523d6000602084013e613bc7565b606091505b5091509150613bd887838387613be3565b979650505050505050565b60608315613c52578251600003613c4b576001600160a01b0385163b613c4b5760405162461bcd60e51b815260206004820152601d60248201527f416464726573733a2063616c6c20746f206e6f6e2d636f6e74726163740000006044820152606401610ae3565b508161248f565b61248f8383613844565b600060208284031215613c6e57600080fd5b81356001600160e01b031981168114610b8957600080fd5b60005b83811015613ca1578181015183820152602001613c89565b838111156110f55750506000910152565b60008151808452613cca816020860160208601613c86565b601f01601f19169290920160200192915050565b602081526000610b896020830184613cb2565b80356001600160a01b0381168114613d0857600080fd5b919050565b60008060408385031215613d2057600080fd5b613d2983613cf1565b946020939093013593505050565b600080600060608486031215613d4c57600080fd5b613d5584613cf1565b9250613d6360208501613cf1565b9150604084013590509250925092565b600060208284031215613d8557600080fd5b5035919050565b60008060408385031215613d9f57600080fd5b82359150613daf60208401613cf1565b90509250929050565b600060208284031215613dca57600080fd5b610b8982613cf1565b60008083601f840112613de557600080fd5b5081356001600160401b03811115613dfc57600080fd5b6020830191508360208285010111156138ac57600080fd5b6000806000838503610120811215613e2b57600080fd5b61010080821215613e3b57600080fd5b85945084013590506001600160401b03811115613e5757600080fd5b613e6386828701613dd3565b9497909650939450505050565b60008060408385031215613e8357600080fd5b50508035926020909101359150565b60008060208385031215613ea557600080fd5b82356001600160401b03811115613ebb57600080fd5b613ec785828601613dd3565b90969095509350505050565b60008060208385031215613ee657600080fd5b82356001600160401b0380821115613efd57600080fd5b818501915085601f830112613f1157600080fd5b813581811115613f2057600080fd5b8660208260051b8501011115613f3557600080fd5b60209290920196919550909350505050565b6000602080830181845280855180835260408601915060408160051b870101925083870160005b82811015613f9c57603f19888603018452613f8a858351613cb2565b94509285019290850190600101613f6e565b5092979650505050505050565b803560ff81168114613d0857600080fd5b60008060008060008060c08789031215613fd357600080fd5b613fdc87613cf1565b95506020870135945060408701359350613ff860608801613fa9565b92506080870135915060a087013590509295509295509295565b600080600080600080600060e0888a03121561402d57600080fd5b61403688613cf1565b965061404460208901613cf1565b9550604088013594506060880135935061406060808901613fa9565b925060a0880135915060c0880135905092959891949750929550565b6000806040838503121561408f57600080fd5b61409883613cf1565b9150613daf60208401613cf1565b634e487b7160e01b600052604160045260246000fd5b604051601f8201601f191681016001600160401b03811182821017156140e4576140e46140a6565b604052919050565b600082601f8301126140fd57600080fd5b81356001600160401b03811115614116576141166140a6565b614129601f8201601f19166020016140bc565b81815284602083860101111561413e57600080fd5b816020850160208301376000918101602001919091529392505050565b600082601f83011261416c57600080fd5b813560206001600160401b03821115614187576141876140a6565b8160051b6141968282016140bc565b92835284810182019282810190878511156141b057600080fd5b83870192505b84831015613bd8576141c783613cf1565b825291830191908301906141b6565b600080600080600080600080610100898b0312156141f357600080fd5b6141fc89613cf1565b975060208901356001600160401b038082111561421857600080fd5b6142248c838d016140ec565b985060408b013591508082111561423a57600080fd5b6142468c838d016140ec565b975060608b013591508082111561425c57600080fd5b6142688c838d016140ec565b965060808b013591508082111561427e57600080fd5b5061428b8b828c0161415b565b94505061429a60a08a01613cf1565b92506142a860c08a01613cf1565b915060e089013590509295985092959890939650565b600080604083850312156142d157600080fd5b6142da83613cf1565b9150602083013563ffffffff811681146142f357600080fd5b809150509250929050565b600181811c9082168061431257607f821691505b60208210810361253057634e487b7160e01b600052602260045260246000fd5b634e487b7160e01b600052601160045260246000fd5b6000821982111561435b5761435b614332565b500190565b80356001600160801b0381168114613d0857600080fd5b61010081016001600160a01b038061438e85613cf1565b1683528061439e60208601613cf1565b1660208401526040840135604084015260608401356060840152806143c560808601613cf1565b166080840152506143d860a08401614360565b6001600160801b0380821660a0850152806143f560c08701614360565b1660c0850152505060e083013560e083015292915050565b601f821115610bb657600081815260208120601f850160051c810160208610156144345750805b601f850160051c820191505b8181101561445357828155600101614440565b505050505050565b6001600160401b03831115614472576144726140a6565b6144868361448083546142fe565b8361440d565b6000601f8411600181146144ba57600085156144a25750838201355b600019600387901b1c1916600186901b178355614514565b600083815260209020601f19861690835b828110156144eb57868501358255602094850194600190920191016144cb565b50868210156145085760001960f88860031b161c19848701351681555b505060018560011b0183555b5050505050565b60008282101561452d5761452d614332565b500390565b634e487b7160e01b600052603260045260246000fd5b6000808335601e1984360301811261455f57600080fd5b8301803591506001600160401b0382111561457957600080fd5b6020019150368190038213156138ac57600080fd5b6000600182016145a0576145a0614332565b5060010190565b81516001600160401b038111156145c0576145c06140a6565b6145d4816145ce84546142fe565b8461440d565b602080601f83116001811461460957600084156145f15750858301515b600019600386901b1c1916600185901b178555614453565b600085815260208120601f198616915b8281101561463857888601518255948401946001909101908401614619565b50858210156146565787850151600019600388901b60f8161c191681555b5050505050600190811b01905550565b60006020828403121561467857600080fd5b610b8982614360565b600081600019048311821515161561469b5761469b614332565b500290565b634e487b7160e01b600052601260045260246000fd5b6000826146d357634e487b7160e01b600052601260045260246000fd5b500490565b600082516146ea818460208701613c86565b9190910192915050565b6020808252602b908201527f496e697469616c697a61626c653a20636f6e7472616374206973206e6f74206960408201526a6e697469616c697a696e6760a81b606082015260800190565b7f416363657373436f6e74726f6c3a206163636f756e7420000000000000000000815260008351614777816017850160208801613c86565b7001034b99036b4b9b9b4b733903937b6329607d1b60179184019182015283516147a8816028840160208801613c86565b01602801949350505050565b634e487b7160e01b600052602160045260246000fd5b6000816147d9576147d9614332565b506000190190565b634e487b7160e01b600052603160045260246000fd5b60006020828403121561480957600080fd5b81518015158114610b8957600080fdfe8502233096d909befbda0999bb8ea2f3a6be3c138b9fbf003752a4c8bce86f6c416464726573733a206c6f772d6c6576656c2064656c65676174652063616c6c206661696c6564a26469706673582212208078f52ff73f4a82ef2b50057bb85608a80ace11ebac2de2a77a7a754b1b97d564736f6c634300080f0033608060405234801561001057600080fd5b506149ab806100206000396000f3fe6080604052600436106102ad5760003560e01c80636352211e11610175578063ac9650d8116100dc578063d45573f611610095578063e15916341161006f578063e159163414610929578063e8a3d48514610949578063e985e9c51461095e578063eb13554f146109a857600080fd5b8063d45573f614610894578063d547741f146108ca578063de903774146108ea57600080fd5b8063ac9650d8146107b8578063b24f2d39146107e5578063b88d4fde14610814578063c87b56dd14610834578063ca15c87314610854578063cb2ef6f71461087457600080fd5b8063938e3d7b1161012e578063938e3d7b1461071257806395d89b41146107325780639bcf7a1514610747578063a0a8e46014610767578063a217fddf14610783578063a22cb4651461079857600080fd5b80636352211e1461065d5780636f4f28371461067d57806370a082311461069d5780638da5cb5b146106bd5780639010d07c146106d257806391d14854146106f257600080fd5b80632a55205a1161021957806342842e0e116101d257806342842e0e1461056257806342966c68146105825780634cc157df146105a25780634f6ccce7146105e4578063572b6c0514610604578063600dd5ea1461063d57600080fd5b80632a55205a146104995780632c4510f8146104d85780632f2ff15d146104eb5780632f745c591461050b57806336568abe1461052b5780633b1475a71461054b57600080fd5b806313af40351161026b57806313af4035146103b257806318160ddd146103d25780631e7ac488146103e857806322dcd13e1461040857806323b872dd14610448578063248a9ca31461046857600080fd5b806275a317146102b257806301ffc9a7146102e557806306fdde0314610315578063079fe40e14610337578063081812fc14610370578063095ea7b314610390575b600080fd5b3480156102be57600080fd5b506102d26102cd366004613a5c565b6109c9565b6040519081526020015b60405180910390f35b3480156102f157600080fd5b50610305610300366004613ac4565b6109e0565b60405190151581526020016102dc565b34801561032157600080fd5b5061032a610a0c565b6040516102dc9190613b39565b34801561034357600080fd5b506101f954610358906001600160a01b031681565b6040516001600160a01b0390911681526020016102dc565b34801561037c57600080fd5b5061035861038b366004613b4c565b610a9f565b34801561039c57600080fd5b506103b06103ab366004613b65565b610ac7565b005b3480156103be57600080fd5b506103b06103cd366004613b8f565b610bf3565b3480156103de57600080fd5b506101c7546102d2565b3480156103f457600080fd5b506103b0610403366004613b65565b610ca9565b34801561041457600080fd5b506101fc5461043090600160801b90046001600160801b031681565b6040516001600160801b0390911681526020016102dc565b34801561045457600080fd5b506103b0610463366004613baa565b610d6f565b34801561047457600080fd5b506102d2610483366004613b4c565b600090815261012f602052604090206001015490565b3480156104a557600080fd5b506104b96104b4366004613be6565b610da7565b604080516001600160a01b0390931683526020830191909152016102dc565b6102d26104e6366004613c08565b610de4565b3480156104f757600080fd5b506103b0610506366004613c6c565b610f3a565b34801561051757600080fd5b506102d2610526366004613b65565b610f60565b34801561053757600080fd5b506103b0610546366004613c6c565b610ff7565b34801561055757600080fd5b506102d26101f85481565b34801561056e57600080fd5b506103b061057d366004613baa565b611085565b34801561058e57600080fd5b506103b061059d366004613b4c565b6110a0565b3480156105ae57600080fd5b506105c26105bd366004613b4c565b61111c565b604080516001600160a01b03909316835261ffff9091166020830152016102dc565b3480156105f057600080fd5b506102d26105ff366004613b4c565b61118c565b34801561061057600080fd5b5061030561061f366004613b8f565b6001600160a01b0316600090815260cb602052604090205460ff1690565b34801561064957600080fd5b506103b0610658366004613b65565b611221565b34801561066957600080fd5b50610358610678366004613b4c565b6112de565b34801561068957600080fd5b506103b0610698366004613b8f565b61133f565b3480156106a957600080fd5b506102d26106b8366004613b8f565b611396565b3480156106c957600080fd5b5061035861141d565b3480156106de57600080fd5b506103586106ed366004613be6565b611455565b3480156106fe57600080fd5b5061030561070d366004613c6c565b61146e565b34801561071e57600080fd5b506103b061072d366004613c98565b61149a565b34801561073e57600080fd5b5061032a6114b9565b34801561075357600080fd5b506103b0610762366004613cd9565b6114c9565b34801561077357600080fd5b50604051600181526020016102dc565b34801561078f57600080fd5b506102d2600081565b3480156107a457600080fd5b506103b06107b3366004613d0c565b6115a2565b3480156107c457600080fd5b506107d86107d3366004613d43565b6115b4565b6040516102dc9190613db7565b3480156107f157600080fd5b506101fb546101fc546001600160a01b03909116906001600160801b03166105c2565b34801561082057600080fd5b506103b061082f366004613edf565b6116a8565b34801561084057600080fd5b5061032a61084f366004613b4c565b6116e1565b34801561086057600080fd5b506102d261086f366004613b4c565b611784565b34801561088057600080fd5b5069426f6f6d45524337323160b01b6102d2565b3480156108a057600080fd5b506101fa546101fc546001600160a01b0390911690600160801b90046001600160801b03166105c2565b3480156108d657600080fd5b506103b06108e5366004613c6c565b61179c565b3480156108f657600080fd5b5061090a610905366004613c08565b6117c2565b6040805192151583526001600160a01b039091166020830152016102dc565b34801561093557600080fd5b506103b061094436600461400c565b61182b565b34801561095557600080fd5b5061032a611aa2565b34801561096a57600080fd5b5061030561097936600461411e565b6001600160a01b0391821660009081526101986020908152604080832093909416825291909152205460ff1690565b3480156109b457600080fd5b506101fa54610358906001600160a01b031681565b60006109d6848484611b31565b90505b9392505050565b60006109eb82611bc3565b80610a0657506001600160e01b0319821663152a902d60e11b145b92915050565b60606101938054610a1c90614148565b80601f0160208091040260200160405190810160405280929190818152602001828054610a4890614148565b8015610a955780601f10610a6a57610100808354040283529160200191610a95565b820191906000526020600020905b815481529060010190602001808311610a7857829003601f168201915b5050505050905090565b6000610aaa82611be8565b50600090815261019760205260409020546001600160a01b031690565b6000610ad2826112de565b9050806001600160a01b0316836001600160a01b031603610b445760405162461bcd60e51b815260206004820152602160248201527f4552433732313a20617070726f76616c20746f2063757272656e74206f776e656044820152603960f91b60648201526084015b60405180910390fd5b806001600160a01b0316610b56611c48565b6001600160a01b03161480610b725750610b7281610979611c48565b610be45760405162461bcd60e51b815260206004820152603d60248201527f4552433732313a20617070726f76652063616c6c6572206973206e6f7420746f60448201527f6b656e206f776e6572206f7220617070726f76656420666f7220616c6c0000006064820152608401610b3b565b610bee8383611c52565b505050565b6000610bfe81611cc1565b610c0960008361146e565b610c555760405162461bcd60e51b815260206004820152601b60248201527f6e6577206f776e6572206e6f74206d6f64756c652061646d696e2e00000000006044820152606401610b3b565b6101f780546001600160a01b038481166001600160a01b0319831681179093556040519116919082907f8292fce18fa69edf4db7b94ea2e58241df0ae57f97e0a6c9b29067028bf92d7690600090a3505050565b6000610cb481611cc1565b612710821115610cf65760405162461bcd60e51b815260206004820152600d60248201526c313839901e1e9018981818181760991b6044820152606401610b3b565b6101fc80546001600160801b03166001600160401b038416600160801b021790556101fa80546001600160a01b0319166001600160a01b0385169081179091556040518381527fe2497bd806ec41a6e0dd992c29a72efc0ef8fec9092d1978fd4a1e00b2f18304906020015b60405180910390a2505050565b610d80610d7a611c48565b82611cd2565b610d9c5760405162461bcd60e51b8152600401610b3b90614182565b610bee838383611d52565b600080600080610db68661111c565b90945084925061ffff169050612710610dcf82876141e5565b610dd99190614204565b925050509250929050565b6000610dee611ec4565b6000610dfb858585611f1d565b9050600080610e0d6020880188613b8f565b6001600160a01b031614610e2d57610e286020870187613b8f565b610e35565b610e35611c48565b9050610e4d81610e486080890189614226565b611b31565b92506000610e616040880160208901613b8f565b6001600160a01b031614610ed1576040518060400160405280876020016020810190610e8d9190613b8f565b6001600160a01b0390811682526040898101356020938401526000878152610200845220835181546001600160a01b03191692169190911781559101516001909101555b610ee2610edd8761426c565b61201d565b82816001600160a01b0316836001600160a01b03167f110d160a1bedeea919a88fbc4b2a9fb61b7e664084391b6ca2740db66fef80fe89604051610f2691906143a7565b60405180910390a450506109d96001606555565b600082815261012f6020526040902060010154610f5681611cc1565b610bee8383612155565b6000610f6b83611396565b8210610fcd5760405162461bcd60e51b815260206004820152602b60248201527f455243373231456e756d657261626c653a206f776e657220696e646578206f7560448201526a74206f6620626f756e647360a81b6064820152608401610b3b565b506001600160a01b039190911660009081526101c560209081526040808320938352929052205490565b610fff611c48565b6001600160a01b0316816001600160a01b0316146110775760405162461bcd60e51b815260206004820152602f60248201527f416363657373436f6e74726f6c3a2063616e206f6e6c792072656e6f756e636560448201526e103937b632b9903337b91039b2b63360891b6064820152608401610b3b565b6110818282612178565b5050565b610bee838383604051806020016040528060008152506116a8565b6110ab610d7a611c48565b6111105760405162461bcd60e51b815260206004820152603060248201527f4552433732314275726e61626c653a2063616c6c6572206973206e6f74206f7760448201526f1b995c881b9bdc88185c1c1c9bdd995960821b6064820152608401610b3b565b6111198161219b565b50565b600081815261020060209081526040808320815180830190925280546001600160a01b0316808352600190910154928201929092528291156111645780516020820151611182565b6101fb546101fc546001600160a01b03909116906001600160801b03165b9250925050915091565b60006111986101c75490565b82106111fb5760405162461bcd60e51b815260206004820152602c60248201527f455243373231456e756d657261626c653a20676c6f62616c20696e646578206f60448201526b7574206f6620626f756e647360a01b6064820152608401610b3b565b6101c7828154811061120f5761120f6144b7565b90600052602060002001549050919050565b600061122c81611cc1565b6127108211156112735760405162461bcd60e51b815260206004820152601260248201527165786365656420726f79616c74792062707360701b6044820152606401610b3b565b6101fb80546001600160a01b0319166001600160a01b0385169081179091556101fc80546001600160801b0319166001600160801b0385161790556040518381527f90d7ec04bcb8978719414f82e52e4cb651db41d0e6f8cea6118c2191e6183adb90602001610d62565b600081815261019560205260408120546001600160a01b031680610a065760405162461bcd60e51b8152602060048201526018602482015277115490cdcc8c4e881a5b9d985b1a59081d1bdad95b88125160421b6044820152606401610b3b565b600061134a81611cc1565b6101f980546001600160a01b0319166001600160a01b0384169081179091556040517f299d17e95023f496e0ffc4909cff1a61f74bb5eb18de6f900f4155bfa1b3b33390600090a25050565b60006001600160a01b0382166114005760405162461bcd60e51b815260206004820152602960248201527f4552433732313a2061646472657373207a65726f206973206e6f7420612076616044820152683634b21037bbb732b960b91b6064820152608401610b3b565b506001600160a01b03166000908152610196602052604090205490565b6101f7546000906114389082906001600160a01b031661146e565b6114425750600090565b6101f7546001600160a01b03165b905090565b6000828152610161602052604081206109d9908361223f565b600091825261012f602090815260408084206001600160a01b0393909316845291905290205460ff1690565b60006114a581611cc1565b6101fd6114b383858361451b565b50505050565b60606101948054610a1c90614148565b60006114d481611cc1565b61271082111561151b5760405162461bcd60e51b815260206004820152601260248201527165786365656420726f79616c74792062707360701b6044820152606401610b3b565b6040805180820182526001600160a01b03858116808352602080840187815260008a81526102008352869020945185546001600160a01b031916941693909317845591516001909301929092559151848152909186917f7365cf4122f072a3365c20d54eff9b38d73c096c28e1892ec8f5b0e403a0f12d910160405180910390a350505050565b6110816115ad611c48565b838361224b565b6060816001600160401b038111156115ce576115ce613e19565b60405190808252806020026020018201604052801561160157816020015b60608152602001906001900390816115ec5790505b50905060005b828110156116a15761167130858584818110611625576116256144b7565b90506020028101906116379190614226565b8080601f01602080910402602001604051908101604052809392919081815260200183838082843760009201919091525061231a92505050565b828281518110611683576116836144b7565b60200260200101819052508080611699906145db565b915050611607565b5092915050565b6116b96116b3611c48565b83611cd2565b6116d55760405162461bcd60e51b8152600401610b3b90614182565b6114b38484848461240e565b60008181526101ff602052604090208054606091906116ff90614148565b80601f016020809104026020016040519081016040528092919081815260200182805461172b90614148565b80156117785780601f1061174d57610100808354040283529160200191611778565b820191906000526020600020905b81548152906001019060200180831161175b57829003601f168201915b50505050509050919050565b600081815261016160205260408120610a0690612441565b600082815261012f60205260409020600101546117b881611cc1565b610bee8383612178565b60008060006117d286868661244b565b61012087013560009081526101fe602052604090205490915060ff1615801561182057506118207f9f2df0fed2c77648de5860a4cc508cd0818c85b8b8a1ab4ceeef8d981c8956a68261146e565b969095509350505050565b600054610100900460ff161580801561184b5750600054600160ff909116105b806118655750303b158015611865575060005460ff166001145b6118c85760405162461bcd60e51b815260206004820152602e60248201527f496e697469616c697a61626c653a20636f6e747261637420697320616c72656160448201526d191e481a5b9a5d1a585b1a5e995960921b6064820152608401610b3b565b6000805460ff1916600117905580156118eb576000805461ff0019166101001790555b6118f36124a7565b6119396040518060400160405280600b81526020016a546f6b656e45524337323160a81b815250604051806040016040528060018152602001603160f81b8152506124d8565b61194287612509565b61194c8a8a612541565b6101fb80546001600160a01b03199081166001600160a01b03888116919091179092556101fc80546001600160801b0319166001600160801b0388161790556101fa805482168584161790556101f980549091169188169190911790556101fd6119b689826145f4565b506101fc80546001600160801b03808616600160801b0291161790556101f780546001600160a01b038d166001600160a01b03199091161790556119fb60008c612572565b611a257f9f2df0fed2c77648de5860a4cc508cd0818c85b8b8a1ab4ceeef8d981c8956a68c612572565b611a4f7f8502233096d909befbda0999bb8ea2f3a6be3c138b9fbf003752a4c8bce86f6c8c612572565b8015611a95576000805461ff0019169055604051600181527f7f26b83ff96e1f2b6a682f133852f6798a09c465da95921460cefb38474024989060200160405180910390a15b5050505050505050505050565b6101fd8054611ab090614148565b80601f0160208091040260200160405190810160405280929190818152602001828054611adc90614148565b8015611b295780601f10611afe57610100808354040283529160200191611b29565b820191906000526020600020905b815481529060010190602001808311611b0c57829003601f168201915b505050505081565b600060016101f86000828254611b4791906146b3565b90915550506101f85460008181526101ff60205260409020909150611b6d83858361451b565b50611b78848261257c565b80846001600160a01b03167f9d89e36eadf856db0ad9ffb5a569e07f95634dddd9501141ecf04820484ad0dc8585604051611bb49291906146cb565b60405180910390a39392505050565b60006001600160e01b0319821663780e9d6360e01b1480610a065750610a0682612717565b600081815261019560205260409020546001600160a01b03166111195760405162461bcd60e51b8152602060048201526018602482015277115490cdcc8c4e881a5b9d985b1a59081d1bdad95b88125160421b6044820152606401610b3b565b6000611450612757565b60008181526101976020526040902080546001600160a01b0319166001600160a01b0384169081179091558190611c88826112de565b6001600160a01b03167f8c5be1e5ebec7d5bd14f71427d1e84f3dd0314c0f7b2291e5b200ac8c7c3b92560405160405180910390a45050565b61111981611ccd611c48565b612781565b600080611cde836112de565b9050806001600160a01b0316846001600160a01b03161480611d2657506001600160a01b038082166000908152610198602090815260408083209388168352929052205460ff165b80611d4a5750836001600160a01b0316611d3f84610a9f565b6001600160a01b0316145b949350505050565b826001600160a01b0316611d65826112de565b6001600160a01b031614611d8b5760405162461bcd60e51b8152600401610b3b906146df565b6001600160a01b038216611ded5760405162461bcd60e51b8152602060048201526024808201527f4552433732313a207472616e7366657220746f20746865207a65726f206164646044820152637265737360e01b6064820152608401610b3b565b611df88383836127da565b826001600160a01b0316611e0b826112de565b6001600160a01b031614611e315760405162461bcd60e51b8152600401610b3b906146df565b60008181526101976020908152604080832080546001600160a01b03199081169091556001600160a01b03878116808652610196855283862080546000190190559087168086528386208054600101905586865261019590945282852080549092168417909155905184937fddf252ad1be2c89b69c2b068fc378daa952ba7f163c4a11628f55a4df523b3ef91a4505050565b600260655403611f165760405162461bcd60e51b815260206004820152601f60248201527f5265656e7472616e637947756172643a207265656e7472616e742063616c6c006044820152606401610b3b565b6002606555565b6000806000611f2d8686866117c2565b9150915081611f725760405162461bcd60e51b8152602060048201526011602482015270696e76616c6964207369676e617475726560781b6044820152606401610b3b565b42611f84610100880160e08901614724565b6001600160801b031611158015611fb5575042611fa961012088016101008901614724565b6001600160801b031610155b611ff35760405162461bcd60e51b815260206004820152600f60248201526e1c995c5d595cdd08195e1c1a5c9959608a1b6044820152606401610b3b565b61012086013560009081526101fe60205260409020805460ff191660011790559150509392505050565b8060a0015160000361202c5750565b60a08101516101fc546000906127109061205690600160801b90046001600160801b0316846141e5565b6120609190614204565b905073eeeeeeeeeeeeeeeeeeeeeeeeeeeeeeeeeeeeeeee6001600160a01b03168360c001516001600160a01b0316036120db578134146120db5760405162461bcd60e51b815260206004820152601660248201527536bab9ba1039b2b732103a37ba30b610383934b1b29760511b6044820152606401610b3b565b60608301516000906001600160a01b0316156120fb578360600151612109565b6101f9546001600160a01b03165b905061212e8460c0015161211b611c48565b6101fa546001600160a01b031685612831565b6114b38460c0015161213e611c48565b83612149868861473f565b612831565b6001606555565b61215f8282612877565b600082815261016160205260409020610bee90826128ff565b6121828282612914565b600082815261016160205260409020610bee908261299a565b60006121a6826112de565b90506121b4816000846127da565b6121bd826112de565b60008381526101976020908152604080832080546001600160a01b03199081169091556001600160a01b03851680855261019684528285208054600019019055878552610195909352818420805490911690555192935084927fddf252ad1be2c89b69c2b068fc378daa952ba7f163c4a11628f55a4df523b3ef908390a45050565b60006109d983836129af565b816001600160a01b0316836001600160a01b0316036122ac5760405162461bcd60e51b815260206004820152601960248201527f4552433732313a20617070726f766520746f2063616c6c6572000000000000006044820152606401610b3b565b6001600160a01b0383811660008181526101986020908152604080832094871680845294825291829020805460ff191686151590811790915591519182527f17307eab39ab6107e8899845ad3d59bd9653f200f220920489ca2b5937696c31910160405180910390a3505050565b60606001600160a01b0383163b6123825760405162461bcd60e51b815260206004820152602660248201527f416464726573733a2064656c65676174652063616c6c20746f206e6f6e2d636f6044820152651b9d1c9858dd60d21b6064820152608401610b3b565b600080846001600160a01b03168460405161239d9190614756565b600060405180830381855af49150503d80600081146123d8576040519150601f19603f3d011682016040523d82523d6000602084013e6123dd565b606091505b5091509150612405828260405180606001604052806027815260200161494f602791396129d9565b95945050505050565b612419848484611d52565b612425848484846129f2565b6114b35760405162461bcd60e51b8152600401610b3b90614772565b6000610a06825490565b60006109d683838080601f0160208091040260200160405190810160405280939291908181526020018383808284376000920191909152506124a192506124959150889050612afa565b80519060200120612c34565b90612c82565b600054610100900460ff166124ce5760405162461bcd60e51b8152600401610b3b906147c4565b6124d6612ca6565b565b600054610100900460ff166124ff5760405162461bcd60e51b8152600401610b3b906147c4565b6110818282612ccd565b600054610100900460ff166125305760405162461bcd60e51b8152600401610b3b906147c4565b612538612d0e565b61111981612d35565b600054610100900460ff166125685760405162461bcd60e51b8152600401610b3b906147c4565b6110818282612dc4565b6110818282612155565b6001600160a01b0382166125d25760405162461bcd60e51b815260206004820181905260248201527f4552433732313a206d696e7420746f20746865207a65726f20616464726573736044820152606401610b3b565b600081815261019560205260409020546001600160a01b0316156126385760405162461bcd60e51b815260206004820152601c60248201527f4552433732313a20746f6b656e20616c7265616479206d696e746564000000006044820152606401610b3b565b612644600083836127da565b600081815261019560205260409020546001600160a01b0316156126aa5760405162461bcd60e51b815260206004820152601c60248201527f4552433732313a20746f6b656e20616c7265616479206d696e746564000000006044820152606401610b3b565b6001600160a01b0382166000818152610196602090815260408083208054600101905584835261019590915280822080546001600160a01b0319168417905551839291907fddf252ad1be2c89b69c2b068fc378daa952ba7f163c4a11628f55a4df523b3ef908290a45050565b60006001600160e01b031982166380ac58cd60e01b148061274857506001600160e01b03198216635b5e139f60e01b145b80610a065750610a0682612e06565b33600090815260cb602052604081205460ff161561277c575060131936013560601c90565b503390565b61278b828261146e565b6110815761279881612e2b565b6127a3836020612e3d565b6040516020016127b492919061480f565b60408051601f198184030181529082905262461bcd60e51b8252610b3b91600401613b39565b6127e5838383612fd8565b6128107f8502233096d909befbda0999bb8ea2f3a6be3c138b9fbf003752a4c8bce86f6c600061146e565b15801561282557506001600160a01b03831615155b80156114b35750505050565b80156114b35773eeeeeeeeeeeeeeeeeeeeeeeeeeeeeeeeeeeeeeed196001600160a01b0385160161286b576128668282613092565b6114b3565b6114b384848484613135565b612881828261146e565b61108157600082815261012f602090815260408083206001600160a01b03851684529091529020805460ff191660011790556128bb611c48565b6001600160a01b0316816001600160a01b0316837f2f8788117e7eff1d82e926ec794901d17c78024a50270940304540a733656f0d60405160405180910390a45050565b60006109d9836001600160a01b038416613188565b61291e828261146e565b1561108157600082815261012f602090815260408083206001600160a01b03851684529091529020805460ff19169055612956611c48565b6001600160a01b0316816001600160a01b0316837ff6391f5c32d9c69d2a47ea670b442974b53935d1edc7fd64eb21e047a839171b60405160405180910390a45050565b60006109d9836001600160a01b0384166131d7565b60008260000182815481106129c6576129c66144b7565b9060005260206000200154905092915050565b606083156129e85750816109d9565b6109d983836132ca565b60006001600160a01b0384163b15612aef57836001600160a01b031663150b7a02612a1b611c48565b8786866040518563ffffffff1660e01b8152600401612a3d9493929190614884565b6020604051808303816000875af1925050508015612a78575060408051601f3d908101601f19168201909252612a75918101906148c1565b60015b612ad5573d808015612aa6576040519150601f19603f3d011682016040523d82523d6000602084013e612aab565b606091505b508051600003612acd5760405162461bcd60e51b8152600401610b3b90614772565b805181602001fd5b6001600160e01b031916630a85bd0160e11b149050611d4a565b506001949350505050565b60607f86633b4ffa94b7c3d316ca70d7d2700f3fdfa7a7806efd31499b513d9176692e612b2a6020840184613b8f565b612b3a6040850160208601613b8f565b6040850135612b4f6080870160608801613b8f565b612b5c6080880188614226565b604051612b6a9291906148de565b60405190819003902060a0880135612b8860e08a0160c08b01613b8f565b612b996101008b0160e08c01614724565b612bab6101208c016101008d01614724565b60408051602081019b909b526001600160a01b03998a16908b015296881660608a0152608089019590955292861660a088015260c087019190915260e08601529092166101008401526001600160801b03918216610120808501919091529116610140830152830135610160820152610180016040516020818303038152906040529050919050565b6000610a06612c416132f4565b8360405161190160f01b6020820152602281018390526042810182905260009060620160405160208183030381529060405280519060200120905092915050565b6000806000612c91858561336f565b91509150612c9e816133b4565b509392505050565b600054610100900460ff1661214e5760405162461bcd60e51b8152600401610b3b906147c4565b600054610100900460ff16612cf45760405162461bcd60e51b8152600401610b3b906147c4565b815160209283012081519190920120609791909155609855565b600054610100900460ff166124d65760405162461bcd60e51b8152600401610b3b906147c4565b600054610100900460ff16612d5c5760405162461bcd60e51b8152600401610b3b906147c4565b60005b815181101561108157600160cb6000848481518110612d8057612d806144b7565b6020908102919091018101516001600160a01b03168252810191909152604001600020805460ff191691151591909117905580612dbc816145db565b915050612d5f565b600054610100900460ff16612deb5760405162461bcd60e51b8152600401610b3b906147c4565b610193612df883826145f4565b50610194610bee82826145f4565b60006001600160e01b03198216635a05180f60e01b1480610a065750610a06826134fe565b6060610a066001600160a01b03831660145b60606000612e4c8360026141e5565b612e579060026146b3565b6001600160401b03811115612e6e57612e6e613e19565b6040519080825280601f01601f191660200182016040528015612e98576020820181803683370190505b509050600360fc1b81600081518110612eb357612eb36144b7565b60200101906001600160f81b031916908160001a905350600f60fb1b81600181518110612ee257612ee26144b7565b60200101906001600160f81b031916908160001a9053506000612f068460026141e5565b612f119060016146b3565b90505b6001811115612f89576f181899199a1a9b1b9c1cb0b131b232b360811b85600f1660108110612f4557612f456144b7565b1a60f81b828281518110612f5b57612f5b6144b7565b60200101906001600160f81b031916908160001a90535060049490941c93612f82816148ee565b9050612f14565b5083156109d95760405162461bcd60e51b815260206004820181905260248201527f537472696e67733a20686578206c656e67746820696e73756666696369656e746044820152606401610b3b565b6001600160a01b03831661303557613030816101c7805460008381526101c860205260408120829055600182018355919091527fff6df30967a6a678f565c59a19e91e5c0dbb20cfe9f9bf26d7da6dea0fffa24c0155565b613058565b816001600160a01b0316836001600160a01b031614613058576130588382613533565b6001600160a01b03821661306f57610bee816135d5565b826001600160a01b0316826001600160a01b031614610bee57610bee828261368a565b6000826001600160a01b03168260405160006040518083038185875af1925050503d80600081146130df576040519150601f19603f3d011682016040523d82523d6000602084013e6130e4565b606091505b5050905080610bee5760405162461bcd60e51b815260206004820152601c60248201527f6e617469766520746f6b656e207472616e73666572206661696c6564000000006044820152606401610b3b565b816001600160a01b0316836001600160a01b031603156114b357306001600160a01b03841603613173576128666001600160a01b03851683836136d0565b6114b36001600160a01b038516848484613733565b60008181526001830160205260408120546131cf57508154600181810184556000848152602080822090930184905584548482528286019093526040902091909155610a06565b506000610a06565b600081815260018301602052604081205480156132c05760006131fb60018361473f565b855490915060009061320f9060019061473f565b905081811461327457600086600001828154811061322f5761322f6144b7565b9060005260206000200154905080876000018481548110613252576132526144b7565b6000918252602080832090910192909255918252600188019052604090208390555b855486908061328557613285614905565b600190038181906000526020600020016000905590558560010160008681526020019081526020016000206000905560019350505050610a06565b6000915050610a06565b8151156132da5781518083602001fd5b8060405162461bcd60e51b8152600401610b3b9190613b39565b60006114507f8b73c3c69bb8fe3d512ecc4cf759cc79239f7b179b0ffacaa9a75d522b39400f61332360975490565b6098546040805160208101859052908101839052606081018290524660808201523060a082015260009060c0016040516020818303038152906040528051906020012090509392505050565b60008082516041036133a55760208301516040840151606085015160001a6133998782858561376b565b945094505050506133ad565b506000905060025b9250929050565b60008160048111156133c8576133c861491b565b036133d05750565b60018160048111156133e4576133e461491b565b036134315760405162461bcd60e51b815260206004820152601860248201527f45434453413a20696e76616c6964207369676e617475726500000000000000006044820152606401610b3b565b60028160048111156134455761344561491b565b036134925760405162461bcd60e51b815260206004820152601f60248201527f45434453413a20696e76616c6964207369676e6174757265206c656e677468006044820152606401610b3b565b60038160048111156134a6576134a661491b565b036111195760405162461bcd60e51b815260206004820152602260248201527f45434453413a20696e76616c6964207369676e6174757265202773272076616c604482015261756560f01b6064820152608401610b3b565b60006001600160e01b03198216637965db0b60e01b1480610a0657506301ffc9a760e01b6001600160e01b0319831614610a06565b6000600161354084611396565b61354a919061473f565b60008381526101c660205260409020549091508082146135a0576001600160a01b03841660009081526101c56020908152604080832085845282528083205484845281842081905583526101c690915290208190555b5060009182526101c6602090815260408084208490556001600160a01b0390941683526101c581528383209183525290812055565b6101c7546000906135e89060019061473f565b60008381526101c860205260408120546101c78054939450909284908110613612576136126144b7565b90600052602060002001549050806101c78381548110613634576136346144b7565b60009182526020808320909101929092558281526101c890915260408082208490558582528120556101c780548061366e5761366e614905565b6001900381819060005260206000200160009055905550505050565b600061369583611396565b6001600160a01b0390931660009081526101c56020908152604080832086845282528083208590559382526101c69052919091209190915550565b6040516001600160a01b038316602482015260448101829052610bee90849063a9059cbb60e01b906064015b60408051601f198184030181529190526020810180516001600160e01b03166001600160e01b03199093169290921790915261382f565b6040516001600160a01b03808516602483015283166044820152606481018290526114b39085906323b872dd60e01b906084016136fc565b6000807f7fffffffffffffffffffffffffffffff5d576e7357a4501ddfe92f46681b20a08311156137a25750600090506003613826565b6040805160008082526020820180845289905260ff881692820192909252606081018690526080810185905260019060a0016020604051602081039080840390855afa1580156137f6573d6000803e3d6000fd5b5050604051601f1901519150506001600160a01b03811661381f57600060019250925050613826565b9150600090505b94509492505050565b6000613884826040518060400160405280602081526020017f5361666545524332303a206c6f772d6c6576656c2063616c6c206661696c6564815250856001600160a01b03166139019092919063ffffffff16565b805190915015610bee57808060200190518101906138a29190614931565b610bee5760405162461bcd60e51b815260206004820152602a60248201527f5361666545524332303a204552433230206f7065726174696f6e20646964206e6044820152691bdd081cdd58d8d9595960b21b6064820152608401610b3b565b60606109d6848460008585600080866001600160a01b031685876040516139289190614756565b60006040518083038185875af1925050503d8060008114613965576040519150601f19603f3d011682016040523d82523d6000602084013e61396a565b606091505b509150915061397b87838387613986565b979650505050505050565b606083156139f55782516000036139ee576001600160a01b0385163b6139ee5760405162461bcd60e51b815260206004820152601d60248201527f416464726573733a2063616c6c20746f206e6f6e2d636f6e74726163740000006044820152606401610b3b565b5081611d4a565b611d4a83836132ca565b80356001600160a01b0381168114613a1657600080fd5b919050565b60008083601f840112613a2d57600080fd5b5081356001600160401b03811115613a4457600080fd5b6020830191508360208285010111156133ad57600080fd5b600080600060408486031215613a7157600080fd5b613a7a846139ff565b925060208401356001600160401b03811115613a9557600080fd5b613aa186828701613a1b565b9497909650939450505050565b6001600160e01b03198116811461111957600080fd5b600060208284031215613ad657600080fd5b81356109d981613aae565b60005b83811015613afc578181015183820152602001613ae4565b838111156114b35750506000910152565b60008151808452613b25816020860160208601613ae1565b601f01601f19169290920160200192915050565b6020815260006109d96020830184613b0d565b600060208284031215613b5e57600080fd5b5035919050565b60008060408385031215613b7857600080fd5b613b81836139ff565b946020939093013593505050565b600060208284031215613ba157600080fd5b6109d9826139ff565b600080600060608486031215613bbf57600080fd5b613bc8846139ff565b9250613bd6602085016139ff565b9150604084013590509250925092565b60008060408385031215613bf957600080fd5b50508035926020909101359150565b600080600060408486031215613c1d57600080fd5b83356001600160401b0380821115613c3457600080fd5b908501906101408288031215613c4957600080fd5b90935060208501359080821115613c5f57600080fd5b50613aa186828701613a1b565b60008060408385031215613c7f57600080fd5b82359150613c8f602084016139ff565b90509250929050565b60008060208385031215613cab57600080fd5b82356001600160401b03811115613cc157600080fd5b613ccd85828601613a1b565b90969095509350505050565b600080600060608486031215613cee57600080fd5b83359250613bd6602085016139ff565b801515811461111957600080fd5b60008060408385031215613d1f57600080fd5b613d28836139ff565b91506020830135613d3881613cfe565b809150509250929050565b60008060208385031215613d5657600080fd5b82356001600160401b0380821115613d6d57600080fd5b818501915085601f830112613d8157600080fd5b813581811115613d9057600080fd5b8660208260051b8501011115613da557600080fd5b60209290920196919550909350505050565b6000602080830181845280855180835260408601915060408160051b870101925083870160005b82811015613e0c57603f19888603018452613dfa858351613b0d565b94509285019290850190600101613dde565b5092979650505050505050565b634e487b7160e01b600052604160045260246000fd5b60405161014081016001600160401b0381118282101715613e5257613e52613e19565b60405290565b604051601f8201601f191681016001600160401b0381118282101715613e8057613e80613e19565b604052919050565b60006001600160401b03831115613ea157613ea1613e19565b613eb4601f8401601f1916602001613e58565b9050828152838383011115613ec857600080fd5b828260208301376000602084830101529392505050565b60008060008060808587031215613ef557600080fd5b613efe856139ff565b9350613f0c602086016139ff565b92506040850135915060608501356001600160401b03811115613f2e57600080fd5b8501601f81018713613f3f57600080fd5b613f4e87823560208401613e88565b91505092959194509250565b600082601f830112613f6b57600080fd5b6109d983833560208501613e88565b600082601f830112613f8b57600080fd5b813560206001600160401b03821115613fa657613fa6613e19565b8160051b613fb5828201613e58565b9283528481018201928281019087851115613fcf57600080fd5b83870192505b8483101561397b57613fe6836139ff565b82529183019190830190613fd5565b80356001600160801b0381168114613a1657600080fd5b6000806000806000806000806000806101408b8d03121561402c57600080fd5b6140358b6139ff565b995060208b01356001600160401b038082111561405157600080fd5b61405d8e838f01613f5a565b9a5060408d013591508082111561407357600080fd5b61407f8e838f01613f5a565b995060608d013591508082111561409557600080fd5b6140a18e838f01613f5a565b985060808d01359150808211156140b757600080fd5b506140c48d828e01613f7a565b9650506140d360a08c016139ff565b94506140e160c08c016139ff565b93506140ef60e08c01613ff5565b92506140fe6101008c01613ff5565b915061410d6101208c016139ff565b90509295989b9194979a5092959850565b6000806040838503121561413157600080fd5b61413a836139ff565b9150613c8f602084016139ff565b600181811c9082168061415c57607f821691505b60208210810361417c57634e487b7160e01b600052602260045260246000fd5b50919050565b6020808252602d908201527f4552433732313a2063616c6c6572206973206e6f7420746f6b656e206f776e6560408201526c1c881bdc88185c1c1c9bdd9959609a1b606082015260800190565b634e487b7160e01b600052601160045260246000fd5b60008160001904831182151516156141ff576141ff6141cf565b500290565b60008261422157634e487b7160e01b600052601260045260246000fd5b500490565b6000808335601e1984360301811261423d57600080fd5b8301803591506001600160401b0382111561425757600080fd5b6020019150368190038213156133ad57600080fd5b6000610140823603121561427f57600080fd5b614287613e2f565b614290836139ff565b815261429e602084016139ff565b6020820152604083013560408201526142b9606084016139ff565b606082015260808301356001600160401b038111156142d757600080fd5b6142e336828601613f5a565b60808301525060a083013560a08201526142ff60c084016139ff565b60c082015261431060e08401613ff5565b60e0820152610100614323818501613ff5565b9082015261012092830135928101929092525090565b6000808335601e1984360301811261435057600080fd5b83016020810192503590506001600160401b0381111561436f57600080fd5b8036038213156133ad57600080fd5b81835281816020850137506000828201602090810191909152601f909101601f19169091010190565b602081526143c8602082016143bb846139ff565b6001600160a01b03169052565b60006143d6602084016139ff565b6001600160a01b038116604084015250604083013560608301526143fc606084016139ff565b6001600160a01b0381166080840152506144196080840184614339565b6101408060a08601526144316101608601838561437e565b925060a086013560c086015261444960c087016139ff565b6001600160a01b03811660e0870152915061446660e08701613ff5565b915061010061447f818701846001600160801b03169052565b61448a818801613ff5565b9250506101206144a4818701846001600160801b03169052565b9590950135939094019290925250919050565b634e487b7160e01b600052603260045260246000fd5b601f821115610bee57600081815260208120601f850160051c810160208610156144f45750805b601f850160051c820191505b8181101561451357828155600101614500565b505050505050565b6001600160401b0383111561453257614532613e19565b614546836145408354614148565b836144cd565b6000601f84116001811461457a57600085156145625750838201355b600019600387901b1c1916600186901b1783556145d4565b600083815260209020601f19861690835b828110156145ab578685013582556020948501946001909201910161458b565b50868210156145c85760001960f88860031b161c19848701351681555b505060018560011b0183555b5050505050565b6000600182016145ed576145ed6141cf565b5060010190565b81516001600160401b0381111561460d5761460d613e19565b6146218161461b8454614148565b846144cd565b602080601f831160018114614656576000841561463e5750858301515b600019600386901b1c1916600185901b178555614513565b600085815260208120601f198616915b8281101561468557888601518255948401946001909101908401614666565b50858210156146a35787850151600019600388901b60f8161c191681555b5050505050600190811b01905550565b600082198211156146c6576146c66141cf565b500190565b6020815260006109d660208301848661437e565b60208082526025908201527f4552433732313a207472616e736665722066726f6d20696e636f72726563742060408201526437bbb732b960d91b606082015260800190565b60006020828403121561473657600080fd5b6109d982613ff5565b600082821015614751576147516141cf565b500390565b60008251614768818460208701613ae1565b9190910192915050565b60208082526032908201527f4552433732313a207472616e7366657220746f206e6f6e20455243373231526560408201527131b2b4bb32b91034b6b83632b6b2b73a32b960711b606082015260800190565b6020808252602b908201527f496e697469616c697a61626c653a20636f6e7472616374206973206e6f74206960408201526a6e697469616c697a696e6760a81b606082015260800190565b7f416363657373436f6e74726f6c3a206163636f756e7420000000000000000000815260008351614847816017850160208801613ae1565b7001034b99036b4b9b9b4b733903937b6329607d1b6017918401918201528351614878816028840160208801613ae1565b01602801949350505050565b6001600160a01b03858116825284166020820152604081018390526080606082018190526000906148b790830184613b0d565b9695505050505050565b6000602082840312156148d357600080fd5b81516109d981613aae565b8183823760009101908152919050565b6000816148fd576148fd6141cf565b506000190190565b634e487b7160e01b600052603160045260246000fd5b634e487b7160e01b600052602160045260246000fd5b60006020828403121561494357600080fd5b81516109d981613cfe56fe416464726573733a206c6f772d6c6576656c2064656c65676174652063616c6c206661696c6564a2646970667358221220e5fe0dbac7e5629366ce2ce50c99598e32e7405cc011338150c7d28987e6a9c264736f6c634300080f0033608060405234801561001057600080fd5b506158ff80620000216000396000f3fe6080604052600436106102135760003560e01c8063ac9650d811610118578063d547741f116100a0578063ebdfbce51161006f578063ebdfbce5146107a9578063ec91f2a414610811578063efd14db514610832578063f23a6e6114610852578063fd967f471461087e57600080fd5b8063d547741f146106a0578063de74e57b146106c0578063e8a3d48514610767578063ea0e02411461078957600080fd5b8063c78b616c116100e7578063c78b616c1461057a578063ca15c87314610591578063cb2ef6f7146105b1578063d45573f6146105d2578063d4ac9b8c1461060a57600080fd5b8063ac9650d8146104e1578063b13c0e631461050e578063bc197c811461052e578063c4b5b15f1461055a57600080fd5b80635fef45e71161019b5780639010d07c1161016a5780639010d07c1461043857806391d1485414610470578063938e3d7b14610490578063a0a8e460146104b0578063a217fddf146104cc57600080fd5b80635fef45e7146103d25780636bab66ae146103e55780637506c84a146104055780637687ab021461042557600080fd5b8063296f4e16116101e2578063296f4e16146102f95780632f2ff15d1461031957806336568abe146103395780634e03f28d14610359578063572b6c051461039957600080fd5b806301ffc9a71461021f578063150b7a02146102545780631e7ac48814610299578063248a9ca3146102bb57600080fd5b3661021a57005b600080fd5b34801561022b57600080fd5b5061023f61023a366004614993565b610894565b60405190151581526020015b60405180910390f35b34801561026057600080fd5b5061028061026f366004614a25565b630a85bd0160e11b95945050505050565b6040516001600160e01b0319909116815260200161024b565b3480156102a557600080fd5b506102b96102b4366004614a97565b6108da565b005b3480156102c757600080fd5b506102eb6102d6366004614ac3565b600090815260fb602052604090206001015490565b60405190815260200161024b565b34801561030557600080fd5b506102b9610314366004614b5a565b61099e565b34801561032557600080fd5b506102b9610334366004614be6565b610e3c565b34801561034557600080fd5b506102b9610354366004614be6565b610e66565b34801561036557600080fd5b506101635461038190600160401b90046001600160401b031681565b6040516001600160401b03909116815260200161024b565b3480156103a557600080fd5b5061023f6103b4366004614c16565b6001600160a01b031660009081526065602052604090205460ff1690565b6102b96103e0366004614c33565b610ef4565b3480156103f157600080fd5b506102b9610400366004614be6565b61125f565b34801561041157600080fd5b506102b9610420366004614ac3565b611554565b6102b9610433366004614c7c565b61179b565b34801561044457600080fd5b50610458610453366004614cce565b611973565b6040516001600160a01b03909116815260200161024b565b34801561047c57600080fd5b5061023f61048b366004614be6565b611993565b34801561049c57600080fd5b506102b96104ab366004614cf0565b6119be565b3480156104bc57600080fd5b506040516001815260200161024b565b3480156104d857600080fd5b506102eb600081565b3480156104ed57600080fd5b506105016104fc366004614d31565b6119dd565b60405161024b9190614dfd565b34801561051a57600080fd5b506102b9610529366004614e5f565b611ad1565b34801561053a57600080fd5b50610280610549366004614fac565b63bc197c8160e01b95945050505050565b34801561056657600080fd5b506102b9610575366004615059565b611ebd565b34801561058657600080fd5b506102eb6101605481565b34801561059d57600080fd5b506102eb6105ac366004614ac3565b6123b5565b3480156105bd57600080fd5b506a4d61726b6574706c61636560a81b6102eb565b3480156105de57600080fd5b5061016254604080516001600160a01b0383168152600160a01b90920461ffff1660208301520161024b565b34801561061657600080fd5b50610667610625366004614ac3565b6101666020526000908152604090208054600182015460028301546003840154600485015460059095015493946001600160a01b039384169492939091169186565b604080519687526001600160a01b03958616602088015286019390935292166060840152608083019190915260a082015260c00161024b565b3480156106ac57600080fd5b506102b96106bb366004614be6565b6123cd565b3480156106cc57600080fd5b5061074f6106db366004614ac3565b61016460205260009081526040902080546001820154600283015460038401546004850154600586015460068701546007880154600889015460098a0154600a909a015498996001600160a01b03988916999789169896979596949593949092169290919060ff808216916101009004168c565b60405161024b9c9b9a999897969594939291906150f9565b34801561077357600080fd5b5061077c6123f2565b60405161024b919061517d565b34801561079557600080fd5b506102b96107a4366004614cce565b612481565b3480156107b557600080fd5b506106676107c4366004614be6565b61016560209081526000928352604080842090915290825290208054600182015460028301546003840154600485015460059095015493946001600160a01b039384169492939091169186565b34801561081d57600080fd5b5061016354610381906001600160401b031681565b34801561083e57600080fd5b506102b961084d366004615190565b61253d565b34801561085e57600080fd5b5061028061086d3660046152a4565b63f23a6e6160e01b95945050505050565b34801561088a57600080fd5b5061038161271081565b60006001600160e01b03198216630271189760e51b14806108c557506001600160e01b03198216630a85bd0160e11b145b806108d457506108d48261273c565b92915050565b60006108e581612761565b61271082111561092c5760405162461bcd60e51b815260206004820152600d60248201526c313839901e1e9018981818181760991b60448201526064015b60405180910390fd5b61016280546001600160e01b031916600160a01b6001600160401b038516026001600160a01b031916176001600160a01b0385169081179091556040518381527fe2497bd806ec41a6e0dd992c29a72efc0ef8fec9092d1978fd4a1e00b2f183049060200160405180910390a2505050565b61016080549060019060006109b38385615322565b90915550600090506109c3612775565b905060006109d48460000151612784565b905060006109e68286608001516128cc565b905060008111610a235760405162461bcd60e51b81526020600482015260086024820152675155414e5449545960c01b6044820152606401610923565b610a4e7ff94103142c1baabe9ac2b5d1487bf783de9e69cfeea9a72f5c9c94afd7877b8c6000611993565b80610a805750610a807ff94103142c1baabe9ac2b5d1487bf783de9e69cfeea9a72f5c9c94afd7877b8c61048b612775565b610ab65760405162461bcd60e51b815260206004820152600760248201526610a624a9aa22a960c91b6044820152606401610923565b610ae17f86d5cf0a6bdc8d859ba3bdc97043337c82a0e609035f378e419298b6a3e00ae66000611993565b80610b155750610b157f86d5cf0a6bdc8d859ba3bdc97043337c82a0e609035f378e419298b6a3e00ae68660000151611993565b610b4a5760405162461bcd60e51b8152602060048201526006602482015265085054d4d15560d21b6044820152606401610923565b604085015142811015610b9957610e10610b64824261533a565b10610b965760405162461bcd60e51b815260206004820152600260248201526114d560f21b6044820152606401610923565b50425b610bae84876000015188602001518587612906565b6000604051806101800160405280878152602001866001600160a01b0316815260200188600001516001600160a01b0316815260200188602001518152602001838152602001886060015184610c049190615322565b81526020018481526020018860a001516001600160a01b031681526020018860c0015181526020018860e001518152602001856001811115610c4857610c486150b8565b81526020018861010001516001811115610c6457610c646150b8565b9052600087815261016460209081526040918290208351815590830151600180830180546001600160a01b03199081166001600160a01b0394851617909155938501516002840180548616918416919091179055606085015160038401556080850151600484015560a0850151600584015560c0850151600684015560e085015160078401805490951692169190911790925561010083015160088201556101208301516009820155610140830151600a82018054949550859492939192909160ff19909116908381811115610d3c57610d3c6150b8565b0217905550610160820151600a8201805461ff001916610100836001811115610d6757610d676150b8565b021790555060019150610d779050565b8161016001516001811115610d8e57610d8e6150b8565b03610de3578061010001518161012001511015610dd75760405162461bcd60e51b81526020600482015260076024820152665245534552564560c81b6044820152606401610923565b610de385308584612bd7565b846001600160a01b031687600001516001600160a01b0316877f0c5bc74ccdf848b38eb526a154b85085e1d61addf1d100cba2074e039c0b634084604051610e2b9190615351565b60405180910390a450505050505050565b600082815260fb6020526040902060010154610e5781612761565b610e618383612d2b565b505050565b610e6e612775565b6001600160a01b0316816001600160a01b031614610ee65760405162461bcd60e51b815260206004820152602f60248201527f416363657373436f6e74726f6c3a2063616e206f6e6c792072656e6f756e636560448201526e103937b632b9903337b91039b2b63360891b6064820152608401610923565b610ef08282612d4e565b5050565b610efc612d71565b6000858152610164602052604090206002015485906001600160a01b0316610f365760405162461bcd60e51b81526004016109239061541a565b600086815261016460209081526040808320815161018081018352815481526001808301546001600160a01b039081169583019590955260028301548516938201939093526003820154606082015260048201546080820152600582015460a0820152600682015460c0820152600782015490931660e084015260088101546101008401526009810154610120840152600a810154909161014084019160ff1690811115610fe657610fe66150b8565b6001811115610ff757610ff76150b8565b8152602001600a820160019054906101000a900460ff16600181111561101f5761101f6150b8565b6001811115611030576110306150b8565b815250509050428160a0015111801561104c5750428160800151105b61108c5760405162461bcd60e51b815260206004820152601160248201527034b730b1ba34bb32903634b9ba34b7339760791b6044820152606401610923565b60006040518060c001604052808981526020016110a7612775565b6001600160a01b039081168252602082018a905288166040820152606081018790526080018590529050600182610160015160018111156110ea576110ea6150b8565b03611189578160e001516001600160a01b031681606001516001600160a01b0316146111625760405162461bcd60e51b815260206004820152602160248201527f6d7573742075736520617070726f7665642063757272656e637920746f2062696044820152601960fa1b6064820152608401610923565b6111758261014001518360c001516128cc565b60408201526111848282612dca565b61124c565b600082610160015160018111156111a2576111a26150b8565b0361124c5734156111e75760405162461bcd60e51b815260206004820152600f60248201526e1b9bc81d985b1d59481b9959591959608a1b6044820152606401610923565b6001600160a01b03861673eeeeeeeeeeeeeeeeeeeeeeeeeeeeeeeeeeeeeeee14611211578561121f565b61015f546001600160a01b03165b6001600160a01b0316606082015261014082015161123d90886128cc565b604082015261124c82826131a4565b50505061125860018055565b5050505050565b611267612d71565b6000828152610164602052604090206002015482906001600160a01b03166112a15760405162461bcd60e51b81526004016109239061541a565b600083815261016460209081526040808320815161018081018352815481526001808301546001600160a01b039081169583019590955260028301548516938201939093526003820154606082015260048201546080820152600582015460a0820152600682015460c0820152600782015490931660e084015260088101546101008401526009810154610120840152600a810154909161014084019160ff1690811115611351576113516150b8565b6001811115611362576113626150b8565b8152602001600a820160019054906101000a900460ff16600181111561138a5761138a6150b8565b600181111561139b5761139b6150b8565b9052509050600181610160015160018111156113b9576113b96150b8565b146113f85760405162461bcd60e51b815260206004820152600f60248201526e3737ba1030b71030bab1ba34b7b71760891b6044820152606401610923565b600084815261016660209081526040808320815160c0810183528154815260018201546001600160a01b039081169482019490945260028201549281019290925260038101549092166060820152600482015460808083019190915260059092015460a08201529083015190919042108061147e575060208201516001600160a01b0316155b905080156114945761148f8361334a565b611547565b428360a00151106114f95760405162461bcd60e51b815260206004820152602960248201527f63616e6e6f7420636c6f73652061756374696f6e206265666f7265206974206860448201526830b99032b73232b21760b91b6064820152608401610923565b82602001516001600160a01b0316856001600160a01b0316036115205761152083836134b6565b81602001516001600160a01b0316856001600160a01b0316036115475761154783836136db565b50505050610ef060018055565b8061155d612775565b600082815261016460205260409020600101546001600160a01b0390811691161461159a5760405162461bcd60e51b815260040161092390615437565b600082815261016460209081526040808320815161018081018352815481526001808301546001600160a01b039081169583019590955260028301548516938201939093526003820154606082015260048201546080820152600582015460a0820152600682015460c0820152600782015490931660e084015260088101546101008401526009810154610120840152600a810154909161014084019160ff169081111561164a5761164a6150b8565b600181111561165b5761165b6150b8565b8152602001600a820160019054906101000a900460ff166001811115611683576116836150b8565b6001811115611694576116946150b8565b9052509050600081610160015160018111156116b2576116b26150b8565b146116e95760405162461bcd60e51b8152602060048201526007602482015266085112549150d560ca1b6044820152606401610923565b6000838152610164602090815260408083208381556001810180546001600160a01b0319908116909155600282018054821690556003820185905560048201859055600582018590556006820185905560078201805490911690556008810184905560098101849055600a01805461ffff191690559083015190516001600160a01b039091169185917f58b0852506006c4be6c7ae72afcd195d9e64d7f5d8947905e914b778e47b7cf39190a3505050565b6117a3612d71565b6000858152610164602052604090206002015485906001600160a01b03166117dd5760405162461bcd60e51b81526004016109239061541a565b600086815261016460209081526040808320815161018081018352815481526001808301546001600160a01b039081169583019590955260028301548516938201939093526003820154606082015260048201546080820152600582015460a0820152600682015460c0820152600782015490931660e084015260088101546101008401526009810154610120840152600a810154909161014084019160ff169081111561188d5761188d6150b8565b600181111561189e5761189e6150b8565b8152602001600a820160019054906101000a900460ff1660018111156118c6576118c66150b8565b60018111156118d7576118d76150b8565b905250905060006118e6612775565b90508160e001516001600160a01b0316856001600160a01b031614801561191c5750858261012001516119199190615457565b84145b6119515760405162461bcd60e51b815260206004820152600660248201526521505249434560d01b6044820152606401610923565b61124c8282898560e001518a87610120015161196d9190615457565b8b61385c565b600082815261012d6020526040812061198c90836139fb565b9392505050565b600091825260fb602090815260408084206001600160a01b0393909316845291905290205460ff1690565b60006119c981612761565b6101616119d78385836154fe565b50505050565b6060816001600160401b038111156119f7576119f7614adc565b604051908082528060200260200182016040528015611a2a57816020015b6060815260200190600190039081611a155790505b50905060005b82811015611aca57611a9a30858584818110611a4e57611a4e6155bd565b9050602002810190611a6091906155d3565b8080601f016020809104026020016040519081016040528093929190818152602001838380828437600092019190915250613a0792505050565b828281518110611aac57611aac6155bd565b60200260200101819052508080611ac290615619565b915050611a30565b5092915050565b611ad9612d71565b83611ae2612775565b600082815261016460205260409020600101546001600160a01b03908116911614611b1f5760405162461bcd60e51b815260040161092390615437565b6000858152610164602052604090206002015485906001600160a01b0316611b595760405162461bcd60e51b81526004016109239061541a565b600061016560008881526020019081526020016000206000876001600160a01b03166001600160a01b031681526020019081526020016000206040518060c0016040529081600082015481526020016001820160009054906101000a90046001600160a01b03166001600160a01b03166001600160a01b03168152602001600282015481526020016003820160009054906101000a90046001600160a01b03166001600160a01b03166001600160a01b031681526020016004820154815260200160058201548152505090506000610164600089815260200190815260200160002060405180610180016040529081600082015481526020016001820160009054906101000a90046001600160a01b03166001600160a01b03166001600160a01b031681526020016002820160009054906101000a90046001600160a01b03166001600160a01b03166001600160a01b03168152602001600382015481526020016004820154815260200160058201548152602001600682015481526020016007820160009054906101000a90046001600160a01b03166001600160a01b03166001600160a01b031681526020016008820154815260200160098201548152602001600a820160009054906101000a900460ff166001811115611d3e57611d3e6150b8565b6001811115611d4f57611d4f6150b8565b8152602001600a820160019054906101000a900460ff166001811115611d7757611d776150b8565b6001811115611d8857611d886150b8565b81525050905081606001516001600160a01b0316866001600160a01b0316148015611db65750816080015185145b611deb5760405162461bcd60e51b815260206004820152600660248201526521505249434560d01b6044820152606401610923565b428260a0015111611e285760405162461bcd60e51b81526020600482015260076024820152661156141254915160ca1b6044820152606401610923565b6000888152610165602090815260408083206001600160a01b038b1684529091528082208281556001810180546001600160a01b031990811690915560028201849055600382018054909116905560048101839055600501919091556060830151908301516080840151611eb09284928b92839291611ea691615457565b876040015161385c565b505050506119d760018055565b86611ec6612775565b600082815261016460205260409020600101546001600160a01b03908116911614611f035760405162461bcd60e51b815260040161092390615437565b600088815261016460209081526040808320815161018081018352815481526001808301546001600160a01b039081169583019590955260028301548516938201939093526003820154606082015260048201546080820152600582015460a0820152600682015460c0820152600782015490931660e084015260088101546101008401526009810154610120840152600a810154909161014084019160ff1690811115611fb357611fb36150b8565b6001811115611fc457611fc46150b8565b8152602001600a820160019054906101000a900460ff166001811115611fec57611fec6150b8565b6001811115611ffd57611ffd6150b8565b81525050905060006120148261014001518a6128cc565b9050600060018361016001516001811115612031576120316150b8565b1490508160000361206f5760405162461bcd60e51b81526020600482015260086024820152675155414e5449545960c01b6044820152606401610923565b80156120ec57826080015142106120b25760405162461bcd60e51b815260206004820152600760248201526614d5105495115160ca1b6044820152606401610923565b888810156120ec5760405162461bcd60e51b81526020600482015260076024820152665245534552564560c81b6044820152606401610923565b4286101561213757610e10612101874261533a565b106121335760405162461bcd60e51b815260206004820152600260248201526114d560f21b6044820152606401610923565b4295505b60008615612145578661214b565b83608001515b90506040518061018001604052808d8152602001612167612775565b6001600160a01b0316815260200185604001516001600160a01b0316815260200185606001518152602001828152602001876000146121af576121aa8884615322565b6121b5565b8560a001515b8152602001848152602001896001600160a01b031681526020018b81526020018a815260200185610140015160018111156121f2576121f26150b8565b8152602001856101600151600181111561220e5761220e6150b8565b905260008d815261016460209081526040918290208351815590830151600180830180546001600160a01b03199081166001600160a01b0394851617909155938501516002840180548616918416919091179055606085015160038401556080850151600484015560a0850151600584015560c0850151600684015560e085015160078401805490951692169190911790925561010083015160088201556101208301516009820155610140830151600a8201805492939192909160ff199091169083818111156122e1576122e16150b8565b0217905550610160820151600a8201805461ff00191661010083600181111561230c5761230c6150b8565b0217905550505060c0840151831461236c578115612338576123383085602001518660c0015187612bd7565b61235684602001518560400151866060015186886101400151612906565b811561236c5761236c8460200151308587612bd7565b83602001516001600160a01b03168c7fbbea26162edf2bc6a0255bf144ec4dd044302a301ef7d32daa835a2ddacfdef060405160405180910390a3505050505050505050505050565b600081815261012d602052604081206108d490613afb565b600082815260fb60205260409020600101546123e881612761565b610e618383612d4e565b610161805461240090615476565b80601f016020809104026020016040519081016040528092919081815260200182805461242c90615476565b80156124795780601f1061244e57610100808354040283529160200191612479565b820191906000526020600020905b81548152906001019060200180831161245c57829003601f168201915b505050505081565b600061248c81612761565b61271082106124cc5760405162461bcd60e51b815260206004820152600c60248201526b34b73b30b634b2102128299760a11b6044820152606401610923565b61016380546001600160401b03848116600160401b026001600160801b0319909216908616171790556040517f441ed6470e96704c3f8c9e70c209107078aab3f17311385e886081b91aa75088906125309085908590918252602082015260400190565b60405180910390a1505050565b600054610100900460ff161580801561255d5750600054600160ff909116105b806125775750303b158015612577575060005460ff166001145b6125da5760405162461bcd60e51b815260206004820152602e60248201527f496e697469616c697a61626c653a20636f6e747261637420697320616c72656160448201526d191e481a5b9a5d1a585b1a5e995960921b6064820152608401610923565b6000805460ff1916600117905580156125fd576000805461ff0019166101001790555b612605613b05565b61260e85613b36565b61016380546001600160801b0319166901f400000000000003841790556101616126388782615632565b5061016280546001600160e01b031916600160a01b6001600160401b038616026001600160a01b031916176001600160a01b03861617905561267b600088613b6e565b6126a67ff94103142c1baabe9ac2b5d1487bf783de9e69cfeea9a72f5c9c94afd7877b8c6000613b6e565b6126d17f86d5cf0a6bdc8d859ba3bdc97043337c82a0e609035f378e419298b6a3e00ae66000613b6e565b61015f80546001600160a01b0319166001600160a01b0384161790558015612733576000805461ff0019169055604051600181527f7f26b83ff96e1f2b6a682f133852f6798a09c465da95921460cefb38474024989060200160405180910390a15b50505050505050565b60006001600160e01b03198216635a05180f60e01b14806108d457506108d482613b78565b6127728161276d612775565b613bad565b50565b600061277f613c06565b905090565b6040516301ffc9a760e01b8152636cdb3d1360e11b60048201526000906001600160a01b038316906301ffc9a790602401602060405180830381865afa1580156127d2573d6000803e3d6000fd5b505050506040513d601f19601f820116820180604052508101906127f691906156f1565b1561280357506000919050565b6040516301ffc9a760e01b81526380ac58cd60e01b60048201526001600160a01b038316906301ffc9a790602401602060405180830381865afa15801561284e573d6000803e3d6000fd5b505050506040513d601f19601f8201168201806040525081019061287291906156f1565b1561287f57506001919050565b60405162461bcd60e51b815260206004820181905260248201527f746f6b656e206d7573742062652045524331313535206f72204552433732312e6044820152606401610923565b919050565b6000816000036128de575060006108d4565b60018360018111156128f2576128f26150b8565b146128fd578161198c565b50600192915050565b3060008083600181111561291c5761291c6150b8565b03612a1557604051627eeac760e11b81526001600160a01b0388811660048301526024820187905285919088169062fdd58e90604401602060405180830381865afa15801561296f573d6000803e3d6000fd5b505050506040513d601f19601f820116820180604052508101906129939190615713565b10158015612a0e575060405163e985e9c560e01b81526001600160a01b038881166004830152838116602483015287169063e985e9c590604401602060405180830381865afa1580156129ea573d6000803e3d6000fd5b505050506040513d601f19601f82011682018060405250810190612a0e91906156f1565b9050612ba0565b6001836001811115612a2957612a296150b8565b03612ba0576040516331a9108f60e11b8152600481018690526001600160a01b038089169190881690636352211e90602401602060405180830381865afa158015612a78573d6000803e3d6000fd5b505050506040513d601f19601f82011682018060405250810190612a9c919061572c565b6001600160a01b0316148015612b9d575060405163020604bf60e21b8152600481018690526001600160a01b03808416919088169063081812fc90602401602060405180830381865afa158015612af7573d6000803e3d6000fd5b505050506040513d601f19601f82011682018060405250810190612b1b919061572c565b6001600160a01b03161480612b9d575060405163e985e9c560e01b81526001600160a01b038881166004830152838116602483015287169063e985e9c590604401602060405180830381865afa158015612b79573d6000803e3d6000fd5b505050506040513d601f19601f82011682018060405250810190612b9d91906156f1565b90505b806127335760405162461bcd60e51b81526020600482015260076024820152660850905313919560ca1b6044820152606401610923565b60008161014001516001811115612bf057612bf06150b8565b03612c845760408082015160608301519151637921219560e11b81526001600160a01b038781166004830152868116602483015260448201939093526064810185905260a06084820152600060a482015291169063f242432a9060c401600060405180830381600087803b158015612c6757600080fd5b505af1158015612c7b573d6000803e3d6000fd5b505050506119d7565b60018161014001516001811115612c9d57612c9d6150b8565b036119d75760408082015160608301519151635c46a7ef60e11b81526001600160a01b03878116600483015286811660248301526044820193909352608060648201526000608482015291169063b88d4fde9060a401600060405180830381600087803b158015612d0d57600080fd5b505af1158015612d21573d6000803e3d6000fd5b5050505050505050565b612d358282613c30565b600082815261012d60205260409020610e619082613cb7565b612d588282613ccc565b600082815261012d60205260409020610e619082613d51565b600260015403612dc35760405162461bcd60e51b815260206004820152601f60248201527f5265656e7472616e637947756172643a207265656e7472616e742063616c6c006044820152606401610923565b6002600155565b8151600090815261016660209081526040808320815160c0810183528154815260018201546001600160a01b039081169482019490945260028201549281018390526003820154909316606084015260048101546080840181905260059091015460a0840152919291612e3d9190615457565b9050600083604001518460800151612e559190615457565b61015f546101208701519192506001600160a01b03169015801590612e8e57508560c00151866101200151612e8a9190615457565b8210155b15612ea257612e9d86866136db565b6130be565b612ec18660c00151876101000151612eba9190615457565b8484613d66565b612f005760405162461bcd60e51b815260206004820152601060248201526f3737ba103bb4b73734b733903134b21760811b6044820152606401610923565b85516000908152610166602090815260409182902087518155908701516001820180546001600160a01b03199081166001600160a01b039384161790915592880151600283015560608801516003830180549094169116179091556080860151600482015560a08087015160059092019190915561016354908701516001600160401b0390911690612f9390429061533a565b116130be576101635460a0870180516001600160401b0390921691612fb9908390615322565b9052508551600090815261016460209081526040918290208851815590880151600180830180546001600160a01b03199081166001600160a01b0394851617909155938a0151600284018054861691841691909117905560608a0151600384015560808a0151600484015560a08a0151600584015560c08a0151600684015560e08a015160078401805490951692169190911790925561010088015160088201556101208801516009820155610140880151600a820180548a9460ff1990911690838181111561308b5761308b6150b8565b0217905550610160820151600a8201805461ff0019166101008360018111156130b6576130b66150b8565b021790555050505b60208401516001600160a01b0316158015906130da5750600083115b156130f4576130f48660e001513086602001518685613dc5565b6131098660e001518660200151308585613dc5565b8561016001516001811115613120576131206150b8565b85602001516001600160a01b031687600001517f8a412352601a288b3de40254a9de2ab14a497aa3638a7e558480680a56e2705d886040015189604001518a6080015161316d9190615457565b6060808c01516040805194855260208501939093526001600160a01b031691830191909152015b60405180910390a4505050505050565b8160c001518160400151111580156131c0575060008260c00151115b61320c5760405162461bcd60e51b815260206004820152601f60248201527f696e73756666696369656e7420746f6b656e7320696e206c697374696e672e006044820152606401610923565b613232816020015182606001518360400151846080015161322d9190615457565b613f2f565b815160009081526101656020908152604080832082850180516001600160a01b0390811686529190935292819020845181559151600180840180549286166001600160a01b03199384161790559185015160028401556060850151600384018054919095169116179092556080830151600482015560a0830151600590910155610160830151908111156132c8576132c86150b8565b81602001516001600160a01b031683600001517f8a412352601a288b3de40254a9de2ab14a497aa3638a7e558480680a56e2705d8460400151856040015186608001516133159190615457565b6060878101516040805194855260208501939093526001600160a01b0316838301529051918290030190a45050565b60018055565b613352612775565b8151600090815261016460205260409020600101546001600160a01b039081169116146133cc5760405162461bcd60e51b815260206004820152602260248201527f63616c6c6572206973206e6f7420746865206c697374696e672063726561746f604482015261391760f11b6064820152608401610923565b805160009081526101646020908152604082208281556001810180546001600160a01b031990811690915560028201805482169055600382018490556004820184905560058201849055600682018490556007820180549091169055600881018390556009810192909255600a909101805461ffff1916905581015160c082015161345991309184612bd7565b6001613463612775565b8251602080850151604080516001600160a01b0392831681526000938101939093529316927f572cdc5ca5e918473319d0f4737494e4709ac879a7d0bcd11ce1bef24b24e81d910160405180910390a450565b60008260c0015182608001516134cc9190615457565b600060c085018181524260a087019081528651835261016460209081526040938490208851815590880151600180830180546001600160a01b039384166001600160a01b031991821617909155958a015160028401805491841691881691909117905560608a0151600384015560808a01516004840155925160058301559251600682015560e08801516007820180549190941694169390931790915561010086015160088301556101208601516009830155610140860151600a8301805494955087949192909160ff19169083818111156135aa576135aa6150b8565b0217905550610160820151600a8201805461ff0019166101008360018111156135d5576135d56150b8565b02179055505060006080840181815285518252610166602090815260409283902086518155818701516001820180546001600160a01b03199081166001600160a01b039384161790915594880151600283015560608801516003830180549096169116179093559051600483015560a085015160059092019190915584015160e085015161366892503091908487614050565b6000613672612775565b6001600160a01b031684600001517f572cdc5ca5e918473319d0f4737494e4709ac879a7d0bcd11ce1bef24b24e81d866020015186602001516040516136ce9291906001600160a01b0392831681529116602082015260400190565b60405180910390a4505050565b604081810180514260a086810191825260008085528751815261016660209081528682208851815581890151600180830180546001600160a01b03199081166001600160a01b039485161790915598516002808501919091556060808d0151600380870180548e16928716929092179091556080808f0151600480890191909155998f01516005978801558f5189526101648852978d90208f518155968f015187850180548e169187169190911790559b8e015191860180548c16928516929092179091558c015199840199909955928a01519382019390935592519183019190915560c0870151600683015560e087015160078301805490951691161790925561010085015160088301556101208501516009830155610140850151600a83018054929487949360ff1916908381811115613819576138196150b8565b0217905550610160820151600a8201805461ff001916610100836001811115613844576138446150b8565b02179055509050506136683083602001518386612bd7565b61386986868386866141d4565b808660c00181815161387b919061533a565b9052508551600090815261016460209081526040918290208851815590880151600180830180546001600160a01b03199081166001600160a01b0394851617909155938a0151600284018054861691841691909117905560608a0151600384015560808a0151600484015560a08a0151600584015560c08a0151600684015560e08a015160078401805490951692169190911790925561010088015160088201556101208801516009820155610140880151600a820180548a9460ff1990911690838181111561394d5761394d6150b8565b0217905550610160820151600a8201805461ff001916610100836001811115613978576139786150b8565b021790555090505061399185876020015185858a614050565b6139a18660200151858389612bd7565b602080870151604080890151895182516001600160a01b038a81168252958101879052928301879052928416931691907f306e6cde5eb293794d557a3a6c844de939e6206b05e6910451c512852bf654a590606001613194565b600061198c83836143a3565b60606001600160a01b0383163b613a6f5760405162461bcd60e51b815260206004820152602660248201527f416464726573733a2064656c65676174652063616c6c20746f206e6f6e2d636f6044820152651b9d1c9858dd60d21b6064820152608401610923565b600080846001600160a01b031684604051613a8a9190615749565b600060405180830381855af49150503d8060008114613ac5576040519150601f19603f3d011682016040523d82523d6000602084013e613aca565b606091505b5091509150613af282826040518060600160405280602781526020016158a3602791396143cd565b95945050505050565b60006108d4825490565b600054610100900460ff16613b2c5760405162461bcd60e51b815260040161092390615765565b613b346143e6565b565b600054610100900460ff16613b5d5760405162461bcd60e51b815260040161092390615765565b613b6561440d565b61277281614434565b610ef08282612d2b565b60006001600160e01b03198216637965db0b60e01b14806108d457506301ffc9a760e01b6001600160e01b03198316146108d4565b613bb78282611993565b610ef057613bc4816144c3565b613bcf8360206144d5565b604051602001613be09291906157b0565b60408051601f198184030181529082905262461bcd60e51b82526109239160040161517d565b3360009081526065602052604081205460ff1615613c2b575060131936013560601c90565b503390565b613c3a8282611993565b610ef057600082815260fb602090815260408083206001600160a01b03851684529091529020805460ff19166001179055613c73612775565b6001600160a01b0316816001600160a01b0316837f2f8788117e7eff1d82e926ec794901d17c78024a50270940304540a733656f0d60405160405180910390a45050565b600061198c836001600160a01b038416614670565b613cd68282611993565b15610ef057600082815260fb602090815260408083206001600160a01b03851684529091529020805460ff19169055613d0d612775565b6001600160a01b0316816001600160a01b0316837ff6391f5c32d9c69d2a47ea670b442974b53935d1edc7fd64eb21e047a839171b60405160405180910390a45050565b600061198c836001600160a01b0384166146bf565b600082600003613d7a57508281101561198c565b8282118015613dbd575061016354600160401b90046001600160401b031683612710613da6828661533a565b613db09190615457565b613dba9190615825565b10155b949350505050565b81156112585773eeeeeeeeeeeeeeeeeeeeeeeeeeeeeeeeeeeeeeed196001600160a01b03861601613f2357306001600160a01b03851603613e6a57604051632e1a7d4d60e01b8152600481018390526001600160a01b03821690632e1a7d4d90602401600060405180830381600087803b158015613e4257600080fd5b505af1158015613e56573d6000803e3d6000fd5b50505050613e658383836147b2565b611258565b306001600160a01b03841603613f1857348214613ebf5760405162461bcd60e51b81526020600482015260136024820152721b5cd9cb9d985b1d5948084f48185b5bdd5b9d606a1b6044820152606401610923565b806001600160a01b031663d0e30db0836040518263ffffffff1660e01b81526004016000604051808303818588803b158015613efa57600080fd5b505af1158015613f0e573d6000803e3d6000fd5b5050505050611258565b613e658383836147b2565b61125885858585614877565b6040516370a0823160e01b81526001600160a01b0384811660048301528291908416906370a0823190602401602060405180830381865afa158015613f78573d6000803e3d6000fd5b505050506040513d601f19601f82011682018060405250810190613f9c9190615713565b1015801561401b5750604051636eb1769f60e11b81526001600160a01b03848116600483015230602483015282919084169063dd62ed3e90604401602060405180830381865afa158015613ff4573d6000803e3d6000fd5b505050506040513d601f19601f820116820180604052508101906140189190615713565b10155b610e615760405162461bcd60e51b815260206004820152600660248201526502142414c32360d41b6044820152606401610923565b610162546000906127109061407590600160a01b90046001600160401b031685615457565b61407f9190615825565b905060008083604001516001600160a01b0316632a55205a8560600151876040518363ffffffff1660e01b81526004016140c3929190918252602082015260400190565b6040805180830381865afa9250505080156140fb575060408051601f3d908101601f191682019092526140f891810190615847565b60015b15614178576001600160a01b038216158015906141185750600081115b1561417557866141288683615322565b111561416e5760405162461bcd60e51b815260206004820152601560248201527466656573206578636565642074686520707269636560581b6044820152606401610923565b8192508093505b50505b61015f54610162546001600160a01b039182169161419c9189918c91168785613dc5565b6141a9878a848685613dc5565b6141c9878a8a6141b98789615322565b6141c3908b61533a565b85613dc5565b505050505050505050565b600085610160015160018111156141ed576141ed6150b8565b1461423a5760405162461bcd60e51b815260206004820152601860248201527f63616e6e6f74206275792066726f6d206c697374696e672e00000000000000006044820152606401610923565b60008560c0015111801561424e5750600083115b801561425e57508460c001518311155b6142aa5760405162461bcd60e51b815260206004820152601960248201527f696e76616c696420616d6f756e74206f6620746f6b656e732e000000000000006044820152606401610923565b8460a00151421080156142c05750846080015142115b61430c5760405162461bcd60e51b815260206004820152601760248201527f6e6f742077697468696e2073616c652077696e646f772e0000000000000000006044820152606401610923565b73eeeeeeeeeeeeeeeeeeeeeeeeeeeeeeeeeeeeeeed196001600160a01b0383160161437a578034146143755760405162461bcd60e51b81526020600482015260126024820152716d73672e76616c756520213d20707269636560701b6044820152606401610923565b614385565b614385848383613f2f565b61125885602001518660400151876060015186896101400151612906565b60008260000182815481106143ba576143ba6155bd565b9060005260206000200154905092915050565b606083156143dc57508161198c565b61198c83836148cf565b600054610100900460ff166133445760405162461bcd60e51b815260040161092390615765565b600054610100900460ff16613b345760405162461bcd60e51b815260040161092390615765565b600054610100900460ff1661445b5760405162461bcd60e51b815260040161092390615765565b60005b8151811015610ef05760016065600084848151811061447f5761447f6155bd565b6020908102919091018101516001600160a01b03168252810191909152604001600020805460ff1916911515919091179055806144bb81615619565b91505061445e565b60606108d46001600160a01b03831660145b606060006144e4836002615457565b6144ef906002615322565b6001600160401b0381111561450657614506614adc565b6040519080825280601f01601f191660200182016040528015614530576020820181803683370190505b509050600360fc1b8160008151811061454b5761454b6155bd565b60200101906001600160f81b031916908160001a905350600f60fb1b8160018151811061457a5761457a6155bd565b60200101906001600160f81b031916908160001a905350600061459e846002615457565b6145a9906001615322565b90505b6001811115614621576f181899199a1a9b1b9c1cb0b131b232b360811b85600f16601081106145dd576145dd6155bd565b1a60f81b8282815181106145f3576145f36155bd565b60200101906001600160f81b031916908160001a90535060049490941c9361461a81615875565b90506145ac565b50831561198c5760405162461bcd60e51b815260206004820181905260248201527f537472696e67733a20686578206c656e67746820696e73756666696369656e746044820152606401610923565b60008181526001830160205260408120546146b7575081546001818101845560008481526020808220909301849055845484825282860190935260409020919091556108d4565b5060006108d4565b600081815260018301602052604081205480156147a85760006146e360018361533a565b85549091506000906146f79060019061533a565b905081811461475c576000866000018281548110614717576147176155bd565b906000526020600020015490508087600001848154811061473a5761473a6155bd565b6000918252602080832090910192909255918252600188019052604090208390555b855486908061476d5761476d61588c565b6001900381819060005260206000200160009055905585600101600086815260200190815260200160002060009055600193505050506108d4565b60009150506108d4565b6000836001600160a01b03168360405160006040518083038185875af1925050503d80600081146147ff576040519150601f19603f3d011682016040523d82523d6000602084013e614804565b606091505b50509050806119d757816001600160a01b031663d0e30db0846040518263ffffffff1660e01b81526004016000604051808303818588803b15801561484857600080fd5b505af115801561485c573d6000803e3d6000fd5b506119d7935050506001600160a01b038416905085856148f9565b816001600160a01b0316836001600160a01b031603156119d757306001600160a01b038416036148ba576148b56001600160a01b03851683836148f9565b6119d7565b6119d76001600160a01b03851684848461495b565b8151156148df5781518083602001fd5b8060405162461bcd60e51b8152600401610923919061517d565b6040516001600160a01b038316602482015260448101829052610e6190849063a9059cbb60e01b906064015b60408051601f198184030181529190526020810180516001600160e01b03166001600160e01b0319909316929092179091525050565b6040516001600160a01b03808516602483015283166044820152606481018290526119d79085906323b872dd60e01b90608401614925565b6000602082840312156149a557600080fd5b81356001600160e01b03198116811461198c57600080fd5b6001600160a01b038116811461277257600080fd5b80356128c7816149bd565b60008083601f8401126149ef57600080fd5b5081356001600160401b03811115614a0657600080fd5b602083019150836020828501011115614a1e57600080fd5b9250929050565b600080600080600060808688031215614a3d57600080fd5b8535614a48816149bd565b94506020860135614a58816149bd565b93506040860135925060608601356001600160401b03811115614a7a57600080fd5b614a86888289016149dd565b969995985093965092949392505050565b60008060408385031215614aaa57600080fd5b8235614ab5816149bd565b946020939093013593505050565b600060208284031215614ad557600080fd5b5035919050565b634e487b7160e01b600052604160045260246000fd5b60405161012081016001600160401b0381118282101715614b1557614b15614adc565b60405290565b604051601f8201601f191681016001600160401b0381118282101715614b4357614b43614adc565b604052919050565b8035600281106128c757600080fd5b60006101208284031215614b6d57600080fd5b614b75614af2565b614b7e836149d2565b815260208301356020820152604083013560408201526060830135606082015260808301356080820152614bb460a084016149d2565b60a082015260c083013560c082015260e083013560e0820152610100614bdb818501614b4b565b908201529392505050565b60008060408385031215614bf957600080fd5b823591506020830135614c0b816149bd565b809150509250929050565b600060208284031215614c2857600080fd5b813561198c816149bd565b600080600080600060a08688031215614c4b57600080fd5b85359450602086013593506040860135614c64816149bd565b94979396509394606081013594506080013592915050565b600080600080600060a08688031215614c9457600080fd5b853594506020860135614ca6816149bd565b9350604086013592506060860135614cbd816149bd565b949793965091946080013592915050565b60008060408385031215614ce157600080fd5b50508035926020909101359150565b60008060208385031215614d0357600080fd5b82356001600160401b03811115614d1957600080fd5b614d25858286016149dd565b90969095509350505050565b60008060208385031215614d4457600080fd5b82356001600160401b0380821115614d5b57600080fd5b818501915085601f830112614d6f57600080fd5b813581811115614d7e57600080fd5b8660208260051b8501011115614d9357600080fd5b60209290920196919550909350505050565b60005b83811015614dc0578181015183820152602001614da8565b838111156119d75750506000910152565b60008151808452614de9816020860160208601614da5565b601f01601f19169290920160200192915050565b6000602080830181845280855180835260408601915060408160051b870101925083870160005b82811015614e5257603f19888603018452614e40858351614dd1565b94509285019290850190600101614e24565b5092979650505050505050565b60008060008060808587031215614e7557600080fd5b843593506020850135614e87816149bd565b92506040850135614e97816149bd565b9396929550929360600135925050565b60006001600160401b03821115614ec057614ec0614adc565b5060051b60200190565b600082601f830112614edb57600080fd5b81356020614ef0614eeb83614ea7565b614b1b565b82815260059290921b84018101918181019086841115614f0f57600080fd5b8286015b84811015614f2a5780358352918301918301614f13565b509695505050505050565b60006001600160401b03831115614f4e57614f4e614adc565b614f61601f8401601f1916602001614b1b565b9050828152838383011115614f7557600080fd5b828260208301376000602084830101529392505050565b600082601f830112614f9d57600080fd5b61198c83833560208501614f35565b600080600080600060a08688031215614fc457600080fd5b8535614fcf816149bd565b94506020860135614fdf816149bd565b935060408601356001600160401b0380821115614ffb57600080fd5b61500789838a01614eca565b9450606088013591508082111561501d57600080fd5b61502989838a01614eca565b9350608088013591508082111561503f57600080fd5b5061504c88828901614f8c565b9150509295509295909350565b600080600080600080600060e0888a03121561507457600080fd5b87359650602088013595506040880135945060608801359350608088013561509b816149bd565b9699959850939692959460a0840135945060c09093013592915050565b634e487b7160e01b600052602160045260246000fd5b6002811061277257634e487b7160e01b600052602160045260246000fd5b6150f5816150ce565b9052565b8c81526001600160a01b038c811660208301528b81166040830152606082018b9052608082018a905260a0820189905260c08201889052861660e0820152610100810185905261012081018490526101808101615155846150ce565b83610140830152615165836150ce565b826101608301529d9c50505050505050505050505050565b60208152600061198c6020830184614dd1565b60008060008060008060c087890312156151a957600080fd5b86356151b4816149bd565b95506020878101356001600160401b03808211156151d157600080fd5b818a0191508a601f8301126151e557600080fd5b6151f38b8335858501614f35565b975060408a013591508082111561520957600080fd5b508801601f81018a1361521b57600080fd5b8035615229614eeb82614ea7565b81815260059190911b8201830190838101908c83111561524857600080fd5b928401925b8284101561526f578335615260816149bd565b8252928401929084019061524d565b8098505050505050615283606088016149d2565b92506080870135915061529860a088016149d2565b90509295509295509295565b600080600080600060a086880312156152bc57600080fd5b85356152c7816149bd565b945060208601356152d7816149bd565b9350604086013592506060860135915060808601356001600160401b0381111561530057600080fd5b61504c88828901614f8c565b634e487b7160e01b600052601160045260246000fd5b600082198211156153355761533561530c565b500190565b60008282101561534c5761534c61530c565b500390565b81518152602080830151610180830191615375908401826001600160a01b03169052565b50604083015161539060408401826001600160a01b03169052565b50606083015160608301526080830151608083015260a083015160a083015260c083015160c083015260e08301516153d360e08401826001600160a01b03169052565b5061010083810151908301526101208084015190830152610140808401516153fd828501826150ec565b505061016080840151615412828501826150ec565b505092915050565b602080825260039082015262444e4560e81b604082015260600190565b60208082526006908201526510a7aba722a960d11b604082015260600190565b60008160001904831182151516156154715761547161530c565b500290565b600181811c9082168061548a57607f821691505b6020821081036154aa57634e487b7160e01b600052602260045260246000fd5b50919050565b601f821115610e6157600081815260208120601f850160051c810160208610156154d75750805b601f850160051c820191505b818110156154f6578281556001016154e3565b505050505050565b6001600160401b0383111561551557615515614adc565b615529836155238354615476565b836154b0565b6000601f84116001811461555d57600085156155455750838201355b600019600387901b1c1916600186901b178355611258565b600083815260209020601f19861690835b8281101561558e578685013582556020948501946001909201910161556e565b50868210156155ab5760001960f88860031b161c19848701351681555b505060018560011b0183555050505050565b634e487b7160e01b600052603260045260246000fd5b6000808335601e198436030181126155ea57600080fd5b8301803591506001600160401b0382111561560457600080fd5b602001915036819003821315614a1e57600080fd5b60006001820161562b5761562b61530c565b5060010190565b81516001600160401b0381111561564b5761564b614adc565b61565f816156598454615476565b846154b0565b602080601f831160018114615694576000841561567c5750858301515b600019600386901b1c1916600185901b1785556154f6565b600085815260208120601f198616915b828110156156c3578886015182559484019460019091019084016156a4565b50858210156156e15787850151600019600388901b60f8161c191681555b5050505050600190811b01905550565b60006020828403121561570357600080fd5b8151801515811461198c57600080fd5b60006020828403121561572557600080fd5b5051919050565b60006020828403121561573e57600080fd5b815161198c816149bd565b6000825161575b818460208701614da5565b9190910192915050565b6020808252602b908201527f496e697469616c697a61626c653a20636f6e7472616374206973206e6f74206960408201526a6e697469616c697a696e6760a81b606082015260800190565b7f416363657373436f6e74726f6c3a206163636f756e74200000000000000000008152600083516157e8816017850160208801614da5565b7001034b99036b4b9b9b4b733903937b6329607d1b6017918401918201528351615819816028840160208801614da5565b01602801949350505050565b60008261584257634e487b7160e01b600052601260045260246000fd5b500490565b6000806040838503121561585a57600080fd5b8251615865816149bd565b6020939093015192949293505050565b6000816158845761588461530c565b506000190190565b634e487b7160e01b600052603160045260246000fdfe416464726573733a206c6f772d6c6576656c2064656c65676174652063616c6c206661696c6564a2646970667358221220c66dfb10be39c8d1d8112251f2bea23d25ed44a661c2bf2fce3fded9ff18e03a64736f6c634300080f0033416464726573733a206c6f772d6c6576656c2064656c65676174652063616c6c206661696c6564a2646970667358221220b83fef4fb94bf53ce9e7a4399ea896978c45fa9f2ed805c20862dd7bcabc9fec64736f6c634300080f0033",
    "linkReferences": {}
  },
  "methodIdentifiers": {
    "CONTRACT_URL()": "2e58853d",
    "DEFAULT_ADMIN_ROLE()": "a217fddf",
    "NATIVE_TOKEN()": "31f7d964",
    "boomER721Token()": "e3182d1a",
    "boomERC20Token()": "a3c93bf8",
    "contractType()": "cb2ef6f7",
    "contractURI()": "e8a3d485",
    "contractVersion()": "a0a8e460",
    "deployBoom721Token(string,string)": "6563d71e",
    "deployBoomERC20Token(string,string)": "07671c74",
    "deployMarketplace()": "88cd399a",
    "getRoleAdmin(bytes32)": "248a9ca3",
    "getRoleMember(bytes32,uint256)": "9010d07c",
    "getRoleMemberCount(bytes32)": "ca15c873",
    "grantRole(bytes32,address)": "2f2ff15d",
    "hasRole(bytes32,address)": "91d14854",
    "initialize(address,string,address[],address,address,uint128,uint128,address,address)": "88ea8960",
    "marketplace()": "abc8c7af",
    "multicall(bytes[])": "ac9650d8",
    "owner()": "8da5cb5b",
    "platformFeeBps()": "22dcd13e",
    "platformFeeRecipient()": "eb13554f",
    "primarySaleRecipient()": "079fe40e",
    "renounceRole(bytes32,address)": "36568abe",
    "revokeRole(bytes32,address)": "d547741f",
    "setContractURI(string)": "938e3d7b",
    "supportsInterface(bytes4)": "01ffc9a7",
    "trustedForwarders(uint256)": "e085530d"
  },
  "id": 53
}