{
  "abi": [
    {
      "anonymous": false,
      "inputs": [
        {
          "indexed": false,
          "internalType": "uint256",
          "name": "timeBuffer",
          "type": "uint256"
        },
        {
          "indexed": false,
          "internalType": "uint256",
          "name": "bidBufferBps",
          "type": "uint256"
        }
      ],
      "name": "AuctionBuffersUpdated",
      "type": "event"
    },
    {
      "anonymous": false,
      "inputs": [
        {
          "indexed": true,
          "internalType": "uint256",
          "name": "listingId",
          "type": "uint256"
        },
        {
          "indexed": true,
          "internalType": "address",
          "name": "closer",
          "type": "address"
        },
        {
          "indexed": true,
          "internalType": "bool",
          "name": "cancelled",
          "type": "bool"
        },
        {
          "indexed": false,
          "internalType": "address",
          "name": "auctionCreator",
          "type": "address"
        },
        {
          "indexed": false,
          "internalType": "address",
          "name": "winningBidder",
          "type": "address"
        }
      ],
      "name": "AuctionClosed",
      "type": "event"
    },
    {
      "anonymous": false,
      "inputs": [
        {
          "indexed": false,
          "internalType": "uint8",
          "name": "version",
          "type": "uint8"
        }
      ],
      "name": "Initialized",
      "type": "event"
    },
    {
      "anonymous": false,
      "inputs": [
        {
          "indexed": true,
          "internalType": "uint256",
          "name": "listingId",
          "type": "uint256"
        },
        {
          "indexed": true,
          "internalType": "address",
          "name": "assetContract",
          "type": "address"
        },
        {
          "indexed": true,
          "internalType": "address",
          "name": "lister",
          "type": "address"
        },
        {
          "components": [
            {
              "internalType": "uint256",
              "name": "listingId",
              "type": "uint256"
            },
            {
              "internalType": "address",
              "name": "tokenOwner",
              "type": "address"
            },
            {
              "internalType": "address",
              "name": "assetContract",
              "type": "address"
            },
            {
              "internalType": "uint256",
              "name": "tokenId",
              "type": "uint256"
            },
            {
              "internalType": "uint256",
              "name": "startTime",
              "type": "uint256"
            },
            {
              "internalType": "uint256",
              "name": "endTime",
              "type": "uint256"
            },
            {
              "internalType": "uint256",
              "name": "quantity",
              "type": "uint256"
            },
            {
              "internalType": "address",
              "name": "currency",
              "type": "address"
            },
            {
              "internalType": "uint256",
              "name": "reservePricePerToken",
              "type": "uint256"
            },
            {
              "internalType": "uint256",
              "name": "buyoutPricePerToken",
              "type": "uint256"
            },
            {
              "internalType": "enum IMarketplace.TokenType",
              "name": "tokenType",
              "type": "uint8"
            },
            {
              "internalType": "enum IMarketplace.ListingType",
              "name": "listingType",
              "type": "uint8"
            }
          ],
          "indexed": false,
          "internalType": "struct IMarketplace.Listing",
          "name": "listing",
          "type": "tuple"
        }
      ],
      "name": "ListingAdded",
      "type": "event"
    },
    {
      "anonymous": false,
      "inputs": [
        {
          "indexed": true,
          "internalType": "uint256",
          "name": "listingId",
          "type": "uint256"
        },
        {
          "indexed": true,
          "internalType": "address",
          "name": "listingCreator",
          "type": "address"
        }
      ],
      "name": "ListingRemoved",
      "type": "event"
    },
    {
      "anonymous": false,
      "inputs": [
        {
          "indexed": true,
          "internalType": "uint256",
          "name": "listingId",
          "type": "uint256"
        },
        {
          "indexed": true,
          "internalType": "address",
          "name": "listingCreator",
          "type": "address"
        }
      ],
      "name": "ListingUpdated",
      "type": "event"
    },
    {
      "anonymous": false,
      "inputs": [
        {
          "indexed": true,
          "internalType": "uint256",
          "name": "listingId",
          "type": "uint256"
        },
        {
          "indexed": true,
          "internalType": "address",
          "name": "offeror",
          "type": "address"
        },
        {
          "indexed": true,
          "internalType": "enum IMarketplace.ListingType",
          "name": "listingType",
          "type": "uint8"
        },
        {
          "indexed": false,
          "internalType": "uint256",
          "name": "quantityWanted",
          "type": "uint256"
        },
        {
          "indexed": false,
          "internalType": "uint256",
          "name": "totalOfferAmount",
          "type": "uint256"
        },
        {
          "indexed": false,
          "internalType": "address",
          "name": "currency",
          "type": "address"
        }
      ],
      "name": "NewOffer",
      "type": "event"
    },
    {
      "anonymous": false,
      "inputs": [
        {
          "indexed": true,
          "internalType": "uint256",
          "name": "listingId",
          "type": "uint256"
        },
        {
          "indexed": true,
          "internalType": "address",
          "name": "assetContract",
          "type": "address"
        },
        {
          "indexed": true,
          "internalType": "address",
          "name": "lister",
          "type": "address"
        },
        {
          "indexed": false,
          "internalType": "address",
          "name": "buyer",
          "type": "address"
        },
        {
          "indexed": false,
          "internalType": "uint256",
          "name": "quantityBought",
          "type": "uint256"
        },
        {
          "indexed": false,
          "internalType": "uint256",
          "name": "totalPricePaid",
          "type": "uint256"
        }
      ],
      "name": "NewSale",
      "type": "event"
    },
    {
      "anonymous": false,
      "inputs": [
        {
          "indexed": true,
          "internalType": "address",
          "name": "platformFeeRecipient",
          "type": "address"
        },
        {
          "indexed": false,
          "internalType": "uint256",
          "name": "platformFeeBps",
          "type": "uint256"
        }
      ],
      "name": "PlatformFeeInfoUpdated",
      "type": "event"
    },
    {
      "anonymous": false,
      "inputs": [
        {
          "indexed": true,
          "internalType": "bytes32",
          "name": "role",
          "type": "bytes32"
        },
        {
          "indexed": true,
          "internalType": "bytes32",
          "name": "previousAdminRole",
          "type": "bytes32"
        },
        {
          "indexed": true,
          "internalType": "bytes32",
          "name": "newAdminRole",
          "type": "bytes32"
        }
      ],
      "name": "RoleAdminChanged",
      "type": "event"
    },
    {
      "anonymous": false,
      "inputs": [
        {
          "indexed": true,
          "internalType": "bytes32",
          "name": "role",
          "type": "bytes32"
        },
        {
          "indexed": true,
          "internalType": "address",
          "name": "account",
          "type": "address"
        },
        {
          "indexed": true,
          "internalType": "address",
          "name": "sender",
          "type": "address"
        }
      ],
      "name": "RoleGranted",
      "type": "event"
    },
    {
      "anonymous": false,
      "inputs": [
        {
          "indexed": true,
          "internalType": "bytes32",
          "name": "role",
          "type": "bytes32"
        },
        {
          "indexed": true,
          "internalType": "address",
          "name": "account",
          "type": "address"
        },
        {
          "indexed": true,
          "internalType": "address",
          "name": "sender",
          "type": "address"
        }
      ],
      "name": "RoleRevoked",
      "type": "event"
    },
    {
      "inputs": [],
      "name": "DEFAULT_ADMIN_ROLE",
      "outputs": [
        {
          "internalType": "bytes32",
          "name": "",
          "type": "bytes32"
        }
      ],
      "stateMutability": "view",
      "type": "function"
    },
    {
      "inputs": [],
      "name": "MAX_BPS",
      "outputs": [
        {
          "internalType": "uint64",
          "name": "",
          "type": "uint64"
        }
      ],
      "stateMutability": "view",
      "type": "function"
    },
    {
      "inputs": [
        {
          "internalType": "uint256",
          "name": "_listingId",
          "type": "uint256"
        },
        {
          "internalType": "address",
          "name": "_offeror",
          "type": "address"
        },
        {
          "internalType": "address",
          "name": "_currency",
          "type": "address"
        },
        {
          "internalType": "uint256",
          "name": "_pricePerToken",
          "type": "uint256"
        }
      ],
      "name": "acceptOffer",
      "outputs": [],
      "stateMutability": "nonpayable",
      "type": "function"
    },
    {
      "inputs": [],
      "name": "bidBufferBps",
      "outputs": [
        {
          "internalType": "uint64",
          "name": "",
          "type": "uint64"
        }
      ],
      "stateMutability": "view",
      "type": "function"
    },
    {
      "inputs": [
        {
          "internalType": "uint256",
          "name": "_listingId",
          "type": "uint256"
        },
        {
          "internalType": "address",
          "name": "_buyFor",
          "type": "address"
        },
        {
          "internalType": "uint256",
          "name": "_quantityToBuy",
          "type": "uint256"
        },
        {
          "internalType": "address",
          "name": "_currency",
          "type": "address"
        },
        {
          "internalType": "uint256",
          "name": "_totalPrice",
          "type": "uint256"
        }
      ],
      "name": "buy",
      "outputs": [],
      "stateMutability": "payable",
      "type": "function"
    },
    {
      "inputs": [
        {
          "internalType": "uint256",
          "name": "_listingId",
          "type": "uint256"
        }
      ],
      "name": "cancelDirectListing",
      "outputs": [],
      "stateMutability": "nonpayable",
      "type": "function"
    },
    {
      "inputs": [
        {
          "internalType": "uint256",
          "name": "_listingId",
          "type": "uint256"
        },
        {
          "internalType": "address",
          "name": "_closeFor",
          "type": "address"
        }
      ],
      "name": "closeAuction",
      "outputs": [],
      "stateMutability": "nonpayable",
      "type": "function"
    },
    {
      "inputs": [],
      "name": "contractType",
      "outputs": [
        {
          "internalType": "bytes32",
          "name": "",
          "type": "bytes32"
        }
      ],
      "stateMutability": "pure",
      "type": "function"
    },
    {
      "inputs": [],
      "name": "contractURI",
      "outputs": [
        {
          "internalType": "string",
          "name": "",
          "type": "string"
        }
      ],
      "stateMutability": "view",
      "type": "function"
    },
    {
      "inputs": [],
      "name": "contractVersion",
      "outputs": [
        {
          "internalType": "uint8",
          "name": "",
          "type": "uint8"
        }
      ],
      "stateMutability": "pure",
      "type": "function"
    },
    {
      "inputs": [
        {
          "components": [
            {
              "internalType": "address",
              "name": "assetContract",
              "type": "address"
            },
            {
              "internalType": "uint256",
              "name": "tokenId",
              "type": "uint256"
            },
            {
              "internalType": "uint256",
              "name": "startTime",
              "type": "uint256"
            },
            {
              "internalType": "uint256",
              "name": "secondsUntilEndTime",
              "type": "uint256"
            },
            {
              "internalType": "uint256",
              "name": "quantityToList",
              "type": "uint256"
            },
            {
              "internalType": "address",
              "name": "currencyToAccept",
              "type": "address"
            },
            {
              "internalType": "uint256",
              "name": "reservePricePerToken",
              "type": "uint256"
            },
            {
              "internalType": "uint256",
              "name": "buyoutPricePerToken",
              "type": "uint256"
            },
            {
              "internalType": "enum IMarketplace.ListingType",
              "name": "listingType",
              "type": "uint8"
            }
          ],
          "internalType": "struct IMarketplace.ListingParameters",
          "name": "_params",
          "type": "tuple"
        }
      ],
      "name": "createListing",
      "outputs": [],
      "stateMutability": "nonpayable",
      "type": "function"
    },
    {
      "inputs": [],
      "name": "getPlatformFeeInfo",
      "outputs": [
        {
          "internalType": "address",
          "name": "",
          "type": "address"
        },
        {
          "internalType": "uint16",
          "name": "",
          "type": "uint16"
        }
      ],
      "stateMutability": "view",
      "type": "function"
    },
    {
      "inputs": [
        {
          "internalType": "bytes32",
          "name": "role",
          "type": "bytes32"
        }
      ],
      "name": "getRoleAdmin",
      "outputs": [
        {
          "internalType": "bytes32",
          "name": "",
          "type": "bytes32"
        }
      ],
      "stateMutability": "view",
      "type": "function"
    },
    {
      "inputs": [
        {
          "internalType": "bytes32",
          "name": "role",
          "type": "bytes32"
        },
        {
          "internalType": "uint256",
          "name": "index",
          "type": "uint256"
        }
      ],
      "name": "getRoleMember",
      "outputs": [
        {
          "internalType": "address",
          "name": "",
          "type": "address"
        }
      ],
      "stateMutability": "view",
      "type": "function"
    },
    {
      "inputs": [
        {
          "internalType": "bytes32",
          "name": "role",
          "type": "bytes32"
        }
      ],
      "name": "getRoleMemberCount",
      "outputs": [
        {
          "internalType": "uint256",
          "name": "",
          "type": "uint256"
        }
      ],
      "stateMutability": "view",
      "type": "function"
    },
    {
      "inputs": [
        {
          "internalType": "bytes32",
          "name": "role",
          "type": "bytes32"
        },
        {
          "internalType": "address",
          "name": "account",
          "type": "address"
        }
      ],
      "name": "grantRole",
      "outputs": [],
      "stateMutability": "nonpayable",
      "type": "function"
    },
    {
      "inputs": [
        {
          "internalType": "bytes32",
          "name": "role",
          "type": "bytes32"
        },
        {
          "internalType": "address",
          "name": "account",
          "type": "address"
        }
      ],
      "name": "hasRole",
      "outputs": [
        {
          "internalType": "bool",
          "name": "",
          "type": "bool"
        }
      ],
      "stateMutability": "view",
      "type": "function"
    },
    {
      "inputs": [
        {
          "internalType": "address",
          "name": "_defaultAdmin",
          "type": "address"
        },
        {
          "internalType": "string",
          "name": "_contractURI",
          "type": "string"
        },
        {
          "internalType": "address[]",
          "name": "_trustedForwarders",
          "type": "address[]"
        },
        {
          "internalType": "address",
          "name": "_platformFeeRecipient",
          "type": "address"
        },
        {
          "internalType": "uint256",
          "name": "_platformFeeBps",
          "type": "uint256"
        },
        {
          "internalType": "address",
          "name": "_nativeTokenWrapper",
          "type": "address"
        }
      ],
      "name": "initialize",
      "outputs": [],
      "stateMutability": "nonpayable",
      "type": "function"
    },
    {
      "inputs": [
        {
          "internalType": "address",
          "name": "forwarder",
          "type": "address"
        }
      ],
      "name": "isTrustedForwarder",
      "outputs": [
        {
          "internalType": "bool",
          "name": "",
          "type": "bool"
        }
      ],
      "stateMutability": "view",
      "type": "function"
    },
    {
      "inputs": [
        {
          "internalType": "uint256",
          "name": "",
          "type": "uint256"
        }
      ],
      "name": "listings",
      "outputs": [
        {
          "internalType": "uint256",
          "name": "listingId",
          "type": "uint256"
        },
        {
          "internalType": "address",
          "name": "tokenOwner",
          "type": "address"
        },
        {
          "internalType": "address",
          "name": "assetContract",
          "type": "address"
        },
        {
          "internalType": "uint256",
          "name": "tokenId",
          "type": "uint256"
        },
        {
          "internalType": "uint256",
          "name": "startTime",
          "type": "uint256"
        },
        {
          "internalType": "uint256",
          "name": "endTime",
          "type": "uint256"
        },
        {
          "internalType": "uint256",
          "name": "quantity",
          "type": "uint256"
        },
        {
          "internalType": "address",
          "name": "currency",
          "type": "address"
        },
        {
          "internalType": "uint256",
          "name": "reservePricePerToken",
          "type": "uint256"
        },
        {
          "internalType": "uint256",
          "name": "buyoutPricePerToken",
          "type": "uint256"
        },
        {
          "internalType": "enum IMarketplace.TokenType",
          "name": "tokenType",
          "type": "uint8"
        },
        {
          "internalType": "enum IMarketplace.ListingType",
          "name": "listingType",
          "type": "uint8"
        }
      ],
      "stateMutability": "view",
      "type": "function"
    },
    {
      "inputs": [
        {
          "internalType": "bytes[]",
          "name": "data",
          "type": "bytes[]"
        }
      ],
      "name": "multicall",
      "outputs": [
        {
          "internalType": "bytes[]",
          "name": "results",
          "type": "bytes[]"
        }
      ],
      "stateMutability": "nonpayable",
      "type": "function"
    },
    {
      "inputs": [
        {
          "internalType": "uint256",
          "name": "_listingId",
          "type": "uint256"
        },
        {
          "internalType": "uint256",
          "name": "_quantityWanted",
          "type": "uint256"
        },
        {
          "internalType": "address",
          "name": "_currency",
          "type": "address"
        },
        {
          "internalType": "uint256",
          "name": "_pricePerToken",
          "type": "uint256"
        },
        {
          "internalType": "uint256",
          "name": "_expirationTimestamp",
          "type": "uint256"
        }
      ],
      "name": "offer",
      "outputs": [],
      "stateMutability": "payable",
      "type": "function"
    },
    {
      "inputs": [
        {
          "internalType": "uint256",
          "name": "",
          "type": "uint256"
        },
        {
          "internalType": "address",
          "name": "",
          "type": "address"
        }
      ],
      "name": "offers",
      "outputs": [
        {
          "internalType": "uint256",
          "name": "listingId",
          "type": "uint256"
        },
        {
          "internalType": "address",
          "name": "offeror",
          "type": "address"
        },
        {
          "internalType": "uint256",
          "name": "quantityWanted",
          "type": "uint256"
        },
        {
          "internalType": "address",
          "name": "currency",
          "type": "address"
        },
        {
          "internalType": "uint256",
          "name": "pricePerToken",
          "type": "uint256"
        },
        {
          "internalType": "uint256",
          "name": "expirationTimestamp",
          "type": "uint256"
        }
      ],
      "stateMutability": "view",
      "type": "function"
    },
    {
      "inputs": [
        {
          "internalType": "address",
          "name": "",
          "type": "address"
        },
        {
          "internalType": "address",
          "name": "",
          "type": "address"
        },
        {
          "internalType": "uint256[]",
          "name": "",
          "type": "uint256[]"
        },
        {
          "internalType": "uint256[]",
          "name": "",
          "type": "uint256[]"
        },
        {
          "internalType": "bytes",
          "name": "",
          "type": "bytes"
        }
      ],
      "name": "onERC1155BatchReceived",
      "outputs": [
        {
          "internalType": "bytes4",
          "name": "",
          "type": "bytes4"
        }
      ],
      "stateMutability": "nonpayable",
      "type": "function"
    },
    {
      "inputs": [
        {
          "internalType": "address",
          "name": "",
          "type": "address"
        },
        {
          "internalType": "address",
          "name": "",
          "type": "address"
        },
        {
          "internalType": "uint256",
          "name": "",
          "type": "uint256"
        },
        {
          "internalType": "uint256",
          "name": "",
          "type": "uint256"
        },
        {
          "internalType": "bytes",
          "name": "",
          "type": "bytes"
        }
      ],
      "name": "onERC1155Received",
      "outputs": [
        {
          "internalType": "bytes4",
          "name": "",
          "type": "bytes4"
        }
      ],
      "stateMutability": "nonpayable",
      "type": "function"
    },
    {
      "inputs": [
        {
          "internalType": "address",
          "name": "",
          "type": "address"
        },
        {
          "internalType": "address",
          "name": "",
          "type": "address"
        },
        {
          "internalType": "uint256",
          "name": "",
          "type": "uint256"
        },
        {
          "internalType": "bytes",
          "name": "",
          "type": "bytes"
        }
      ],
      "name": "onERC721Received",
      "outputs": [
        {
          "internalType": "bytes4",
          "name": "",
          "type": "bytes4"
        }
      ],
      "stateMutability": "pure",
      "type": "function"
    },
    {
      "inputs": [
        {
          "internalType": "bytes32",
          "name": "role",
          "type": "bytes32"
        },
        {
          "internalType": "address",
          "name": "account",
          "type": "address"
        }
      ],
      "name": "renounceRole",
      "outputs": [],
      "stateMutability": "nonpayable",
      "type": "function"
    },
    {
      "inputs": [
        {
          "internalType": "bytes32",
          "name": "role",
          "type": "bytes32"
        },
        {
          "internalType": "address",
          "name": "account",
          "type": "address"
        }
      ],
      "name": "revokeRole",
      "outputs": [],
      "stateMutability": "nonpayable",
      "type": "function"
    },
    {
      "inputs": [
        {
          "internalType": "uint256",
          "name": "_timeBuffer",
          "type": "uint256"
        },
        {
          "internalType": "uint256",
          "name": "_bidBufferBps",
          "type": "uint256"
        }
      ],
      "name": "setAuctionBuffers",
      "outputs": [],
      "stateMutability": "nonpayable",
      "type": "function"
    },
    {
      "inputs": [
        {
          "internalType": "string",
          "name": "_uri",
          "type": "string"
        }
      ],
      "name": "setContractURI",
      "outputs": [],
      "stateMutability": "nonpayable",
      "type": "function"
    },
    {
      "inputs": [
        {
          "internalType": "address",
          "name": "_platformFeeRecipient",
          "type": "address"
        },
        {
          "internalType": "uint256",
          "name": "_platformFeeBps",
          "type": "uint256"
        }
      ],
      "name": "setPlatformFeeInfo",
      "outputs": [],
      "stateMutability": "nonpayable",
      "type": "function"
    },
    {
      "inputs": [
        {
          "internalType": "bytes4",
          "name": "interfaceId",
          "type": "bytes4"
        }
      ],
      "name": "supportsInterface",
      "outputs": [
        {
          "internalType": "bool",
          "name": "",
          "type": "bool"
        }
      ],
      "stateMutability": "view",
      "type": "function"
    },
    {
      "inputs": [],
      "name": "timeBuffer",
      "outputs": [
        {
          "internalType": "uint64",
          "name": "",
          "type": "uint64"
        }
      ],
      "stateMutability": "view",
      "type": "function"
    },
    {
      "inputs": [],
      "name": "totalListings",
      "outputs": [
        {
          "internalType": "uint256",
          "name": "",
          "type": "uint256"
        }
      ],
      "stateMutability": "view",
      "type": "function"
    },
    {
      "inputs": [
        {
          "internalType": "uint256",
          "name": "_listingId",
          "type": "uint256"
        },
        {
          "internalType": "uint256",
          "name": "_quantityToList",
          "type": "uint256"
        },
        {
          "internalType": "uint256",
          "name": "_reservePricePerToken",
          "type": "uint256"
        },
        {
          "internalType": "uint256",
          "name": "_buyoutPricePerToken",
          "type": "uint256"
        },
        {
          "internalType": "address",
          "name": "_currencyToAccept",
          "type": "address"
        },
        {
          "internalType": "uint256",
          "name": "_startTime",
          "type": "uint256"
        },
        {
          "internalType": "uint256",
          "name": "_secondsUntilEndTime",
          "type": "uint256"
        }
      ],
      "name": "updateListing",
      "outputs": [],
      "stateMutability": "nonpayable",
      "type": "function"
    },
    {
      "inputs": [
        {
          "internalType": "uint256",
          "name": "",
          "type": "uint256"
        }
      ],
      "name": "winningBid",
      "outputs": [
        {
          "internalType": "uint256",
          "name": "listingId",
          "type": "uint256"
        },
        {
          "internalType": "address",
          "name": "offeror",
          "type": "address"
        },
        {
          "internalType": "uint256",
          "name": "quantityWanted",
          "type": "uint256"
        },
        {
          "internalType": "address",
          "name": "currency",
          "type": "address"
        },
        {
          "internalType": "uint256",
          "name": "pricePerToken",
          "type": "uint256"
        },
        {
          "internalType": "uint256",
          "name": "expirationTimestamp",
          "type": "uint256"
        }
      ],
      "stateMutability": "view",
      "type": "function"
    },
    {
      "stateMutability": "payable",
      "type": "receive"
    }
  ],
  "bytecode": {
    "object": "0x608060405234801561001057600080fd5b506158ff80620000216000396000f3fe6080604052600436106102135760003560e01c8063ac9650d811610118578063d547741f116100a0578063ebdfbce51161006f578063ebdfbce5146107a9578063ec91f2a414610811578063efd14db514610832578063f23a6e6114610852578063fd967f471461087e57600080fd5b8063d547741f146106a0578063de74e57b146106c0578063e8a3d48514610767578063ea0e02411461078957600080fd5b8063c78b616c116100e7578063c78b616c1461057a578063ca15c87314610591578063cb2ef6f7146105b1578063d45573f6146105d2578063d4ac9b8c1461060a57600080fd5b8063ac9650d8146104e1578063b13c0e631461050e578063bc197c811461052e578063c4b5b15f1461055a57600080fd5b80635fef45e71161019b5780639010d07c1161016a5780639010d07c1461043857806391d1485414610470578063938e3d7b14610490578063a0a8e460146104b0578063a217fddf146104cc57600080fd5b80635fef45e7146103d25780636bab66ae146103e55780637506c84a146104055780637687ab021461042557600080fd5b8063296f4e16116101e2578063296f4e16146102f95780632f2ff15d1461031957806336568abe146103395780634e03f28d14610359578063572b6c051461039957600080fd5b806301ffc9a71461021f578063150b7a02146102545780631e7ac48814610299578063248a9ca3146102bb57600080fd5b3661021a57005b600080fd5b34801561022b57600080fd5b5061023f61023a366004614993565b610894565b60405190151581526020015b60405180910390f35b34801561026057600080fd5b5061028061026f366004614a25565b630a85bd0160e11b95945050505050565b6040516001600160e01b0319909116815260200161024b565b3480156102a557600080fd5b506102b96102b4366004614a97565b6108da565b005b3480156102c757600080fd5b506102eb6102d6366004614ac3565b600090815260fb602052604090206001015490565b60405190815260200161024b565b34801561030557600080fd5b506102b9610314366004614b5a565b61099e565b34801561032557600080fd5b506102b9610334366004614be6565b610e3c565b34801561034557600080fd5b506102b9610354366004614be6565b610e66565b34801561036557600080fd5b506101635461038190600160401b90046001600160401b031681565b6040516001600160401b03909116815260200161024b565b3480156103a557600080fd5b5061023f6103b4366004614c16565b6001600160a01b031660009081526065602052604090205460ff1690565b6102b96103e0366004614c33565b610ef4565b3480156103f157600080fd5b506102b9610400366004614be6565b61125f565b34801561041157600080fd5b506102b9610420366004614ac3565b611554565b6102b9610433366004614c7c565b61179b565b34801561044457600080fd5b50610458610453366004614cce565b611973565b6040516001600160a01b03909116815260200161024b565b34801561047c57600080fd5b5061023f61048b366004614be6565b611993565b34801561049c57600080fd5b506102b96104ab366004614cf0565b6119be565b3480156104bc57600080fd5b506040516001815260200161024b565b3480156104d857600080fd5b506102eb600081565b3480156104ed57600080fd5b506105016104fc366004614d31565b6119dd565b60405161024b9190614dfd565b34801561051a57600080fd5b506102b9610529366004614e5f565b611ad1565b34801561053a57600080fd5b50610280610549366004614fac565b63bc197c8160e01b95945050505050565b34801561056657600080fd5b506102b9610575366004615059565b611ebd565b34801561058657600080fd5b506102eb6101605481565b34801561059d57600080fd5b506102eb6105ac366004614ac3565b6123b5565b3480156105bd57600080fd5b506a4d61726b6574706c61636560a81b6102eb565b3480156105de57600080fd5b5061016254604080516001600160a01b0383168152600160a01b90920461ffff1660208301520161024b565b34801561061657600080fd5b50610667610625366004614ac3565b6101666020526000908152604090208054600182015460028301546003840154600485015460059095015493946001600160a01b039384169492939091169186565b604080519687526001600160a01b03958616602088015286019390935292166060840152608083019190915260a082015260c00161024b565b3480156106ac57600080fd5b506102b96106bb366004614be6565b6123cd565b3480156106cc57600080fd5b5061074f6106db366004614ac3565b61016460205260009081526040902080546001820154600283015460038401546004850154600586015460068701546007880154600889015460098a0154600a909a015498996001600160a01b03988916999789169896979596949593949092169290919060ff808216916101009004168c565b60405161024b9c9b9a999897969594939291906150f9565b34801561077357600080fd5b5061077c6123f2565b60405161024b919061517d565b34801561079557600080fd5b506102b96107a4366004614cce565b612481565b3480156107b557600080fd5b506106676107c4366004614be6565b61016560209081526000928352604080842090915290825290208054600182015460028301546003840154600485015460059095015493946001600160a01b039384169492939091169186565b34801561081d57600080fd5b5061016354610381906001600160401b031681565b34801561083e57600080fd5b506102b961084d366004615190565b61253d565b34801561085e57600080fd5b5061028061086d3660046152a4565b63f23a6e6160e01b95945050505050565b34801561088a57600080fd5b5061038161271081565b60006001600160e01b03198216630271189760e51b14806108c557506001600160e01b03198216630a85bd0160e11b145b806108d457506108d48261273c565b92915050565b60006108e581612761565b61271082111561092c5760405162461bcd60e51b815260206004820152600d60248201526c313839901e1e9018981818181760991b60448201526064015b60405180910390fd5b61016280546001600160e01b031916600160a01b6001600160401b038516026001600160a01b031916176001600160a01b0385169081179091556040518381527fe2497bd806ec41a6e0dd992c29a72efc0ef8fec9092d1978fd4a1e00b2f183049060200160405180910390a2505050565b61016080549060019060006109b38385615322565b90915550600090506109c3612775565b905060006109d48460000151612784565b905060006109e68286608001516128cc565b905060008111610a235760405162461bcd60e51b81526020600482015260086024820152675155414e5449545960c01b6044820152606401610923565b610a4e7ff94103142c1baabe9ac2b5d1487bf783de9e69cfeea9a72f5c9c94afd7877b8c6000611993565b80610a805750610a807ff94103142c1baabe9ac2b5d1487bf783de9e69cfeea9a72f5c9c94afd7877b8c61048b612775565b610ab65760405162461bcd60e51b815260206004820152600760248201526610a624a9aa22a960c91b6044820152606401610923565b610ae17f86d5cf0a6bdc8d859ba3bdc97043337c82a0e609035f378e419298b6a3e00ae66000611993565b80610b155750610b157f86d5cf0a6bdc8d859ba3bdc97043337c82a0e609035f378e419298b6a3e00ae68660000151611993565b610b4a5760405162461bcd60e51b8152602060048201526006602482015265085054d4d15560d21b6044820152606401610923565b604085015142811015610b9957610e10610b64824261533a565b10610b965760405162461bcd60e51b815260206004820152600260248201526114d560f21b6044820152606401610923565b50425b610bae84876000015188602001518587612906565b6000604051806101800160405280878152602001866001600160a01b0316815260200188600001516001600160a01b0316815260200188602001518152602001838152602001886060015184610c049190615322565b81526020018481526020018860a001516001600160a01b031681526020018860c0015181526020018860e001518152602001856001811115610c4857610c486150b8565b81526020018861010001516001811115610c6457610c646150b8565b9052600087815261016460209081526040918290208351815590830151600180830180546001600160a01b03199081166001600160a01b0394851617909155938501516002840180548616918416919091179055606085015160038401556080850151600484015560a0850151600584015560c0850151600684015560e085015160078401805490951692169190911790925561010083015160088201556101208301516009820155610140830151600a82018054949550859492939192909160ff19909116908381811115610d3c57610d3c6150b8565b0217905550610160820151600a8201805461ff001916610100836001811115610d6757610d676150b8565b021790555060019150610d779050565b8161016001516001811115610d8e57610d8e6150b8565b03610de3578061010001518161012001511015610dd75760405162461bcd60e51b81526020600482015260076024820152665245534552564560c81b6044820152606401610923565b610de385308584612bd7565b846001600160a01b031687600001516001600160a01b0316877f0c5bc74ccdf848b38eb526a154b85085e1d61addf1d100cba2074e039c0b634084604051610e2b9190615351565b60405180910390a450505050505050565b600082815260fb6020526040902060010154610e5781612761565b610e618383612d2b565b505050565b610e6e612775565b6001600160a01b0316816001600160a01b031614610ee65760405162461bcd60e51b815260206004820152602f60248201527f416363657373436f6e74726f6c3a2063616e206f6e6c792072656e6f756e636560448201526e103937b632b9903337b91039b2b63360891b6064820152608401610923565b610ef08282612d4e565b5050565b610efc612d71565b6000858152610164602052604090206002015485906001600160a01b0316610f365760405162461bcd60e51b81526004016109239061541a565b600086815261016460209081526040808320815161018081018352815481526001808301546001600160a01b039081169583019590955260028301548516938201939093526003820154606082015260048201546080820152600582015460a0820152600682015460c0820152600782015490931660e084015260088101546101008401526009810154610120840152600a810154909161014084019160ff1690811115610fe657610fe66150b8565b6001811115610ff757610ff76150b8565b8152602001600a820160019054906101000a900460ff16600181111561101f5761101f6150b8565b6001811115611030576110306150b8565b815250509050428160a0015111801561104c5750428160800151105b61108c5760405162461bcd60e51b815260206004820152601160248201527034b730b1ba34bb32903634b9ba34b7339760791b6044820152606401610923565b60006040518060c001604052808981526020016110a7612775565b6001600160a01b039081168252602082018a905288166040820152606081018790526080018590529050600182610160015160018111156110ea576110ea6150b8565b03611189578160e001516001600160a01b031681606001516001600160a01b0316146111625760405162461bcd60e51b815260206004820152602160248201527f6d7573742075736520617070726f7665642063757272656e637920746f2062696044820152601960fa1b6064820152608401610923565b6111758261014001518360c001516128cc565b60408201526111848282612dca565b61124c565b600082610160015160018111156111a2576111a26150b8565b0361124c5734156111e75760405162461bcd60e51b815260206004820152600f60248201526e1b9bc81d985b1d59481b9959591959608a1b6044820152606401610923565b6001600160a01b03861673eeeeeeeeeeeeeeeeeeeeeeeeeeeeeeeeeeeeeeee14611211578561121f565b61015f546001600160a01b03165b6001600160a01b0316606082015261014082015161123d90886128cc565b604082015261124c82826131a4565b50505061125860018055565b5050505050565b611267612d71565b6000828152610164602052604090206002015482906001600160a01b03166112a15760405162461bcd60e51b81526004016109239061541a565b600083815261016460209081526040808320815161018081018352815481526001808301546001600160a01b039081169583019590955260028301548516938201939093526003820154606082015260048201546080820152600582015460a0820152600682015460c0820152600782015490931660e084015260088101546101008401526009810154610120840152600a810154909161014084019160ff1690811115611351576113516150b8565b6001811115611362576113626150b8565b8152602001600a820160019054906101000a900460ff16600181111561138a5761138a6150b8565b600181111561139b5761139b6150b8565b9052509050600181610160015160018111156113b9576113b96150b8565b146113f85760405162461bcd60e51b815260206004820152600f60248201526e3737ba1030b71030bab1ba34b7b71760891b6044820152606401610923565b600084815261016660209081526040808320815160c0810183528154815260018201546001600160a01b039081169482019490945260028201549281019290925260038101549092166060820152600482015460808083019190915260059092015460a08201529083015190919042108061147e575060208201516001600160a01b0316155b905080156114945761148f8361334a565b611547565b428360a00151106114f95760405162461bcd60e51b815260206004820152602960248201527f63616e6e6f7420636c6f73652061756374696f6e206265666f7265206974206860448201526830b99032b73232b21760b91b6064820152608401610923565b82602001516001600160a01b0316856001600160a01b0316036115205761152083836134b6565b81602001516001600160a01b0316856001600160a01b0316036115475761154783836136db565b50505050610ef060018055565b8061155d612775565b600082815261016460205260409020600101546001600160a01b0390811691161461159a5760405162461bcd60e51b815260040161092390615437565b600082815261016460209081526040808320815161018081018352815481526001808301546001600160a01b039081169583019590955260028301548516938201939093526003820154606082015260048201546080820152600582015460a0820152600682015460c0820152600782015490931660e084015260088101546101008401526009810154610120840152600a810154909161014084019160ff169081111561164a5761164a6150b8565b600181111561165b5761165b6150b8565b8152602001600a820160019054906101000a900460ff166001811115611683576116836150b8565b6001811115611694576116946150b8565b9052509050600081610160015160018111156116b2576116b26150b8565b146116e95760405162461bcd60e51b8152602060048201526007602482015266085112549150d560ca1b6044820152606401610923565b6000838152610164602090815260408083208381556001810180546001600160a01b0319908116909155600282018054821690556003820185905560048201859055600582018590556006820185905560078201805490911690556008810184905560098101849055600a01805461ffff191690559083015190516001600160a01b039091169185917f58b0852506006c4be6c7ae72afcd195d9e64d7f5d8947905e914b778e47b7cf39190a3505050565b6117a3612d71565b6000858152610164602052604090206002015485906001600160a01b03166117dd5760405162461bcd60e51b81526004016109239061541a565b600086815261016460209081526040808320815161018081018352815481526001808301546001600160a01b039081169583019590955260028301548516938201939093526003820154606082015260048201546080820152600582015460a0820152600682015460c0820152600782015490931660e084015260088101546101008401526009810154610120840152600a810154909161014084019160ff169081111561188d5761188d6150b8565b600181111561189e5761189e6150b8565b8152602001600a820160019054906101000a900460ff1660018111156118c6576118c66150b8565b60018111156118d7576118d76150b8565b905250905060006118e6612775565b90508160e001516001600160a01b0316856001600160a01b031614801561191c5750858261012001516119199190615457565b84145b6119515760405162461bcd60e51b815260206004820152600660248201526521505249434560d01b6044820152606401610923565b61124c8282898560e001518a87610120015161196d9190615457565b8b61385c565b600082815261012d6020526040812061198c90836139fb565b9392505050565b600091825260fb602090815260408084206001600160a01b0393909316845291905290205460ff1690565b60006119c981612761565b6101616119d78385836154fe565b50505050565b6060816001600160401b038111156119f7576119f7614adc565b604051908082528060200260200182016040528015611a2a57816020015b6060815260200190600190039081611a155790505b50905060005b82811015611aca57611a9a30858584818110611a4e57611a4e6155bd565b9050602002810190611a6091906155d3565b8080601f016020809104026020016040519081016040528093929190818152602001838380828437600092019190915250613a0792505050565b828281518110611aac57611aac6155bd565b60200260200101819052508080611ac290615619565b915050611a30565b5092915050565b611ad9612d71565b83611ae2612775565b600082815261016460205260409020600101546001600160a01b03908116911614611b1f5760405162461bcd60e51b815260040161092390615437565b6000858152610164602052604090206002015485906001600160a01b0316611b595760405162461bcd60e51b81526004016109239061541a565b600061016560008881526020019081526020016000206000876001600160a01b03166001600160a01b031681526020019081526020016000206040518060c0016040529081600082015481526020016001820160009054906101000a90046001600160a01b03166001600160a01b03166001600160a01b03168152602001600282015481526020016003820160009054906101000a90046001600160a01b03166001600160a01b03166001600160a01b031681526020016004820154815260200160058201548152505090506000610164600089815260200190815260200160002060405180610180016040529081600082015481526020016001820160009054906101000a90046001600160a01b03166001600160a01b03166001600160a01b031681526020016002820160009054906101000a90046001600160a01b03166001600160a01b03166001600160a01b03168152602001600382015481526020016004820154815260200160058201548152602001600682015481526020016007820160009054906101000a90046001600160a01b03166001600160a01b03166001600160a01b031681526020016008820154815260200160098201548152602001600a820160009054906101000a900460ff166001811115611d3e57611d3e6150b8565b6001811115611d4f57611d4f6150b8565b8152602001600a820160019054906101000a900460ff166001811115611d7757611d776150b8565b6001811115611d8857611d886150b8565b81525050905081606001516001600160a01b0316866001600160a01b0316148015611db65750816080015185145b611deb5760405162461bcd60e51b815260206004820152600660248201526521505249434560d01b6044820152606401610923565b428260a0015111611e285760405162461bcd60e51b81526020600482015260076024820152661156141254915160ca1b6044820152606401610923565b6000888152610165602090815260408083206001600160a01b038b1684529091528082208281556001810180546001600160a01b031990811690915560028201849055600382018054909116905560048101839055600501919091556060830151908301516080840151611eb09284928b92839291611ea691615457565b876040015161385c565b505050506119d760018055565b86611ec6612775565b600082815261016460205260409020600101546001600160a01b03908116911614611f035760405162461bcd60e51b815260040161092390615437565b600088815261016460209081526040808320815161018081018352815481526001808301546001600160a01b039081169583019590955260028301548516938201939093526003820154606082015260048201546080820152600582015460a0820152600682015460c0820152600782015490931660e084015260088101546101008401526009810154610120840152600a810154909161014084019160ff1690811115611fb357611fb36150b8565b6001811115611fc457611fc46150b8565b8152602001600a820160019054906101000a900460ff166001811115611fec57611fec6150b8565b6001811115611ffd57611ffd6150b8565b81525050905060006120148261014001518a6128cc565b9050600060018361016001516001811115612031576120316150b8565b1490508160000361206f5760405162461bcd60e51b81526020600482015260086024820152675155414e5449545960c01b6044820152606401610923565b80156120ec57826080015142106120b25760405162461bcd60e51b815260206004820152600760248201526614d5105495115160ca1b6044820152606401610923565b888810156120ec5760405162461bcd60e51b81526020600482015260076024820152665245534552564560c81b6044820152606401610923565b4286101561213757610e10612101874261533a565b106121335760405162461bcd60e51b815260206004820152600260248201526114d560f21b6044820152606401610923565b4295505b60008615612145578661214b565b83608001515b90506040518061018001604052808d8152602001612167612775565b6001600160a01b0316815260200185604001516001600160a01b0316815260200185606001518152602001828152602001876000146121af576121aa8884615322565b6121b5565b8560a001515b8152602001848152602001896001600160a01b031681526020018b81526020018a815260200185610140015160018111156121f2576121f26150b8565b8152602001856101600151600181111561220e5761220e6150b8565b905260008d815261016460209081526040918290208351815590830151600180830180546001600160a01b03199081166001600160a01b0394851617909155938501516002840180548616918416919091179055606085015160038401556080850151600484015560a0850151600584015560c0850151600684015560e085015160078401805490951692169190911790925561010083015160088201556101208301516009820155610140830151600a8201805492939192909160ff199091169083818111156122e1576122e16150b8565b0217905550610160820151600a8201805461ff00191661010083600181111561230c5761230c6150b8565b0217905550505060c0840151831461236c578115612338576123383085602001518660c0015187612bd7565b61235684602001518560400151866060015186886101400151612906565b811561236c5761236c8460200151308587612bd7565b83602001516001600160a01b03168c7fbbea26162edf2bc6a0255bf144ec4dd044302a301ef7d32daa835a2ddacfdef060405160405180910390a3505050505050505050505050565b600081815261012d602052604081206108d490613afb565b600082815260fb60205260409020600101546123e881612761565b610e618383612d4e565b610161805461240090615476565b80601f016020809104026020016040519081016040528092919081815260200182805461242c90615476565b80156124795780601f1061244e57610100808354040283529160200191612479565b820191906000526020600020905b81548152906001019060200180831161245c57829003601f168201915b505050505081565b600061248c81612761565b61271082106124cc5760405162461bcd60e51b815260206004820152600c60248201526b34b73b30b634b2102128299760a11b6044820152606401610923565b61016380546001600160401b03848116600160401b026001600160801b0319909216908616171790556040517f441ed6470e96704c3f8c9e70c209107078aab3f17311385e886081b91aa75088906125309085908590918252602082015260400190565b60405180910390a1505050565b600054610100900460ff161580801561255d5750600054600160ff909116105b806125775750303b158015612577575060005460ff166001145b6125da5760405162461bcd60e51b815260206004820152602e60248201527f496e697469616c697a61626c653a20636f6e747261637420697320616c72656160448201526d191e481a5b9a5d1a585b1a5e995960921b6064820152608401610923565b6000805460ff1916600117905580156125fd576000805461ff0019166101001790555b612605613b05565b61260e85613b36565b61016380546001600160801b0319166901f400000000000003841790556101616126388782615632565b5061016280546001600160e01b031916600160a01b6001600160401b038616026001600160a01b031916176001600160a01b03861617905561267b600088613b6e565b6126a67ff94103142c1baabe9ac2b5d1487bf783de9e69cfeea9a72f5c9c94afd7877b8c6000613b6e565b6126d17f86d5cf0a6bdc8d859ba3bdc97043337c82a0e609035f378e419298b6a3e00ae66000613b6e565b61015f80546001600160a01b0319166001600160a01b0384161790558015612733576000805461ff0019169055604051600181527f7f26b83ff96e1f2b6a682f133852f6798a09c465da95921460cefb38474024989060200160405180910390a15b50505050505050565b60006001600160e01b03198216635a05180f60e01b14806108d457506108d482613b78565b6127728161276d612775565b613bad565b50565b600061277f613c06565b905090565b6040516301ffc9a760e01b8152636cdb3d1360e11b60048201526000906001600160a01b038316906301ffc9a790602401602060405180830381865afa1580156127d2573d6000803e3d6000fd5b505050506040513d601f19601f820116820180604052508101906127f691906156f1565b1561280357506000919050565b6040516301ffc9a760e01b81526380ac58cd60e01b60048201526001600160a01b038316906301ffc9a790602401602060405180830381865afa15801561284e573d6000803e3d6000fd5b505050506040513d601f19601f8201168201806040525081019061287291906156f1565b1561287f57506001919050565b60405162461bcd60e51b815260206004820181905260248201527f746f6b656e206d7573742062652045524331313535206f72204552433732312e6044820152606401610923565b919050565b6000816000036128de575060006108d4565b60018360018111156128f2576128f26150b8565b146128fd578161198c565b50600192915050565b3060008083600181111561291c5761291c6150b8565b03612a1557604051627eeac760e11b81526001600160a01b0388811660048301526024820187905285919088169062fdd58e90604401602060405180830381865afa15801561296f573d6000803e3d6000fd5b505050506040513d601f19601f820116820180604052508101906129939190615713565b10158015612a0e575060405163e985e9c560e01b81526001600160a01b038881166004830152838116602483015287169063e985e9c590604401602060405180830381865afa1580156129ea573d6000803e3d6000fd5b505050506040513d601f19601f82011682018060405250810190612a0e91906156f1565b9050612ba0565b6001836001811115612a2957612a296150b8565b03612ba0576040516331a9108f60e11b8152600481018690526001600160a01b038089169190881690636352211e90602401602060405180830381865afa158015612a78573d6000803e3d6000fd5b505050506040513d601f19601f82011682018060405250810190612a9c919061572c565b6001600160a01b0316148015612b9d575060405163020604bf60e21b8152600481018690526001600160a01b03808416919088169063081812fc90602401602060405180830381865afa158015612af7573d6000803e3d6000fd5b505050506040513d601f19601f82011682018060405250810190612b1b919061572c565b6001600160a01b03161480612b9d575060405163e985e9c560e01b81526001600160a01b038881166004830152838116602483015287169063e985e9c590604401602060405180830381865afa158015612b79573d6000803e3d6000fd5b505050506040513d601f19601f82011682018060405250810190612b9d91906156f1565b90505b806127335760405162461bcd60e51b81526020600482015260076024820152660850905313919560ca1b6044820152606401610923565b60008161014001516001811115612bf057612bf06150b8565b03612c845760408082015160608301519151637921219560e11b81526001600160a01b038781166004830152868116602483015260448201939093526064810185905260a06084820152600060a482015291169063f242432a9060c401600060405180830381600087803b158015612c6757600080fd5b505af1158015612c7b573d6000803e3d6000fd5b505050506119d7565b60018161014001516001811115612c9d57612c9d6150b8565b036119d75760408082015160608301519151635c46a7ef60e11b81526001600160a01b03878116600483015286811660248301526044820193909352608060648201526000608482015291169063b88d4fde9060a401600060405180830381600087803b158015612d0d57600080fd5b505af1158015612d21573d6000803e3d6000fd5b5050505050505050565b612d358282613c30565b600082815261012d60205260409020610e619082613cb7565b612d588282613ccc565b600082815261012d60205260409020610e619082613d51565b600260015403612dc35760405162461bcd60e51b815260206004820152601f60248201527f5265656e7472616e637947756172643a207265656e7472616e742063616c6c006044820152606401610923565b6002600155565b8151600090815261016660209081526040808320815160c0810183528154815260018201546001600160a01b039081169482019490945260028201549281018390526003820154909316606084015260048101546080840181905260059091015460a0840152919291612e3d9190615457565b9050600083604001518460800151612e559190615457565b61015f546101208701519192506001600160a01b03169015801590612e8e57508560c00151866101200151612e8a9190615457565b8210155b15612ea257612e9d86866136db565b6130be565b612ec18660c00151876101000151612eba9190615457565b8484613d66565b612f005760405162461bcd60e51b815260206004820152601060248201526f3737ba103bb4b73734b733903134b21760811b6044820152606401610923565b85516000908152610166602090815260409182902087518155908701516001820180546001600160a01b03199081166001600160a01b039384161790915592880151600283015560608801516003830180549094169116179091556080860151600482015560a08087015160059092019190915561016354908701516001600160401b0390911690612f9390429061533a565b116130be576101635460a0870180516001600160401b0390921691612fb9908390615322565b9052508551600090815261016460209081526040918290208851815590880151600180830180546001600160a01b03199081166001600160a01b0394851617909155938a0151600284018054861691841691909117905560608a0151600384015560808a0151600484015560a08a0151600584015560c08a0151600684015560e08a015160078401805490951692169190911790925561010088015160088201556101208801516009820155610140880151600a820180548a9460ff1990911690838181111561308b5761308b6150b8565b0217905550610160820151600a8201805461ff0019166101008360018111156130b6576130b66150b8565b021790555050505b60208401516001600160a01b0316158015906130da5750600083115b156130f4576130f48660e001513086602001518685613dc5565b6131098660e001518660200151308585613dc5565b8561016001516001811115613120576131206150b8565b85602001516001600160a01b031687600001517f8a412352601a288b3de40254a9de2ab14a497aa3638a7e558480680a56e2705d886040015189604001518a6080015161316d9190615457565b6060808c01516040805194855260208501939093526001600160a01b031691830191909152015b60405180910390a4505050505050565b8160c001518160400151111580156131c0575060008260c00151115b61320c5760405162461bcd60e51b815260206004820152601f60248201527f696e73756666696369656e7420746f6b656e7320696e206c697374696e672e006044820152606401610923565b613232816020015182606001518360400151846080015161322d9190615457565b613f2f565b815160009081526101656020908152604080832082850180516001600160a01b0390811686529190935292819020845181559151600180840180549286166001600160a01b03199384161790559185015160028401556060850151600384018054919095169116179092556080830151600482015560a0830151600590910155610160830151908111156132c8576132c86150b8565b81602001516001600160a01b031683600001517f8a412352601a288b3de40254a9de2ab14a497aa3638a7e558480680a56e2705d8460400151856040015186608001516133159190615457565b6060878101516040805194855260208501939093526001600160a01b0316838301529051918290030190a45050565b60018055565b613352612775565b8151600090815261016460205260409020600101546001600160a01b039081169116146133cc5760405162461bcd60e51b815260206004820152602260248201527f63616c6c6572206973206e6f7420746865206c697374696e672063726561746f604482015261391760f11b6064820152608401610923565b805160009081526101646020908152604082208281556001810180546001600160a01b031990811690915560028201805482169055600382018490556004820184905560058201849055600682018490556007820180549091169055600881018390556009810192909255600a909101805461ffff1916905581015160c082015161345991309184612bd7565b6001613463612775565b8251602080850151604080516001600160a01b0392831681526000938101939093529316927f572cdc5ca5e918473319d0f4737494e4709ac879a7d0bcd11ce1bef24b24e81d910160405180910390a450565b60008260c0015182608001516134cc9190615457565b600060c085018181524260a087019081528651835261016460209081526040938490208851815590880151600180830180546001600160a01b039384166001600160a01b031991821617909155958a015160028401805491841691881691909117905560608a0151600384015560808a01516004840155925160058301559251600682015560e08801516007820180549190941694169390931790915561010086015160088301556101208601516009830155610140860151600a8301805494955087949192909160ff19169083818111156135aa576135aa6150b8565b0217905550610160820151600a8201805461ff0019166101008360018111156135d5576135d56150b8565b02179055505060006080840181815285518252610166602090815260409283902086518155818701516001820180546001600160a01b03199081166001600160a01b039384161790915594880151600283015560608801516003830180549096169116179093559051600483015560a085015160059092019190915584015160e085015161366892503091908487614050565b6000613672612775565b6001600160a01b031684600001517f572cdc5ca5e918473319d0f4737494e4709ac879a7d0bcd11ce1bef24b24e81d866020015186602001516040516136ce9291906001600160a01b0392831681529116602082015260400190565b60405180910390a4505050565b604081810180514260a086810191825260008085528751815261016660209081528682208851815581890151600180830180546001600160a01b03199081166001600160a01b039485161790915598516002808501919091556060808d0151600380870180548e16928716929092179091556080808f0151600480890191909155998f01516005978801558f5189526101648852978d90208f518155968f015187850180548e169187169190911790559b8e015191860180548c16928516929092179091558c015199840199909955928a01519382019390935592519183019190915560c0870151600683015560e087015160078301805490951691161790925561010085015160088301556101208501516009830155610140850151600a83018054929487949360ff1916908381811115613819576138196150b8565b0217905550610160820151600a8201805461ff001916610100836001811115613844576138446150b8565b02179055509050506136683083602001518386612bd7565b61386986868386866141d4565b808660c00181815161387b919061533a565b9052508551600090815261016460209081526040918290208851815590880151600180830180546001600160a01b03199081166001600160a01b0394851617909155938a0151600284018054861691841691909117905560608a0151600384015560808a0151600484015560a08a0151600584015560c08a0151600684015560e08a015160078401805490951692169190911790925561010088015160088201556101208801516009820155610140880151600a820180548a9460ff1990911690838181111561394d5761394d6150b8565b0217905550610160820151600a8201805461ff001916610100836001811115613978576139786150b8565b021790555090505061399185876020015185858a614050565b6139a18660200151858389612bd7565b602080870151604080890151895182516001600160a01b038a81168252958101879052928301879052928416931691907f306e6cde5eb293794d557a3a6c844de939e6206b05e6910451c512852bf654a590606001613194565b600061198c83836143a3565b60606001600160a01b0383163b613a6f5760405162461bcd60e51b815260206004820152602660248201527f416464726573733a2064656c65676174652063616c6c20746f206e6f6e2d636f6044820152651b9d1c9858dd60d21b6064820152608401610923565b600080846001600160a01b031684604051613a8a9190615749565b600060405180830381855af49150503d8060008114613ac5576040519150601f19603f3d011682016040523d82523d6000602084013e613aca565b606091505b5091509150613af282826040518060600160405280602781526020016158a3602791396143cd565b95945050505050565b60006108d4825490565b600054610100900460ff16613b2c5760405162461bcd60e51b815260040161092390615765565b613b346143e6565b565b600054610100900460ff16613b5d5760405162461bcd60e51b815260040161092390615765565b613b6561440d565b61277281614434565b610ef08282612d2b565b60006001600160e01b03198216637965db0b60e01b14806108d457506301ffc9a760e01b6001600160e01b03198316146108d4565b613bb78282611993565b610ef057613bc4816144c3565b613bcf8360206144d5565b604051602001613be09291906157b0565b60408051601f198184030181529082905262461bcd60e51b82526109239160040161517d565b3360009081526065602052604081205460ff1615613c2b575060131936013560601c90565b503390565b613c3a8282611993565b610ef057600082815260fb602090815260408083206001600160a01b03851684529091529020805460ff19166001179055613c73612775565b6001600160a01b0316816001600160a01b0316837f2f8788117e7eff1d82e926ec794901d17c78024a50270940304540a733656f0d60405160405180910390a45050565b600061198c836001600160a01b038416614670565b613cd68282611993565b15610ef057600082815260fb602090815260408083206001600160a01b03851684529091529020805460ff19169055613d0d612775565b6001600160a01b0316816001600160a01b0316837ff6391f5c32d9c69d2a47ea670b442974b53935d1edc7fd64eb21e047a839171b60405160405180910390a45050565b600061198c836001600160a01b0384166146bf565b600082600003613d7a57508281101561198c565b8282118015613dbd575061016354600160401b90046001600160401b031683612710613da6828661533a565b613db09190615457565b613dba9190615825565b10155b949350505050565b81156112585773eeeeeeeeeeeeeeeeeeeeeeeeeeeeeeeeeeeeeeed196001600160a01b03861601613f2357306001600160a01b03851603613e6a57604051632e1a7d4d60e01b8152600481018390526001600160a01b03821690632e1a7d4d90602401600060405180830381600087803b158015613e4257600080fd5b505af1158015613e56573d6000803e3d6000fd5b50505050613e658383836147b2565b611258565b306001600160a01b03841603613f1857348214613ebf5760405162461bcd60e51b81526020600482015260136024820152721b5cd9cb9d985b1d5948084f48185b5bdd5b9d606a1b6044820152606401610923565b806001600160a01b031663d0e30db0836040518263ffffffff1660e01b81526004016000604051808303818588803b158015613efa57600080fd5b505af1158015613f0e573d6000803e3d6000fd5b5050505050611258565b613e658383836147b2565b61125885858585614877565b6040516370a0823160e01b81526001600160a01b0384811660048301528291908416906370a0823190602401602060405180830381865afa158015613f78573d6000803e3d6000fd5b505050506040513d601f19601f82011682018060405250810190613f9c9190615713565b1015801561401b5750604051636eb1769f60e11b81526001600160a01b03848116600483015230602483015282919084169063dd62ed3e90604401602060405180830381865afa158015613ff4573d6000803e3d6000fd5b505050506040513d601f19601f820116820180604052508101906140189190615713565b10155b610e615760405162461bcd60e51b815260206004820152600660248201526502142414c32360d41b6044820152606401610923565b610162546000906127109061407590600160a01b90046001600160401b031685615457565b61407f9190615825565b905060008083604001516001600160a01b0316632a55205a8560600151876040518363ffffffff1660e01b81526004016140c3929190918252602082015260400190565b6040805180830381865afa9250505080156140fb575060408051601f3d908101601f191682019092526140f891810190615847565b60015b15614178576001600160a01b038216158015906141185750600081115b1561417557866141288683615322565b111561416e5760405162461bcd60e51b815260206004820152601560248201527466656573206578636565642074686520707269636560581b6044820152606401610923565b8192508093505b50505b61015f54610162546001600160a01b039182169161419c9189918c91168785613dc5565b6141a9878a848685613dc5565b6141c9878a8a6141b98789615322565b6141c3908b61533a565b85613dc5565b505050505050505050565b600085610160015160018111156141ed576141ed6150b8565b1461423a5760405162461bcd60e51b815260206004820152601860248201527f63616e6e6f74206275792066726f6d206c697374696e672e00000000000000006044820152606401610923565b60008560c0015111801561424e5750600083115b801561425e57508460c001518311155b6142aa5760405162461bcd60e51b815260206004820152601960248201527f696e76616c696420616d6f756e74206f6620746f6b656e732e000000000000006044820152606401610923565b8460a00151421080156142c05750846080015142115b61430c5760405162461bcd60e51b815260206004820152601760248201527f6e6f742077697468696e2073616c652077696e646f772e0000000000000000006044820152606401610923565b73eeeeeeeeeeeeeeeeeeeeeeeeeeeeeeeeeeeeeeed196001600160a01b0383160161437a578034146143755760405162461bcd60e51b81526020600482015260126024820152716d73672e76616c756520213d20707269636560701b6044820152606401610923565b614385565b614385848383613f2f565b61125885602001518660400151876060015186896101400151612906565b60008260000182815481106143ba576143ba6155bd565b9060005260206000200154905092915050565b606083156143dc57508161198c565b61198c83836148cf565b600054610100900460ff166133445760405162461bcd60e51b815260040161092390615765565b600054610100900460ff16613b345760405162461bcd60e51b815260040161092390615765565b600054610100900460ff1661445b5760405162461bcd60e51b815260040161092390615765565b60005b8151811015610ef05760016065600084848151811061447f5761447f6155bd565b6020908102919091018101516001600160a01b03168252810191909152604001600020805460ff1916911515919091179055806144bb81615619565b91505061445e565b60606108d46001600160a01b03831660145b606060006144e4836002615457565b6144ef906002615322565b6001600160401b0381111561450657614506614adc565b6040519080825280601f01601f191660200182016040528015614530576020820181803683370190505b509050600360fc1b8160008151811061454b5761454b6155bd565b60200101906001600160f81b031916908160001a905350600f60fb1b8160018151811061457a5761457a6155bd565b60200101906001600160f81b031916908160001a905350600061459e846002615457565b6145a9906001615322565b90505b6001811115614621576f181899199a1a9b1b9c1cb0b131b232b360811b85600f16601081106145dd576145dd6155bd565b1a60f81b8282815181106145f3576145f36155bd565b60200101906001600160f81b031916908160001a90535060049490941c9361461a81615875565b90506145ac565b50831561198c5760405162461bcd60e51b815260206004820181905260248201527f537472696e67733a20686578206c656e67746820696e73756666696369656e746044820152606401610923565b60008181526001830160205260408120546146b7575081546001818101845560008481526020808220909301849055845484825282860190935260409020919091556108d4565b5060006108d4565b600081815260018301602052604081205480156147a85760006146e360018361533a565b85549091506000906146f79060019061533a565b905081811461475c576000866000018281548110614717576147176155bd565b906000526020600020015490508087600001848154811061473a5761473a6155bd565b6000918252602080832090910192909255918252600188019052604090208390555b855486908061476d5761476d61588c565b6001900381819060005260206000200160009055905585600101600086815260200190815260200160002060009055600193505050506108d4565b60009150506108d4565b6000836001600160a01b03168360405160006040518083038185875af1925050503d80600081146147ff576040519150601f19603f3d011682016040523d82523d6000602084013e614804565b606091505b50509050806119d757816001600160a01b031663d0e30db0846040518263ffffffff1660e01b81526004016000604051808303818588803b15801561484857600080fd5b505af115801561485c573d6000803e3d6000fd5b506119d7935050506001600160a01b038416905085856148f9565b816001600160a01b0316836001600160a01b031603156119d757306001600160a01b038416036148ba576148b56001600160a01b03851683836148f9565b6119d7565b6119d76001600160a01b03851684848461495b565b8151156148df5781518083602001fd5b8060405162461bcd60e51b8152600401610923919061517d565b6040516001600160a01b038316602482015260448101829052610e6190849063a9059cbb60e01b906064015b60408051601f198184030181529190526020810180516001600160e01b03166001600160e01b0319909316929092179091525050565b6040516001600160a01b03808516602483015283166044820152606481018290526119d79085906323b872dd60e01b90608401614925565b6000602082840312156149a557600080fd5b81356001600160e01b03198116811461198c57600080fd5b6001600160a01b038116811461277257600080fd5b80356128c7816149bd565b60008083601f8401126149ef57600080fd5b5081356001600160401b03811115614a0657600080fd5b602083019150836020828501011115614a1e57600080fd5b9250929050565b600080600080600060808688031215614a3d57600080fd5b8535614a48816149bd565b94506020860135614a58816149bd565b93506040860135925060608601356001600160401b03811115614a7a57600080fd5b614a86888289016149dd565b969995985093965092949392505050565b60008060408385031215614aaa57600080fd5b8235614ab5816149bd565b946020939093013593505050565b600060208284031215614ad557600080fd5b5035919050565b634e487b7160e01b600052604160045260246000fd5b60405161012081016001600160401b0381118282101715614b1557614b15614adc565b60405290565b604051601f8201601f191681016001600160401b0381118282101715614b4357614b43614adc565b604052919050565b8035600281106128c757600080fd5b60006101208284031215614b6d57600080fd5b614b75614af2565b614b7e836149d2565b815260208301356020820152604083013560408201526060830135606082015260808301356080820152614bb460a084016149d2565b60a082015260c083013560c082015260e083013560e0820152610100614bdb818501614b4b565b908201529392505050565b60008060408385031215614bf957600080fd5b823591506020830135614c0b816149bd565b809150509250929050565b600060208284031215614c2857600080fd5b813561198c816149bd565b600080600080600060a08688031215614c4b57600080fd5b85359450602086013593506040860135614c64816149bd565b94979396509394606081013594506080013592915050565b600080600080600060a08688031215614c9457600080fd5b853594506020860135614ca6816149bd565b9350604086013592506060860135614cbd816149bd565b949793965091946080013592915050565b60008060408385031215614ce157600080fd5b50508035926020909101359150565b60008060208385031215614d0357600080fd5b82356001600160401b03811115614d1957600080fd5b614d25858286016149dd565b90969095509350505050565b60008060208385031215614d4457600080fd5b82356001600160401b0380821115614d5b57600080fd5b818501915085601f830112614d6f57600080fd5b813581811115614d7e57600080fd5b8660208260051b8501011115614d9357600080fd5b60209290920196919550909350505050565b60005b83811015614dc0578181015183820152602001614da8565b838111156119d75750506000910152565b60008151808452614de9816020860160208601614da5565b601f01601f19169290920160200192915050565b6000602080830181845280855180835260408601915060408160051b870101925083870160005b82811015614e5257603f19888603018452614e40858351614dd1565b94509285019290850190600101614e24565b5092979650505050505050565b60008060008060808587031215614e7557600080fd5b843593506020850135614e87816149bd565b92506040850135614e97816149bd565b9396929550929360600135925050565b60006001600160401b03821115614ec057614ec0614adc565b5060051b60200190565b600082601f830112614edb57600080fd5b81356020614ef0614eeb83614ea7565b614b1b565b82815260059290921b84018101918181019086841115614f0f57600080fd5b8286015b84811015614f2a5780358352918301918301614f13565b509695505050505050565b60006001600160401b03831115614f4e57614f4e614adc565b614f61601f8401601f1916602001614b1b565b9050828152838383011115614f7557600080fd5b828260208301376000602084830101529392505050565b600082601f830112614f9d57600080fd5b61198c83833560208501614f35565b600080600080600060a08688031215614fc457600080fd5b8535614fcf816149bd565b94506020860135614fdf816149bd565b935060408601356001600160401b0380821115614ffb57600080fd5b61500789838a01614eca565b9450606088013591508082111561501d57600080fd5b61502989838a01614eca565b9350608088013591508082111561503f57600080fd5b5061504c88828901614f8c565b9150509295509295909350565b600080600080600080600060e0888a03121561507457600080fd5b87359650602088013595506040880135945060608801359350608088013561509b816149bd565b9699959850939692959460a0840135945060c09093013592915050565b634e487b7160e01b600052602160045260246000fd5b6002811061277257634e487b7160e01b600052602160045260246000fd5b6150f5816150ce565b9052565b8c81526001600160a01b038c811660208301528b81166040830152606082018b9052608082018a905260a0820189905260c08201889052861660e0820152610100810185905261012081018490526101808101615155846150ce565b83610140830152615165836150ce565b826101608301529d9c50505050505050505050505050565b60208152600061198c6020830184614dd1565b60008060008060008060c087890312156151a957600080fd5b86356151b4816149bd565b95506020878101356001600160401b03808211156151d157600080fd5b818a0191508a601f8301126151e557600080fd5b6151f38b8335858501614f35565b975060408a013591508082111561520957600080fd5b508801601f81018a1361521b57600080fd5b8035615229614eeb82614ea7565b81815260059190911b8201830190838101908c83111561524857600080fd5b928401925b8284101561526f578335615260816149bd565b8252928401929084019061524d565b8098505050505050615283606088016149d2565b92506080870135915061529860a088016149d2565b90509295509295509295565b600080600080600060a086880312156152bc57600080fd5b85356152c7816149bd565b945060208601356152d7816149bd565b9350604086013592506060860135915060808601356001600160401b0381111561530057600080fd5b61504c88828901614f8c565b634e487b7160e01b600052601160045260246000fd5b600082198211156153355761533561530c565b500190565b60008282101561534c5761534c61530c565b500390565b81518152602080830151610180830191615375908401826001600160a01b03169052565b50604083015161539060408401826001600160a01b03169052565b50606083015160608301526080830151608083015260a083015160a083015260c083015160c083015260e08301516153d360e08401826001600160a01b03169052565b5061010083810151908301526101208084015190830152610140808401516153fd828501826150ec565b505061016080840151615412828501826150ec565b505092915050565b602080825260039082015262444e4560e81b604082015260600190565b60208082526006908201526510a7aba722a960d11b604082015260600190565b60008160001904831182151516156154715761547161530c565b500290565b600181811c9082168061548a57607f821691505b6020821081036154aa57634e487b7160e01b600052602260045260246000fd5b50919050565b601f821115610e6157600081815260208120601f850160051c810160208610156154d75750805b601f850160051c820191505b818110156154f6578281556001016154e3565b505050505050565b6001600160401b0383111561551557615515614adc565b615529836155238354615476565b836154b0565b6000601f84116001811461555d57600085156155455750838201355b600019600387901b1c1916600186901b178355611258565b600083815260209020601f19861690835b8281101561558e578685013582556020948501946001909201910161556e565b50868210156155ab5760001960f88860031b161c19848701351681555b505060018560011b0183555050505050565b634e487b7160e01b600052603260045260246000fd5b6000808335601e198436030181126155ea57600080fd5b8301803591506001600160401b0382111561560457600080fd5b602001915036819003821315614a1e57600080fd5b60006001820161562b5761562b61530c565b5060010190565b81516001600160401b0381111561564b5761564b614adc565b61565f816156598454615476565b846154b0565b602080601f831160018114615694576000841561567c5750858301515b600019600386901b1c1916600185901b1785556154f6565b600085815260208120601f198616915b828110156156c3578886015182559484019460019091019084016156a4565b50858210156156e15787850151600019600388901b60f8161c191681555b5050505050600190811b01905550565b60006020828403121561570357600080fd5b8151801515811461198c57600080fd5b60006020828403121561572557600080fd5b5051919050565b60006020828403121561573e57600080fd5b815161198c816149bd565b6000825161575b818460208701614da5565b9190910192915050565b6020808252602b908201527f496e697469616c697a61626c653a20636f6e7472616374206973206e6f74206960408201526a6e697469616c697a696e6760a81b606082015260800190565b7f416363657373436f6e74726f6c3a206163636f756e74200000000000000000008152600083516157e8816017850160208801614da5565b7001034b99036b4b9b9b4b733903937b6329607d1b6017918401918201528351615819816028840160208801614da5565b01602801949350505050565b60008261584257634e487b7160e01b600052601260045260246000fd5b500490565b6000806040838503121561585a57600080fd5b8251615865816149bd565b6020939093015192949293505050565b6000816158845761588461530c565b506000190190565b634e487b7160e01b600052603160045260246000fdfe416464726573733a206c6f772d6c6576656c2064656c65676174652063616c6c206661696c6564a2646970667358221220c66dfb10be39c8d1d8112251f2bea23d25ed44a661c2bf2fce3fded9ff18e03a64736f6c634300080f0033",
    "linkReferences": {}
  },
  "methodIdentifiers": {
    "DEFAULT_ADMIN_ROLE()": "a217fddf",
    "MAX_BPS()": "fd967f47",
    "acceptOffer(uint256,address,address,uint256)": "b13c0e63",
    "bidBufferBps()": "4e03f28d",
    "buy(uint256,address,uint256,address,uint256)": "7687ab02",
    "cancelDirectListing(uint256)": "7506c84a",
    "closeAuction(uint256,address)": "6bab66ae",
    "contractType()": "cb2ef6f7",
    "contractURI()": "e8a3d485",
    "contractVersion()": "a0a8e460",
    "createListing((address,uint256,uint256,uint256,uint256,address,uint256,uint256,uint8))": "296f4e16",
    "getPlatformFeeInfo()": "d45573f6",
    "getRoleAdmin(bytes32)": "248a9ca3",
    "getRoleMember(bytes32,uint256)": "9010d07c",
    "getRoleMemberCount(bytes32)": "ca15c873",
    "grantRole(bytes32,address)": "2f2ff15d",
    "hasRole(bytes32,address)": "91d14854",
    "initialize(address,string,address[],address,uint256,address)": "efd14db5",
    "isTrustedForwarder(address)": "572b6c05",
    "listings(uint256)": "de74e57b",
    "multicall(bytes[])": "ac9650d8",
    "offer(uint256,uint256,address,uint256,uint256)": "5fef45e7",
    "offers(uint256,address)": "ebdfbce5",
    "onERC1155BatchReceived(address,address,uint256[],uint256[],bytes)": "bc197c81",
    "onERC1155Received(address,address,uint256,uint256,bytes)": "f23a6e61",
    "onERC721Received(address,address,uint256,bytes)": "150b7a02",
    "renounceRole(bytes32,address)": "36568abe",
    "revokeRole(bytes32,address)": "d547741f",
    "setAuctionBuffers(uint256,uint256)": "ea0e0241",
    "setContractURI(string)": "938e3d7b",
    "setPlatformFeeInfo(address,uint256)": "1e7ac488",
    "supportsInterface(bytes4)": "01ffc9a7",
    "timeBuffer()": "ec91f2a4",
    "totalListings()": "c78b616c",
    "updateListing(uint256,uint256,uint256,uint256,address,uint256,uint256)": "c4b5b15f",
    "winningBid(uint256)": "d4ac9b8c"
  },
  "id": 69
}