{
  "abi": [
    {
      "anonymous": false,
      "inputs": [
        {
          "indexed": true,
          "internalType": "address",
          "name": "owner",
          "type": "address"
        },
        {
          "indexed": true,
          "internalType": "address",
          "name": "spender",
          "type": "address"
        },
        {
          "indexed": false,
          "internalType": "uint256",
          "name": "value",
          "type": "uint256"
        }
      ],
      "name": "Approval",
      "type": "event"
    },
    {
      "anonymous": false,
      "inputs": [
        {
          "indexed": true,
          "internalType": "address",
          "name": "delegator",
          "type": "address"
        },
        {
          "indexed": true,
          "internalType": "address",
          "name": "fromDelegate",
          "type": "address"
        },
        {
          "indexed": true,
          "internalType": "address",
          "name": "toDelegate",
          "type": "address"
        }
      ],
      "name": "DelegateChanged",
      "type": "event"
    },
    {
      "anonymous": false,
      "inputs": [
        {
          "indexed": true,
          "internalType": "address",
          "name": "delegate",
          "type": "address"
        },
        {
          "indexed": false,
          "internalType": "uint256",
          "name": "previousBalance",
          "type": "uint256"
        },
        {
          "indexed": false,
          "internalType": "uint256",
          "name": "newBalance",
          "type": "uint256"
        }
      ],
      "name": "DelegateVotesChanged",
      "type": "event"
    },
    {
      "anonymous": false,
      "inputs": [
        {
          "indexed": false,
          "internalType": "uint8",
          "name": "version",
          "type": "uint8"
        }
      ],
      "name": "Initialized",
      "type": "event"
    },
    {
      "anonymous": false,
      "inputs": [
        {
          "indexed": false,
          "internalType": "address",
          "name": "account",
          "type": "address"
        }
      ],
      "name": "Paused",
      "type": "event"
    },
    {
      "anonymous": false,
      "inputs": [
        {
          "indexed": true,
          "internalType": "address",
          "name": "platformFeeRecipient",
          "type": "address"
        },
        {
          "indexed": false,
          "internalType": "uint256",
          "name": "platformFeeBps",
          "type": "uint256"
        }
      ],
      "name": "PlatformFeeInfoUpdated",
      "type": "event"
    },
    {
      "anonymous": false,
      "inputs": [
        {
          "indexed": true,
          "internalType": "address",
          "name": "recipient",
          "type": "address"
        }
      ],
      "name": "PrimarySaleRecipientUpdated",
      "type": "event"
    },
    {
      "anonymous": false,
      "inputs": [
        {
          "indexed": true,
          "internalType": "bytes32",
          "name": "role",
          "type": "bytes32"
        },
        {
          "indexed": true,
          "internalType": "bytes32",
          "name": "previousAdminRole",
          "type": "bytes32"
        },
        {
          "indexed": true,
          "internalType": "bytes32",
          "name": "newAdminRole",
          "type": "bytes32"
        }
      ],
      "name": "RoleAdminChanged",
      "type": "event"
    },
    {
      "anonymous": false,
      "inputs": [
        {
          "indexed": true,
          "internalType": "bytes32",
          "name": "role",
          "type": "bytes32"
        },
        {
          "indexed": true,
          "internalType": "address",
          "name": "account",
          "type": "address"
        },
        {
          "indexed": true,
          "internalType": "address",
          "name": "sender",
          "type": "address"
        }
      ],
      "name": "RoleGranted",
      "type": "event"
    },
    {
      "anonymous": false,
      "inputs": [
        {
          "indexed": true,
          "internalType": "bytes32",
          "name": "role",
          "type": "bytes32"
        },
        {
          "indexed": true,
          "internalType": "address",
          "name": "account",
          "type": "address"
        },
        {
          "indexed": true,
          "internalType": "address",
          "name": "sender",
          "type": "address"
        }
      ],
      "name": "RoleRevoked",
      "type": "event"
    },
    {
      "anonymous": false,
      "inputs": [
        {
          "indexed": true,
          "internalType": "address",
          "name": "mintedTo",
          "type": "address"
        },
        {
          "indexed": false,
          "internalType": "uint256",
          "name": "quantityMinted",
          "type": "uint256"
        }
      ],
      "name": "TokensMinted",
      "type": "event"
    },
    {
      "anonymous": false,
      "inputs": [
        {
          "indexed": true,
          "internalType": "address",
          "name": "signer",
          "type": "address"
        },
        {
          "indexed": true,
          "internalType": "address",
          "name": "mintedTo",
          "type": "address"
        },
        {
          "components": [
            {
              "internalType": "address",
              "name": "to",
              "type": "address"
            },
            {
              "internalType": "address",
              "name": "primarySaleRecipient",
              "type": "address"
            },
            {
              "internalType": "uint256",
              "name": "quantity",
              "type": "uint256"
            },
            {
              "internalType": "uint256",
              "name": "price",
              "type": "uint256"
            },
            {
              "internalType": "address",
              "name": "currency",
              "type": "address"
            },
            {
              "internalType": "uint128",
              "name": "validityStartTimestamp",
              "type": "uint128"
            },
            {
              "internalType": "uint128",
              "name": "validityEndTimestamp",
              "type": "uint128"
            },
            {
              "internalType": "bytes32",
              "name": "uid",
              "type": "bytes32"
            }
          ],
          "indexed": false,
          "internalType": "struct ITokenERC20.MintRequest",
          "name": "mintRequest",
          "type": "tuple"
        }
      ],
      "name": "TokensMintedWithSignature",
      "type": "event"
    },
    {
      "anonymous": false,
      "inputs": [
        {
          "indexed": true,
          "internalType": "address",
          "name": "from",
          "type": "address"
        },
        {
          "indexed": true,
          "internalType": "address",
          "name": "to",
          "type": "address"
        },
        {
          "indexed": false,
          "internalType": "uint256",
          "name": "value",
          "type": "uint256"
        }
      ],
      "name": "Transfer",
      "type": "event"
    },
    {
      "anonymous": false,
      "inputs": [
        {
          "indexed": false,
          "internalType": "address",
          "name": "account",
          "type": "address"
        }
      ],
      "name": "Unpaused",
      "type": "event"
    },
    {
      "inputs": [],
      "name": "DEFAULT_ADMIN_ROLE",
      "outputs": [
        {
          "internalType": "bytes32",
          "name": "",
          "type": "bytes32"
        }
      ],
      "stateMutability": "view",
      "type": "function"
    },
    {
      "inputs": [],
      "name": "DOMAIN_SEPARATOR",
      "outputs": [
        {
          "internalType": "bytes32",
          "name": "",
          "type": "bytes32"
        }
      ],
      "stateMutability": "view",
      "type": "function"
    },
    {
      "inputs": [
        {
          "internalType": "address",
          "name": "owner",
          "type": "address"
        },
        {
          "internalType": "address",
          "name": "spender",
          "type": "address"
        }
      ],
      "name": "allowance",
      "outputs": [
        {
          "internalType": "uint256",
          "name": "",
          "type": "uint256"
        }
      ],
      "stateMutability": "view",
      "type": "function"
    },
    {
      "inputs": [
        {
          "internalType": "address",
          "name": "spender",
          "type": "address"
        },
        {
          "internalType": "uint256",
          "name": "amount",
          "type": "uint256"
        }
      ],
      "name": "approve",
      "outputs": [
        {
          "internalType": "bool",
          "name": "",
          "type": "bool"
        }
      ],
      "stateMutability": "nonpayable",
      "type": "function"
    },
    {
      "inputs": [
        {
          "internalType": "address",
          "name": "account",
          "type": "address"
        }
      ],
      "name": "balanceOf",
      "outputs": [
        {
          "internalType": "uint256",
          "name": "",
          "type": "uint256"
        }
      ],
      "stateMutability": "view",
      "type": "function"
    },
    {
      "inputs": [
        {
          "internalType": "uint256",
          "name": "amount",
          "type": "uint256"
        }
      ],
      "name": "burn",
      "outputs": [],
      "stateMutability": "nonpayable",
      "type": "function"
    },
    {
      "inputs": [
        {
          "internalType": "address",
          "name": "account",
          "type": "address"
        },
        {
          "internalType": "uint256",
          "name": "amount",
          "type": "uint256"
        }
      ],
      "name": "burnFrom",
      "outputs": [],
      "stateMutability": "nonpayable",
      "type": "function"
    },
    {
      "inputs": [
        {
          "internalType": "address",
          "name": "account",
          "type": "address"
        },
        {
          "internalType": "uint32",
          "name": "pos",
          "type": "uint32"
        }
      ],
      "name": "checkpoints",
      "outputs": [
        {
          "components": [
            {
              "internalType": "uint32",
              "name": "fromBlock",
              "type": "uint32"
            },
            {
              "internalType": "uint224",
              "name": "votes",
              "type": "uint224"
            }
          ],
          "internalType": "struct ERC20VotesUpgradeable.Checkpoint",
          "name": "",
          "type": "tuple"
        }
      ],
      "stateMutability": "view",
      "type": "function"
    },
    {
      "inputs": [],
      "name": "contractType",
      "outputs": [
        {
          "internalType": "bytes32",
          "name": "",
          "type": "bytes32"
        }
      ],
      "stateMutability": "pure",
      "type": "function"
    },
    {
      "inputs": [],
      "name": "contractURI",
      "outputs": [
        {
          "internalType": "string",
          "name": "",
          "type": "string"
        }
      ],
      "stateMutability": "view",
      "type": "function"
    },
    {
      "inputs": [],
      "name": "contractVersion",
      "outputs": [
        {
          "internalType": "uint8",
          "name": "",
          "type": "uint8"
        }
      ],
      "stateMutability": "pure",
      "type": "function"
    },
    {
      "inputs": [],
      "name": "decimals",
      "outputs": [
        {
          "internalType": "uint8",
          "name": "",
          "type": "uint8"
        }
      ],
      "stateMutability": "view",
      "type": "function"
    },
    {
      "inputs": [
        {
          "internalType": "address",
          "name": "spender",
          "type": "address"
        },
        {
          "internalType": "uint256",
          "name": "subtractedValue",
          "type": "uint256"
        }
      ],
      "name": "decreaseAllowance",
      "outputs": [
        {
          "internalType": "bool",
          "name": "",
          "type": "bool"
        }
      ],
      "stateMutability": "nonpayable",
      "type": "function"
    },
    {
      "inputs": [
        {
          "internalType": "address",
          "name": "delegatee",
          "type": "address"
        }
      ],
      "name": "delegate",
      "outputs": [],
      "stateMutability": "nonpayable",
      "type": "function"
    },
    {
      "inputs": [
        {
          "internalType": "address",
          "name": "delegatee",
          "type": "address"
        },
        {
          "internalType": "uint256",
          "name": "nonce",
          "type": "uint256"
        },
        {
          "internalType": "uint256",
          "name": "expiry",
          "type": "uint256"
        },
        {
          "internalType": "uint8",
          "name": "v",
          "type": "uint8"
        },
        {
          "internalType": "bytes32",
          "name": "r",
          "type": "bytes32"
        },
        {
          "internalType": "bytes32",
          "name": "s",
          "type": "bytes32"
        }
      ],
      "name": "delegateBySig",
      "outputs": [],
      "stateMutability": "nonpayable",
      "type": "function"
    },
    {
      "inputs": [
        {
          "internalType": "address",
          "name": "account",
          "type": "address"
        }
      ],
      "name": "delegates",
      "outputs": [
        {
          "internalType": "address",
          "name": "",
          "type": "address"
        }
      ],
      "stateMutability": "view",
      "type": "function"
    },
    {
      "inputs": [
        {
          "internalType": "uint256",
          "name": "blockNumber",
          "type": "uint256"
        }
      ],
      "name": "getPastTotalSupply",
      "outputs": [
        {
          "internalType": "uint256",
          "name": "",
          "type": "uint256"
        }
      ],
      "stateMutability": "view",
      "type": "function"
    },
    {
      "inputs": [
        {
          "internalType": "address",
          "name": "account",
          "type": "address"
        },
        {
          "internalType": "uint256",
          "name": "blockNumber",
          "type": "uint256"
        }
      ],
      "name": "getPastVotes",
      "outputs": [
        {
          "internalType": "uint256",
          "name": "",
          "type": "uint256"
        }
      ],
      "stateMutability": "view",
      "type": "function"
    },
    {
      "inputs": [],
      "name": "getPlatformFeeInfo",
      "outputs": [
        {
          "internalType": "address",
          "name": "",
          "type": "address"
        },
        {
          "internalType": "uint16",
          "name": "",
          "type": "uint16"
        }
      ],
      "stateMutability": "view",
      "type": "function"
    },
    {
      "inputs": [
        {
          "internalType": "bytes32",
          "name": "role",
          "type": "bytes32"
        }
      ],
      "name": "getRoleAdmin",
      "outputs": [
        {
          "internalType": "bytes32",
          "name": "",
          "type": "bytes32"
        }
      ],
      "stateMutability": "view",
      "type": "function"
    },
    {
      "inputs": [
        {
          "internalType": "bytes32",
          "name": "role",
          "type": "bytes32"
        },
        {
          "internalType": "uint256",
          "name": "index",
          "type": "uint256"
        }
      ],
      "name": "getRoleMember",
      "outputs": [
        {
          "internalType": "address",
          "name": "",
          "type": "address"
        }
      ],
      "stateMutability": "view",
      "type": "function"
    },
    {
      "inputs": [
        {
          "internalType": "bytes32",
          "name": "role",
          "type": "bytes32"
        }
      ],
      "name": "getRoleMemberCount",
      "outputs": [
        {
          "internalType": "uint256",
          "name": "",
          "type": "uint256"
        }
      ],
      "stateMutability": "view",
      "type": "function"
    },
    {
      "inputs": [
        {
          "internalType": "address",
          "name": "account",
          "type": "address"
        }
      ],
      "name": "getVotes",
      "outputs": [
        {
          "internalType": "uint256",
          "name": "",
          "type": "uint256"
        }
      ],
      "stateMutability": "view",
      "type": "function"
    },
    {
      "inputs": [
        {
          "internalType": "bytes32",
          "name": "role",
          "type": "bytes32"
        },
        {
          "internalType": "address",
          "name": "account",
          "type": "address"
        }
      ],
      "name": "grantRole",
      "outputs": [],
      "stateMutability": "nonpayable",
      "type": "function"
    },
    {
      "inputs": [
        {
          "internalType": "bytes32",
          "name": "role",
          "type": "bytes32"
        },
        {
          "internalType": "address",
          "name": "account",
          "type": "address"
        }
      ],
      "name": "hasRole",
      "outputs": [
        {
          "internalType": "bool",
          "name": "",
          "type": "bool"
        }
      ],
      "stateMutability": "view",
      "type": "function"
    },
    {
      "inputs": [
        {
          "internalType": "address",
          "name": "spender",
          "type": "address"
        },
        {
          "internalType": "uint256",
          "name": "addedValue",
          "type": "uint256"
        }
      ],
      "name": "increaseAllowance",
      "outputs": [
        {
          "internalType": "bool",
          "name": "",
          "type": "bool"
        }
      ],
      "stateMutability": "nonpayable",
      "type": "function"
    },
    {
      "inputs": [
        {
          "internalType": "address",
          "name": "_defaultAdmin",
          "type": "address"
        },
        {
          "internalType": "string",
          "name": "_name",
          "type": "string"
        },
        {
          "internalType": "string",
          "name": "_symbol",
          "type": "string"
        },
        {
          "internalType": "string",
          "name": "_contractURI",
          "type": "string"
        },
        {
          "internalType": "address[]",
          "name": "_trustedForwarders",
          "type": "address[]"
        },
        {
          "internalType": "address",
          "name": "_primarySaleRecipient",
          "type": "address"
        },
        {
          "internalType": "address",
          "name": "_platformFeeRecipient",
          "type": "address"
        },
        {
          "internalType": "uint256",
          "name": "_platformFeeBps",
          "type": "uint256"
        }
      ],
      "name": "initialize",
      "outputs": [],
      "stateMutability": "nonpayable",
      "type": "function"
    },
    {
      "inputs": [
        {
          "internalType": "address",
          "name": "forwarder",
          "type": "address"
        }
      ],
      "name": "isTrustedForwarder",
      "outputs": [
        {
          "internalType": "bool",
          "name": "",
          "type": "bool"
        }
      ],
      "stateMutability": "view",
      "type": "function"
    },
    {
      "inputs": [
        {
          "internalType": "address",
          "name": "to",
          "type": "address"
        },
        {
          "internalType": "uint256",
          "name": "amount",
          "type": "uint256"
        }
      ],
      "name": "mintTo",
      "outputs": [],
      "stateMutability": "nonpayable",
      "type": "function"
    },
    {
      "inputs": [
        {
          "components": [
            {
              "internalType": "address",
              "name": "to",
              "type": "address"
            },
            {
              "internalType": "address",
              "name": "primarySaleRecipient",
              "type": "address"
            },
            {
              "internalType": "uint256",
              "name": "quantity",
              "type": "uint256"
            },
            {
              "internalType": "uint256",
              "name": "price",
              "type": "uint256"
            },
            {
              "internalType": "address",
              "name": "currency",
              "type": "address"
            },
            {
              "internalType": "uint128",
              "name": "validityStartTimestamp",
              "type": "uint128"
            },
            {
              "internalType": "uint128",
              "name": "validityEndTimestamp",
              "type": "uint128"
            },
            {
              "internalType": "bytes32",
              "name": "uid",
              "type": "bytes32"
            }
          ],
          "internalType": "struct ITokenERC20.MintRequest",
          "name": "_req",
          "type": "tuple"
        },
        {
          "internalType": "bytes",
          "name": "_signature",
          "type": "bytes"
        }
      ],
      "name": "mintWithSignature",
      "outputs": [],
      "stateMutability": "payable",
      "type": "function"
    },
    {
      "inputs": [
        {
          "internalType": "bytes[]",
          "name": "data",
          "type": "bytes[]"
        }
      ],
      "name": "multicall",
      "outputs": [
        {
          "internalType": "bytes[]",
          "name": "results",
          "type": "bytes[]"
        }
      ],
      "stateMutability": "nonpayable",
      "type": "function"
    },
    {
      "inputs": [],
      "name": "name",
      "outputs": [
        {
          "internalType": "string",
          "name": "",
          "type": "string"
        }
      ],
      "stateMutability": "view",
      "type": "function"
    },
    {
      "inputs": [
        {
          "internalType": "address",
          "name": "owner",
          "type": "address"
        }
      ],
      "name": "nonces",
      "outputs": [
        {
          "internalType": "uint256",
          "name": "",
          "type": "uint256"
        }
      ],
      "stateMutability": "view",
      "type": "function"
    },
    {
      "inputs": [
        {
          "internalType": "address",
          "name": "account",
          "type": "address"
        }
      ],
      "name": "numCheckpoints",
      "outputs": [
        {
          "internalType": "uint32",
          "name": "",
          "type": "uint32"
        }
      ],
      "stateMutability": "view",
      "type": "function"
    },
    {
      "inputs": [],
      "name": "pause",
      "outputs": [],
      "stateMutability": "nonpayable",
      "type": "function"
    },
    {
      "inputs": [],
      "name": "paused",
      "outputs": [
        {
          "internalType": "bool",
          "name": "",
          "type": "bool"
        }
      ],
      "stateMutability": "view",
      "type": "function"
    },
    {
      "inputs": [
        {
          "internalType": "address",
          "name": "owner",
          "type": "address"
        },
        {
          "internalType": "address",
          "name": "spender",
          "type": "address"
        },
        {
          "internalType": "uint256",
          "name": "value",
          "type": "uint256"
        },
        {
          "internalType": "uint256",
          "name": "deadline",
          "type": "uint256"
        },
        {
          "internalType": "uint8",
          "name": "v",
          "type": "uint8"
        },
        {
          "internalType": "bytes32",
          "name": "r",
          "type": "bytes32"
        },
        {
          "internalType": "bytes32",
          "name": "s",
          "type": "bytes32"
        }
      ],
      "name": "permit",
      "outputs": [],
      "stateMutability": "nonpayable",
      "type": "function"
    },
    {
      "inputs": [],
      "name": "primarySaleRecipient",
      "outputs": [
        {
          "internalType": "address",
          "name": "",
          "type": "address"
        }
      ],
      "stateMutability": "view",
      "type": "function"
    },
    {
      "inputs": [
        {
          "internalType": "bytes32",
          "name": "role",
          "type": "bytes32"
        },
        {
          "internalType": "address",
          "name": "account",
          "type": "address"
        }
      ],
      "name": "renounceRole",
      "outputs": [],
      "stateMutability": "nonpayable",
      "type": "function"
    },
    {
      "inputs": [
        {
          "internalType": "bytes32",
          "name": "role",
          "type": "bytes32"
        },
        {
          "internalType": "address",
          "name": "account",
          "type": "address"
        }
      ],
      "name": "revokeRole",
      "outputs": [],
      "stateMutability": "nonpayable",
      "type": "function"
    },
    {
      "inputs": [
        {
          "internalType": "string",
          "name": "_uri",
          "type": "string"
        }
      ],
      "name": "setContractURI",
      "outputs": [],
      "stateMutability": "nonpayable",
      "type": "function"
    },
    {
      "inputs": [
        {
          "internalType": "address",
          "name": "_platformFeeRecipient",
          "type": "address"
        },
        {
          "internalType": "uint256",
          "name": "_platformFeeBps",
          "type": "uint256"
        }
      ],
      "name": "setPlatformFeeInfo",
      "outputs": [],
      "stateMutability": "nonpayable",
      "type": "function"
    },
    {
      "inputs": [
        {
          "internalType": "address",
          "name": "_saleRecipient",
          "type": "address"
        }
      ],
      "name": "setPrimarySaleRecipient",
      "outputs": [],
      "stateMutability": "nonpayable",
      "type": "function"
    },
    {
      "inputs": [
        {
          "internalType": "bytes4",
          "name": "interfaceId",
          "type": "bytes4"
        }
      ],
      "name": "supportsInterface",
      "outputs": [
        {
          "internalType": "bool",
          "name": "",
          "type": "bool"
        }
      ],
      "stateMutability": "view",
      "type": "function"
    },
    {
      "inputs": [],
      "name": "symbol",
      "outputs": [
        {
          "internalType": "string",
          "name": "",
          "type": "string"
        }
      ],
      "stateMutability": "view",
      "type": "function"
    },
    {
      "inputs": [],
      "name": "totalSupply",
      "outputs": [
        {
          "internalType": "uint256",
          "name": "",
          "type": "uint256"
        }
      ],
      "stateMutability": "view",
      "type": "function"
    },
    {
      "inputs": [
        {
          "internalType": "address",
          "name": "to",
          "type": "address"
        },
        {
          "internalType": "uint256",
          "name": "amount",
          "type": "uint256"
        }
      ],
      "name": "transfer",
      "outputs": [
        {
          "internalType": "bool",
          "name": "",
          "type": "bool"
        }
      ],
      "stateMutability": "nonpayable",
      "type": "function"
    },
    {
      "inputs": [
        {
          "internalType": "address",
          "name": "from",
          "type": "address"
        },
        {
          "internalType": "address",
          "name": "to",
          "type": "address"
        },
        {
          "internalType": "uint256",
          "name": "amount",
          "type": "uint256"
        }
      ],
      "name": "transferFrom",
      "outputs": [
        {
          "internalType": "bool",
          "name": "",
          "type": "bool"
        }
      ],
      "stateMutability": "nonpayable",
      "type": "function"
    },
    {
      "inputs": [],
      "name": "unpause",
      "outputs": [],
      "stateMutability": "nonpayable",
      "type": "function"
    },
    {
      "inputs": [
        {
          "components": [
            {
              "internalType": "address",
              "name": "to",
              "type": "address"
            },
            {
              "internalType": "address",
              "name": "primarySaleRecipient",
              "type": "address"
            },
            {
              "internalType": "uint256",
              "name": "quantity",
              "type": "uint256"
            },
            {
              "internalType": "uint256",
              "name": "price",
              "type": "uint256"
            },
            {
              "internalType": "address",
              "name": "currency",
              "type": "address"
            },
            {
              "internalType": "uint128",
              "name": "validityStartTimestamp",
              "type": "uint128"
            },
            {
              "internalType": "uint128",
              "name": "validityEndTimestamp",
              "type": "uint128"
            },
            {
              "internalType": "bytes32",
              "name": "uid",
              "type": "bytes32"
            }
          ],
          "internalType": "struct ITokenERC20.MintRequest",
          "name": "_req",
          "type": "tuple"
        },
        {
          "internalType": "bytes",
          "name": "_signature",
          "type": "bytes"
        }
      ],
      "name": "verify",
      "outputs": [
        {
          "internalType": "bool",
          "name": "",
          "type": "bool"
        },
        {
          "internalType": "address",
          "name": "",
          "type": "address"
        }
      ],
      "stateMutability": "view",
      "type": "function"
    }
  ],
  "bytecode": {
    "object": "0x608060405234801561001057600080fd5b50614896806100206000396000f3fe6080604052600436106102c95760003560e01c80637ecebe0011610175578063a9059cbb116100dc578063d45573f611610095578063dd62ed3e1161006f578063dd62ed3e1461091c578063dfad80a61461093c578063e8a3d4851461095c578063f1127ed81461097157600080fd5b8063d45573f6146108a5578063d505accf146108dc578063d547741f146108fc57600080fd5b8063a9059cbb146107b9578063ac9650d8146107d9578063c1b606e214610806578063c3cda52014610845578063ca15c87314610865578063cb2ef6f71461088557600080fd5b8063938e3d7b1161012e578063938e3d7b1461071b57806395d89b411461073b5780639ab24eb014610750578063a0a8e46014610770578063a217fddf14610784578063a457c2d71461079957600080fd5b80637ecebe00146106735780638456cb59146106935780638e539e8c146106a85780638f0fefbb146106c85780639010d07c146106db57806391d14854146106fb57600080fd5b80633950935111610234578063587cde1e116101ed5780636f4f2837116101c75780636f4f2837146105c85780636fcfff45146105e857806370a082311461061d57806379cc67901461065357600080fd5b8063587cde1e146105555780635c19a95c1461058f5780635c975abb146105af57600080fd5b806339509351146104875780633a46b1a8146104a75780633f4ba83a146104c757806342966c68146104dc578063449a52f8146104fc578063572b6c051461051c57600080fd5b806323b872dd1161028657806323b872dd146103bf578063248a9ca3146103df5780632f2ff15d14610410578063313ce567146104305780633644e5151461045257806336568abe1461046757600080fd5b806301ffc9a7146102ce57806306fdde0314610303578063079fe40e14610325578063095ea7b31461035e57806318160ddd1461037e5780631e7ac4881461039d575b600080fd5b3480156102da57600080fd5b506102ee6102e9366004613c5c565b6109bb565b60405190151581526020015b60405180910390f35b34801561030f57600080fd5b506103186109e6565b6040516102fa9190613cde565b34801561033157600080fd5b506102c354610346906001600160a01b031681565b6040516001600160a01b0390911681526020016102fa565b34801561036a57600080fd5b506102ee610379366004613d0d565b610a78565b34801561038a57600080fd5b5060cb545b6040519081526020016102fa565b3480156103a957600080fd5b506103bd6103b8366004613d0d565b610a9a565b005b3480156103cb57600080fd5b506102ee6103da366004613d37565b610b60565b3480156103eb57600080fd5b5061038f6103fa366004613d73565b600090815261025c602052604090206001015490565b34801561041c57600080fd5b506103bd61042b366004613d8c565b610b90565b34801561043c57600080fd5b5060125b60405160ff90911681526020016102fa565b34801561045e57600080fd5b5061038f610bbb565b34801561047357600080fd5b506103bd610482366004613d8c565b610bca565b34801561049357600080fd5b506102ee6104a2366004613d0d565b610c58565b3480156104b357600080fd5b5061038f6104c2366004613d0d565b610c84565b3480156104d357600080fd5b506103bd610cf8565b3480156104e857600080fd5b506103bd6104f7366004613d73565b610d68565b34801561050857600080fd5b506103bd610517366004613d0d565b610d7c565b34801561052857600080fd5b506102ee610537366004613db8565b6001600160a01b031660009081526065602052604090205460ff1690565b34801561056157600080fd5b50610346610570366004613db8565b6001600160a01b0390811660009081526101f860205260409020541690565b34801561059b57600080fd5b506103bd6105aa366004613db8565b610dec565b3480156105bb57600080fd5b5061012d5460ff166102ee565b3480156105d457600080fd5b506103bd6105e3366004613db8565b610dfd565b3480156105f457600080fd5b50610608610603366004613db8565b610e54565b60405163ffffffff90911681526020016102fa565b34801561062957600080fd5b5061038f610638366004613db8565b6001600160a01b0316600090815260c9602052604090205490565b34801561065f57600080fd5b506103bd61066e366004613d0d565b610e77565b34801561067f57600080fd5b5061038f61068e366004613db8565b610e93565b34801561069f57600080fd5b506103bd610eb2565b3480156106b457600080fd5b5061038f6106c3366004613d73565b610f20565b6103bd6106d6366004613e14565b610f7d565b3480156106e757600080fd5b506103466106f6366004613e70565b611097565b34801561070757600080fd5b506102ee610716366004613d8c565b6110b0565b34801561072757600080fd5b506103bd610736366004613e92565b6110dc565b34801561074757600080fd5b506103186110fb565b34801561075c57600080fd5b5061038f61076b366004613db8565b61110a565b34801561077c57600080fd5b506001610440565b34801561079057600080fd5b5061038f600081565b3480156107a557600080fd5b506102ee6107b4366004613d0d565b611193565b3480156107c557600080fd5b506102ee6107d4366004613d0d565b611224565b3480156107e557600080fd5b506107f96107f4366004613ed3565b61123c565b6040516102fa9190613f47565b34801561081257600080fd5b50610826610821366004613e14565b611330565b6040805192151583526001600160a01b039091166020830152016102fa565b34801561085157600080fd5b506103bd610860366004613fba565b611398565b34801561087157600080fd5b5061038f610880366004613d73565b6114ce565b34801561089157600080fd5b50690546f6b656e45524332360b41b61038f565b3480156108b157600080fd5b506102c2546102c154604080516001600160a01b03909316835261ffff9091166020830152016102fa565b3480156108e857600080fd5b506103bd6108f7366004614012565b6114e6565b34801561090857600080fd5b506103bd610917366004613d8c565b61164a565b34801561092857600080fd5b5061038f61093736600461407c565b611670565b34801561094857600080fd5b506103bd6109573660046141d6565b61169b565b34801561096857600080fd5b506103186118b6565b34801561097d57600080fd5b5061099161098c3660046142be565b611945565b60408051825163ffffffff1681526020928301516001600160e01b031692810192909252016102fa565b60006001600160e01b03198216635a05180f60e01b14806109e057506109e0826119ca565b92915050565b606060cc80546109f5906142fe565b80601f0160208091040260200160405190810160405280929190818152602001828054610a21906142fe565b8015610a6e5780601f10610a4357610100808354040283529160200191610a6e565b820191906000526020600020905b815481529060010190602001808311610a5157829003601f168201915b5050505050905090565b600080610a836119ff565b9050610a90818585611a09565b5060019392505050565b6000610aa581611b2d565b612710821115610aec5760405162461bcd60e51b815260206004820152600d60248201526c313839901e1e9018981818181760991b60448201526064015b60405180910390fd5b6102c180546001600160801b0319166001600160401b0384161790556102c280546001600160a01b0385166001600160a01b031990911681179091556040518381527fe2497bd806ec41a6e0dd992c29a72efc0ef8fec9092d1978fd4a1e00b2f183049060200160405180910390a2505050565b600080610b6b6119ff565b9050610b78858285611b3e565b610b83858585611bb2565b60019150505b9392505050565b600082815261025c6020526040902060010154610bac81611b2d565b610bb68383611d6e565b505050565b6000610bc5611d91565b905090565b610bd26119ff565b6001600160a01b0316816001600160a01b031614610c4a5760405162461bcd60e51b815260206004820152602f60248201527f416363657373436f6e74726f6c3a2063616e206f6e6c792072656e6f756e636560448201526e103937b632b9903337b91039b2b63360891b6064820152608401610ae3565b610c548282611e0e565b5050565b600080610c636119ff565b9050610a90818585610c758589611670565b610c7f9190614348565b611a09565b6000438210610cd55760405162461bcd60e51b815260206004820152601f60248201527f4552433230566f7465733a20626c6f636b206e6f7420796574206d696e6564006044820152606401610ae3565b6001600160a01b03831660009081526101f960205260409020610b899083611e31565b610d247f65d7a28e3265b37a6474929f336521b332c1681b933f6cb9f3376673440d862a6107166119ff565b610d5e5760405162461bcd60e51b815260206004820152600b60248201526a3737ba103830bab9b2b91760a91b6044820152606401610ae3565b610d66611f28565b565b610d79610d736119ff565b82611f81565b50565b610da87f9f2df0fed2c77648de5860a4cc508cd0818c85b8b8a1ab4ceeef8d981c8956a66107166119ff565b610de25760405162461bcd60e51b815260206004820152600b60248201526a3737ba1036b4b73a32b91760a91b6044820152606401610ae3565b610c548282611f8b565b610d79610df76119ff565b82611fdc565b6000610e0881611b2d565b6102c380546001600160a01b0319166001600160a01b0384169081179091556040517f299d17e95023f496e0ffc4909cff1a61f74bb5eb18de6f900f4155bfa1b3b33390600090a25050565b6001600160a01b03811660009081526101f960205260408120546109e090612057565b610e8982610e836119ff565b83611b3e565b610c548282611f81565b6001600160a01b03811660009081526101c560205260408120546109e0565b610ede7f65d7a28e3265b37a6474929f336521b332c1681b933f6cb9f3376673440d862a6107166119ff565b610f185760405162461bcd60e51b815260206004820152600b60248201526a3737ba103830bab9b2b91760a91b6044820152606401610ae3565b610d666120c0565b6000438210610f715760405162461bcd60e51b815260206004820152601f60248201527f4552433230566f7465733a20626c6f636b206e6f7420796574206d696e6564006044820152606401610ae3565b6109e06101fa83611e31565b610f856120ff565b6000610f92848484612158565b9050600080610fa46020870187613db8565b6001600160a01b031614610fc457610fbf6020860186613db8565b610fcc565b610fcc6119ff565b9050600080610fe16040880160208901613db8565b6001600160a01b03161461100457610fff6040870160208801613db8565b611012565b6102c3546001600160a01b03165b90506110328161102860a0890160808a01613db8565b8860600135612254565b611040828760400135611f8b565b816001600160a01b0316836001600160a01b03167fc4d88b1adde72eb5acf63f3e219ef5b223262233acf507c3b171277c91973c67886040516110839190614377565b60405180910390a3505050610bb660018055565b600082815261028e60205260408120610b899083612333565b600091825261025c602090815260408084206001600160a01b0393909316845291905290205460ff1690565b60006110e781611b2d565b6102c06110f583858361445b565b50505050565b606060cd80546109f5906142fe565b6001600160a01b03811660009081526101f960205260408120548015611180576001600160a01b03831660009081526101f96020526040902061114e60018361451b565b8154811061115e5761115e614532565b60009182526020909120015464010000000090046001600160e01b0316611183565b60005b6001600160e01b03169392505050565b60008061119e6119ff565b905060006111ac8286611670565b90508381101561120c5760405162461bcd60e51b815260206004820152602560248201527f45524332303a2064656372656173656420616c6c6f77616e63652062656c6f77604482015264207a65726f60d81b6064820152608401610ae3565b6112198286868403611a09565b506001949350505050565b60008061122f6119ff565b9050610a90818585611bb2565b6060816001600160401b03811115611256576112566140a6565b60405190808252806020026020018201604052801561128957816020015b60608152602001906001900390816112745790505b50905060005b82811015611329576112f9308585848181106112ad576112ad614532565b90506020028101906112bf9190614548565b8080601f01602080910402602001604051908101604052809392919081815260200183838082843760009201919091525061233f92505050565b82828151811061130b5761130b614532565b602002602001018190525080806113219061458e565b91505061128f565b5092915050565b6000806000611340868686612433565b60e087013560009081526102c4602052604090205490915060ff1615801561138d575061138d7f9f2df0fed2c77648de5860a4cc508cd0818c85b8b8a1ab4ceeef8d981c8956a6826110b0565b969095509350505050565b834211156113e85760405162461bcd60e51b815260206004820152601d60248201527f4552433230566f7465733a207369676e617475726520657870697265640000006044820152606401610ae3565b604080517fe48329057bfd03d55e49b547132e39cffd9c1820ad7b9d4c5307691425d15adf60208201526001600160a01b0388169181019190915260608101869052608081018590526000906114629061145a9060a00160405160208183030381529060405280519060200120612497565b8585856124e5565b905061146d8161250d565b86146114bb5760405162461bcd60e51b815260206004820152601960248201527f4552433230566f7465733a20696e76616c6964206e6f6e6365000000000000006044820152606401610ae3565b6114c58188611fdc565b50505050505050565b600081815261028e602052604081206109e090612536565b834211156115365760405162461bcd60e51b815260206004820152601d60248201527f45524332305065726d69743a206578706972656420646561646c696e650000006044820152606401610ae3565b60007f6e71edae12b1b97f4d1f60370fef10105fa2faae0126114a169c64845d6126c98888886115658c61250d565b6040805160208101969096526001600160a01b0394851690860152929091166060840152608083015260a082015260c0810186905260e00160405160208183030381529060405280519060200120905060006115c082612497565b905060006115d0828787876124e5565b9050896001600160a01b0316816001600160a01b0316146116335760405162461bcd60e51b815260206004820152601e60248201527f45524332305065726d69743a20696e76616c6964207369676e617475726500006044820152606401610ae3565b61163e8a8a8a611a09565b50505050505050505050565b600082815261025c602052604090206001015461166681611b2d565b610bb68383611e0e565b6001600160a01b03918216600090815260ca6020908152604080832093909416825291909152205490565b600054610100900460ff16158080156116bb5750600054600160ff909116105b806116d55750303b1580156116d5575060005460ff166001145b6117385760405162461bcd60e51b815260206004820152602e60248201527f496e697469616c697a61626c653a20636f6e747261637420697320616c72656160448201526d191e481a5b9a5d1a585b1a5e995960921b6064820152608401610ae3565b6000805460ff19166001179055801561175b576000805461ff0019166101001790555b61176485612540565b61176d886125cf565b6117778888612619565b6102c061178487826145a7565b506102c380546001600160a01b038087166001600160a01b0319928316179092556102c28054928616929091169190911790556102c180546001600160801b0384166001600160801b03199091161790556117e060008a612659565b6117f860008051602061481a8339815191528a612659565b6118227f9f2df0fed2c77648de5860a4cc508cd0818c85b8b8a1ab4ceeef8d981c8956a68a612659565b61184c7f65d7a28e3265b37a6474929f336521b332c1681b933f6cb9f3376673440d862a8a612659565b61186560008051602061481a8339815191526000612659565b80156118ab576000805461ff0019169055604051600181527f7f26b83ff96e1f2b6a682f133852f6798a09c465da95921460cefb38474024989060200160405180910390a15b505050505050505050565b6102c080546118c4906142fe565b80601f01602080910402602001604051908101604052809291908181526020018280546118f0906142fe565b801561193d5780601f106119125761010080835404028352916020019161193d565b820191906000526020600020905b81548152906001019060200180831161192057829003601f168201915b505050505081565b60408051808201909152600080825260208201526001600160a01b03831660009081526101f960205260409020805463ffffffff841690811061198a5761198a614532565b60009182526020918290206040805180820190915291015463ffffffff8116825264010000000090046001600160e01b0316918101919091529392505050565b60006001600160e01b03198216637965db0b60e01b14806109e057506301ffc9a760e01b6001600160e01b03198316146109e0565b6000610bc5612663565b6001600160a01b038316611a6b5760405162461bcd60e51b8152602060048201526024808201527f45524332303a20617070726f76652066726f6d20746865207a65726f206164646044820152637265737360e01b6064820152608401610ae3565b6001600160a01b038216611acc5760405162461bcd60e51b815260206004820152602260248201527f45524332303a20617070726f766520746f20746865207a65726f206164647265604482015261737360f01b6064820152608401610ae3565b6001600160a01b03838116600081815260ca602090815260408083209487168084529482529182902085905590518481527f8c5be1e5ebec7d5bd14f71427d1e84f3dd0314c0f7b2291e5b200ac8c7c3b925910160405180910390a3505050565b610d7981611b396119ff565b61268d565b6000611b4a8484611670565b905060001981146110f55781811015611ba55760405162461bcd60e51b815260206004820152601d60248201527f45524332303a20696e73756666696369656e7420616c6c6f77616e63650000006044820152606401610ae3565b6110f58484848403611a09565b6001600160a01b038316611c165760405162461bcd60e51b815260206004820152602560248201527f45524332303a207472616e736665722066726f6d20746865207a65726f206164604482015264647265737360d81b6064820152608401610ae3565b6001600160a01b038216611c785760405162461bcd60e51b815260206004820152602360248201527f45524332303a207472616e7366657220746f20746865207a65726f206164647260448201526265737360e81b6064820152608401610ae3565b611c838383836126e6565b6001600160a01b038316600090815260c9602052604090205481811015611cfb5760405162461bcd60e51b815260206004820152602660248201527f45524332303a207472616e7366657220616d6f756e7420657863656564732062604482015265616c616e636560d01b6064820152608401610ae3565b6001600160a01b03808516600081815260c9602052604080822086860390559286168082529083902080548601905591517fddf252ad1be2c89b69c2b068fc378daa952ba7f163c4a11628f55a4df523b3ef90611d5b9086815260200190565b60405180910390a36110f58484846127b2565b611d7882826127bd565b600082815261028e60205260409020610bb69082612845565b6000610bc57f8b73c3c69bb8fe3d512ecc4cf759cc79239f7b179b0ffacaa9a75d522b39400f611dc16101915490565b610192546040805160208101859052908101839052606081018290524660808201523060a082015260009060c0016040516020818303038152906040528051906020012090509392505050565b611e18828261285a565b600082815261028e60205260409020610bb690826128e0565b815460009081816005811115611e8b576000611e4c846128f5565b611e56908561451b565b600088815260209020909150869082015463ffffffff161115611e7b57809150611e89565b611e86816001614348565b92505b505b80821015611ed8576000611e9f83836129dd565b600088815260209020909150869082015463ffffffff161115611ec457809150611ed2565b611ecf816001614348565b92505b50611e8b565b8015611f1257611efb86611eed60018461451b565b600091825260209091200190565b5464010000000090046001600160e01b0316611f15565b60005b6001600160e01b03169695505050505050565b611f306129f8565b61012d805460ff191690557f5db9ee0a495bf2e6ff9c91a7834c1ba4fdd244a5e8aa4e537bd38aeae4b073aa611f646119ff565b6040516001600160a01b03909116815260200160405180910390a1565b610c548282612a42565b611f958282612a5b565b816001600160a01b03167f3f2c9d57c068687834f0de942a9babb9e5acab57d516d3480a3c16ee165a427382604051611fd091815260200190565b60405180910390a25050565b6001600160a01b0382811660008181526101f860208181526040808420805460c9845282862054949093528787166001600160a01b03198416811790915590519190951694919391928592917f3134e8a2e6d97e929a7e54011ea5485d7d196dd5f0ba4d4ef95803e8e3fc257f9190a46110f5828483612a65565b600063ffffffff8211156120bc5760405162461bcd60e51b815260206004820152602660248201527f53616665436173743a2076616c756520646f65736e27742066697420696e203360448201526532206269747360d01b6064820152608401610ae3565b5090565b6120c8612ba4565b61012d805460ff191660011790557f62e78cea01bee320cd4e420270b5ea74000d11b0c9f74754ebdbfc544b05a258611f646119ff565b6002600154036121515760405162461bcd60e51b815260206004820152601f60248201527f5265656e7472616e637947756172643a207265656e7472616e742063616c6c006044820152606401610ae3565b6002600155565b6000806000612168868686611330565b91509150816121ad5760405162461bcd60e51b8152602060048201526011602482015270696e76616c6964207369676e617475726560781b6044820152606401610ae3565b426121be60c0880160a08901614666565b6001600160801b0316111580156121ed5750426121e160e0880160c08901614666565b6001600160801b031610155b61222b5760405162461bcd60e51b815260206004820152600f60248201526e1c995c5d595cdd08195e1c1a5c9959608a1b6044820152606401610ae3565b60e086013560009081526102c460205260409020805460ff191660011790559150509392505050565b8060000361226157505050565b6102c1546000906127109061227f906001600160801b031684614681565b61228991906146b6565b905073eeeeeeeeeeeeeeeeeeeeeeeeeeeeeeeeeeeeeeed196001600160a01b038416016122f8578134146122f85760405162461bcd60e51b815260206004820152601660248201527536bab9ba1039b2b732103a37ba30b610383934b1b29760511b6044820152606401610ae3565b612317836123046119ff565b6102c2546001600160a01b031684612beb565b6110f5836123236119ff565b8661232e858761451b565b612beb565b6000610b898383612c31565b60606001600160a01b0383163b6123a75760405162461bcd60e51b815260206004820152602660248201527f416464726573733a2064656c65676174652063616c6c20746f206e6f6e2d636f6044820152651b9d1c9858dd60d21b6064820152608401610ae3565b600080846001600160a01b0316846040516123c291906146d8565b600060405180830381855af49150503d80600081146123fd576040519150601f19603f3d011682016040523d82523d6000602084013e612402565b606091505b509150915061242a828260405180606001604052806027815260200161483a60279139612c5b565b95945050505050565b600061248f83838080601f016020809104026020016040519081016040528093929190818152602001838380828437600092019190915250612489925061247d9150889050612c74565b80519060200120612497565b90612d68565b949350505050565b60006109e06124a4611d91565b8360405161190160f01b6020820152602281018390526042810182905260009060620160405160208183030381529060405280519060200120905092915050565b60008060006124f687878787612d8c565b9150915061250381612e50565b5095945050505050565b6001600160a01b03811660009081526101c5602052604090208054600181018255905b50919050565b60006109e0825490565b600054610100900460ff166125675760405162461bcd60e51b8152600401610ae3906146f4565b60005b8151811015610c545760016065600084848151811061258b5761258b614532565b6020908102919091018101516001600160a01b03168252810191909152604001600020805460ff1916911515919091179055806125c78161458e565b91505061256a565b600054610100900460ff166125f65760405162461bcd60e51b8152600401610ae3906146f4565b610d7981604051806040016040528060018152602001603160f81b815250612f9a565b600054610100900460ff166126405760405162461bcd60e51b8152600401610ae3906146f4565b60cc61264c83826145a7565b5060cd610bb682826145a7565b610c548282611d6e565b3360009081526065602052604081205460ff1615612688575060131936013560601c90565b503390565b61269782826110b0565b610c54576126a481612fdd565b6126af836020612fef565b6040516020016126c092919061473f565b60408051601f198184030181529082905262461bcd60e51b8252610ae391600401613cde565b6126f183838361318a565b61270a60008051602061481a83398151915260006110b0565b15801561271f57506001600160a01b03831615155b801561273357506001600160a01b03821615155b15610bb65761275060008051602061481a833981519152846110b0565b8061276e575061276e60008051602061481a833981519152836110b0565b610bb65760405162461bcd60e51b81526020600482015260156024820152743a3930b739b332b939903932b9ba3934b1ba32b21760591b6044820152606401610ae3565b610bb68383836131f1565b6127c782826110b0565b610c5457600082815261025c602090815260408083206001600160a01b03851684529091529020805460ff191660011790556128016119ff565b6001600160a01b0316816001600160a01b0316837f2f8788117e7eff1d82e926ec794901d17c78024a50270940304540a733656f0d60405160405180910390a45050565b6000610b89836001600160a01b038416613224565b61286482826110b0565b15610c5457600082815261025c602090815260408083206001600160a01b03851684529091529020805460ff1916905561289c6119ff565b6001600160a01b0316816001600160a01b0316837ff6391f5c32d9c69d2a47ea670b442974b53935d1edc7fd64eb21e047a839171b60405160405180910390a45050565b6000610b89836001600160a01b038416613273565b60008160000361290757506000919050565b6000600161291484613366565b901c6001901b9050600181848161292d5761292d6146a0565b048201901c90506001818481612945576129456146a0565b048201901c9050600181848161295d5761295d6146a0565b048201901c90506001818481612975576129756146a0565b048201901c9050600181848161298d5761298d6146a0565b048201901c905060018184816129a5576129a56146a0565b048201901c905060018184816129bd576129bd6146a0565b048201901c9050610b89818285816129d7576129d76146a0565b046133fa565b60006129ec60028484186146b6565b610b8990848416614348565b61012d5460ff16610d665760405162461bcd60e51b815260206004820152601460248201527314185d5cd8589b194e881b9bdd081c185d5cd95960621b6044820152606401610ae3565b612a4c8282613410565b6110f56101fa61355783613563565b610c5482826136b7565b816001600160a01b0316836001600160a01b031614158015612a875750600081115b15610bb6576001600160a01b03831615612b16576001600160a01b03831660009081526101f9602052604081208190612ac39061355785613563565b91509150846001600160a01b03167fdec2bacdd2f05b59de34da9b523dff8be42e5e38e818c82fdb0bae774387a7248383604051612b0b929190918252602082015260400190565b60405180910390a250505b6001600160a01b03821615610bb6576001600160a01b03821660009081526101f9602052604081208190612b4d9061374285613563565b91509150836001600160a01b03167fdec2bacdd2f05b59de34da9b523dff8be42e5e38e818c82fdb0bae774387a7248383604051612b95929190918252602082015260400190565b60405180910390a25050505050565b61012d5460ff1615610d665760405162461bcd60e51b815260206004820152601060248201526f14185d5cd8589b194e881c185d5cd95960821b6044820152606401610ae3565b80156110f55773eeeeeeeeeeeeeeeeeeeeeeeeeeeeeeeeeeeeeeed196001600160a01b03851601612c2557612c20828261374e565b6110f5565b6110f5848484846137f1565b6000826000018281548110612c4857612c48614532565b9060005260206000200154905092915050565b60608315612c6a575081610b89565b610b898383613844565b60607fbac245dbd9b8b2bb334c0675db20a7a7a8506de563990c4ce3207f4c3c5b75e1612ca46020840184613db8565b612cb46040850160208601613db8565b60408501356060860135612cce60a0880160808901613db8565b612cde60c0890160a08a01614666565b612cee60e08a0160c08b01614666565b6040805160208101999099526001600160a01b03978816908901529486166060880152608087019390935260a086019190915290921660c08401526001600160801b0391821660e0808501919091529116610100830152830135610120820152610140016040516020818303038152906040529050919050565b6000806000612d77858561386e565b91509150612d8481612e50565b509392505050565b6000807f7fffffffffffffffffffffffffffffff5d576e7357a4501ddfe92f46681b20a0831115612dc35750600090506003612e47565b6040805160008082526020820180845289905260ff881692820192909252606081018690526080810185905260019060a0016020604051602081039080840390855afa158015612e17573d6000803e3d6000fd5b5050604051601f1901519150506001600160a01b038116612e4057600060019250925050612e47565b9150600090505b94509492505050565b6000816004811115612e6457612e646147b4565b03612e6c5750565b6001816004811115612e8057612e806147b4565b03612ecd5760405162461bcd60e51b815260206004820152601860248201527f45434453413a20696e76616c6964207369676e617475726500000000000000006044820152606401610ae3565b6002816004811115612ee157612ee16147b4565b03612f2e5760405162461bcd60e51b815260206004820152601f60248201527f45434453413a20696e76616c6964207369676e6174757265206c656e677468006044820152606401610ae3565b6003816004811115612f4257612f426147b4565b03610d795760405162461bcd60e51b815260206004820152602260248201527f45434453413a20696e76616c6964207369676e6174757265202773272076616c604482015261756560f01b6064820152608401610ae3565b600054610100900460ff16612fc15760405162461bcd60e51b8152600401610ae3906146f4565b8151602092830120815191909201206101919190915561019255565b60606109e06001600160a01b03831660145b60606000612ffe836002614681565b613009906002614348565b6001600160401b03811115613020576130206140a6565b6040519080825280601f01601f19166020018201604052801561304a576020820181803683370190505b509050600360fc1b8160008151811061306557613065614532565b60200101906001600160f81b031916908160001a905350600f60fb1b8160018151811061309457613094614532565b60200101906001600160f81b031916908160001a90535060006130b8846002614681565b6130c3906001614348565b90505b600181111561313b576f181899199a1a9b1b9c1cb0b131b232b360811b85600f16601081106130f7576130f7614532565b1a60f81b82828151811061310d5761310d614532565b60200101906001600160f81b031916908160001a90535060049490941c93613134816147ca565b90506130c6565b508315610b895760405162461bcd60e51b815260206004820181905260248201527f537472696e67733a20686578206c656e67746820696e73756666696369656e746044820152606401610ae3565b61012d5460ff1615610bb65760405162461bcd60e51b815260206004820152602a60248201527f45524332305061757361626c653a20746f6b656e207472616e736665722077686044820152691a5b19481c185d5cd95960b21b6064820152608401610ae3565b6001600160a01b0383811660009081526101f86020526040808220548584168352912054610bb692918216911683612a65565b600081815260018301602052604081205461326b575081546001818101845560008481526020808220909301849055845484825282860190935260409020919091556109e0565b5060006109e0565b6000818152600183016020526040812054801561335c57600061329760018361451b565b85549091506000906132ab9060019061451b565b90508181146133105760008660000182815481106132cb576132cb614532565b90600052602060002001549050808760000184815481106132ee576132ee614532565b6000918252602080832090910192909255918252600188019052604090208390555b8554869080613321576133216147e1565b6001900381819060005260206000200160009055905585600101600086815260200190815260200160002060009055600193505050506109e0565b60009150506109e0565b600080608083901c1561337b57608092831c92015b604083901c1561338d57604092831c92015b602083901c1561339f57602092831c92015b601083901c156133b157601092831c92015b600883901c156133c357600892831c92015b600483901c156133d557600492831c92015b600283901c156133e757600292831c92015b600183901c156109e05760010192915050565b60008183106134095781610b89565b5090919050565b6001600160a01b0382166134705760405162461bcd60e51b815260206004820152602160248201527f45524332303a206275726e2066726f6d20746865207a65726f206164647265736044820152607360f81b6064820152608401610ae3565b61347c826000836126e6565b6001600160a01b038216600090815260c96020526040902054818110156134f05760405162461bcd60e51b815260206004820152602260248201527f45524332303a206275726e20616d6f756e7420657863656564732062616c616e604482015261636560f01b6064820152608401610ae3565b6001600160a01b038316600081815260c960209081526040808320868603905560cb80548790039055518581529192917fddf252ad1be2c89b69c2b068fc378daa952ba7f163c4a11628f55a4df523b3ef910160405180910390a3610bb6836000846127b2565b6000610b89828461451b565b825460009081908181156135b05761358087611eed60018561451b565b60408051808201909152905463ffffffff8116825264010000000090046001600160e01b031660208201526135c5565b60408051808201909152600080825260208201525b905080602001516001600160e01b031693506135e584868863ffffffff16565b92506000821180156135fd5750805163ffffffff1643145b156136425761360b836138b3565b61361a88611eed60018661451b565b80546001600160e01b03929092166401000000000263ffffffff9092169190911790556136ad565b86604051806040016040528061365743612057565b63ffffffff16815260200161366b866138b3565b6001600160e01b0390811690915282546001810184556000938452602093849020835194909301519091166401000000000263ffffffff909316929092179101555b5050935093915050565b6136c1828261391c565b60cb546001600160e01b0310156137335760405162461bcd60e51b815260206004820152603060248201527f4552433230566f7465733a20746f74616c20737570706c79207269736b73206f60448201526f766572666c6f77696e6720766f74657360801b6064820152608401610ae3565b6110f56101fa61374283613563565b6000610b898284614348565b6000826001600160a01b03168260405160006040518083038185875af1925050503d806000811461379b576040519150601f19603f3d011682016040523d82523d6000602084013e6137a0565b606091505b5050905080610bb65760405162461bcd60e51b815260206004820152601c60248201527f6e617469766520746f6b656e207472616e73666572206661696c6564000000006044820152606401610ae3565b816001600160a01b0316836001600160a01b031603156110f557306001600160a01b0384160361382f57612c206001600160a01b03851683836139f1565b6110f56001600160a01b038516848484613a54565b8151156138545781518083602001fd5b8060405162461bcd60e51b8152600401610ae39190613cde565b60008082516041036138a45760208301516040840151606085015160001a61389887828585612d8c565b945094505050506138ac565b506000905060025b9250929050565b60006001600160e01b038211156120bc5760405162461bcd60e51b815260206004820152602760248201527f53616665436173743a2076616c756520646f65736e27742066697420696e20326044820152663234206269747360c81b6064820152608401610ae3565b6001600160a01b0382166139725760405162461bcd60e51b815260206004820152601f60248201527f45524332303a206d696e7420746f20746865207a65726f2061646472657373006044820152606401610ae3565b61397e600083836126e6565b8060cb60008282546139909190614348565b90915550506001600160a01b038216600081815260c960209081526040808320805486019055518481527fddf252ad1be2c89b69c2b068fc378daa952ba7f163c4a11628f55a4df523b3ef910160405180910390a3610c54600083836127b2565b6040516001600160a01b038316602482015260448101829052610bb690849063a9059cbb60e01b906064015b60408051601f198184030181529190526020810180516001600160e01b03166001600160e01b031990931692909217909152613a8c565b6040516001600160a01b03808516602483015283166044820152606481018290526110f59085906323b872dd60e01b90608401613a1d565b6000613ae1826040518060400160405280602081526020017f5361666545524332303a206c6f772d6c6576656c2063616c6c206661696c6564815250856001600160a01b0316613b5e9092919063ffffffff16565b805190915015610bb65780806020019051810190613aff91906147f7565b610bb65760405162461bcd60e51b815260206004820152602a60248201527f5361666545524332303a204552433230206f7065726174696f6e20646964206e6044820152691bdd081cdd58d8d9595960b21b6064820152608401610ae3565b606061248f848460008585600080866001600160a01b03168587604051613b8591906146d8565b60006040518083038185875af1925050503d8060008114613bc2576040519150601f19603f3d011682016040523d82523d6000602084013e613bc7565b606091505b5091509150613bd887838387613be3565b979650505050505050565b60608315613c52578251600003613c4b576001600160a01b0385163b613c4b5760405162461bcd60e51b815260206004820152601d60248201527f416464726573733a2063616c6c20746f206e6f6e2d636f6e74726163740000006044820152606401610ae3565b508161248f565b61248f8383613844565b600060208284031215613c6e57600080fd5b81356001600160e01b031981168114610b8957600080fd5b60005b83811015613ca1578181015183820152602001613c89565b838111156110f55750506000910152565b60008151808452613cca816020860160208601613c86565b601f01601f19169290920160200192915050565b602081526000610b896020830184613cb2565b80356001600160a01b0381168114613d0857600080fd5b919050565b60008060408385031215613d2057600080fd5b613d2983613cf1565b946020939093013593505050565b600080600060608486031215613d4c57600080fd5b613d5584613cf1565b9250613d6360208501613cf1565b9150604084013590509250925092565b600060208284031215613d8557600080fd5b5035919050565b60008060408385031215613d9f57600080fd5b82359150613daf60208401613cf1565b90509250929050565b600060208284031215613dca57600080fd5b610b8982613cf1565b60008083601f840112613de557600080fd5b5081356001600160401b03811115613dfc57600080fd5b6020830191508360208285010111156138ac57600080fd5b6000806000838503610120811215613e2b57600080fd5b61010080821215613e3b57600080fd5b85945084013590506001600160401b03811115613e5757600080fd5b613e6386828701613dd3565b9497909650939450505050565b60008060408385031215613e8357600080fd5b50508035926020909101359150565b60008060208385031215613ea557600080fd5b82356001600160401b03811115613ebb57600080fd5b613ec785828601613dd3565b90969095509350505050565b60008060208385031215613ee657600080fd5b82356001600160401b0380821115613efd57600080fd5b818501915085601f830112613f1157600080fd5b813581811115613f2057600080fd5b8660208260051b8501011115613f3557600080fd5b60209290920196919550909350505050565b6000602080830181845280855180835260408601915060408160051b870101925083870160005b82811015613f9c57603f19888603018452613f8a858351613cb2565b94509285019290850190600101613f6e565b5092979650505050505050565b803560ff81168114613d0857600080fd5b60008060008060008060c08789031215613fd357600080fd5b613fdc87613cf1565b95506020870135945060408701359350613ff860608801613fa9565b92506080870135915060a087013590509295509295509295565b600080600080600080600060e0888a03121561402d57600080fd5b61403688613cf1565b965061404460208901613cf1565b9550604088013594506060880135935061406060808901613fa9565b925060a0880135915060c0880135905092959891949750929550565b6000806040838503121561408f57600080fd5b61409883613cf1565b9150613daf60208401613cf1565b634e487b7160e01b600052604160045260246000fd5b604051601f8201601f191681016001600160401b03811182821017156140e4576140e46140a6565b604052919050565b600082601f8301126140fd57600080fd5b81356001600160401b03811115614116576141166140a6565b614129601f8201601f19166020016140bc565b81815284602083860101111561413e57600080fd5b816020850160208301376000918101602001919091529392505050565b600082601f83011261416c57600080fd5b813560206001600160401b03821115614187576141876140a6565b8160051b6141968282016140bc565b92835284810182019282810190878511156141b057600080fd5b83870192505b84831015613bd8576141c783613cf1565b825291830191908301906141b6565b600080600080600080600080610100898b0312156141f357600080fd5b6141fc89613cf1565b975060208901356001600160401b038082111561421857600080fd5b6142248c838d016140ec565b985060408b013591508082111561423a57600080fd5b6142468c838d016140ec565b975060608b013591508082111561425c57600080fd5b6142688c838d016140ec565b965060808b013591508082111561427e57600080fd5b5061428b8b828c0161415b565b94505061429a60a08a01613cf1565b92506142a860c08a01613cf1565b915060e089013590509295985092959890939650565b600080604083850312156142d157600080fd5b6142da83613cf1565b9150602083013563ffffffff811681146142f357600080fd5b809150509250929050565b600181811c9082168061431257607f821691505b60208210810361253057634e487b7160e01b600052602260045260246000fd5b634e487b7160e01b600052601160045260246000fd5b6000821982111561435b5761435b614332565b500190565b80356001600160801b0381168114613d0857600080fd5b61010081016001600160a01b038061438e85613cf1565b1683528061439e60208601613cf1565b1660208401526040840135604084015260608401356060840152806143c560808601613cf1565b166080840152506143d860a08401614360565b6001600160801b0380821660a0850152806143f560c08701614360565b1660c0850152505060e083013560e083015292915050565b601f821115610bb657600081815260208120601f850160051c810160208610156144345750805b601f850160051c820191505b8181101561445357828155600101614440565b505050505050565b6001600160401b03831115614472576144726140a6565b6144868361448083546142fe565b8361440d565b6000601f8411600181146144ba57600085156144a25750838201355b600019600387901b1c1916600186901b178355614514565b600083815260209020601f19861690835b828110156144eb57868501358255602094850194600190920191016144cb565b50868210156145085760001960f88860031b161c19848701351681555b505060018560011b0183555b5050505050565b60008282101561452d5761452d614332565b500390565b634e487b7160e01b600052603260045260246000fd5b6000808335601e1984360301811261455f57600080fd5b8301803591506001600160401b0382111561457957600080fd5b6020019150368190038213156138ac57600080fd5b6000600182016145a0576145a0614332565b5060010190565b81516001600160401b038111156145c0576145c06140a6565b6145d4816145ce84546142fe565b8461440d565b602080601f83116001811461460957600084156145f15750858301515b600019600386901b1c1916600185901b178555614453565b600085815260208120601f198616915b8281101561463857888601518255948401946001909101908401614619565b50858210156146565787850151600019600388901b60f8161c191681555b5050505050600190811b01905550565b60006020828403121561467857600080fd5b610b8982614360565b600081600019048311821515161561469b5761469b614332565b500290565b634e487b7160e01b600052601260045260246000fd5b6000826146d357634e487b7160e01b600052601260045260246000fd5b500490565b600082516146ea818460208701613c86565b9190910192915050565b6020808252602b908201527f496e697469616c697a61626c653a20636f6e7472616374206973206e6f74206960408201526a6e697469616c697a696e6760a81b606082015260800190565b7f416363657373436f6e74726f6c3a206163636f756e7420000000000000000000815260008351614777816017850160208801613c86565b7001034b99036b4b9b9b4b733903937b6329607d1b60179184019182015283516147a8816028840160208801613c86565b01602801949350505050565b634e487b7160e01b600052602160045260246000fd5b6000816147d9576147d9614332565b506000190190565b634e487b7160e01b600052603160045260246000fd5b60006020828403121561480957600080fd5b81518015158114610b8957600080fdfe8502233096d909befbda0999bb8ea2f3a6be3c138b9fbf003752a4c8bce86f6c416464726573733a206c6f772d6c6576656c2064656c65676174652063616c6c206661696c6564a26469706673582212208078f52ff73f4a82ef2b50057bb85608a80ace11ebac2de2a77a7a754b1b97d564736f6c634300080f0033",
    "linkReferences": {}
  },
  "methodIdentifiers": {
    "DEFAULT_ADMIN_ROLE()": "a217fddf",
    "DOMAIN_SEPARATOR()": "3644e515",
    "allowance(address,address)": "dd62ed3e",
    "approve(address,uint256)": "095ea7b3",
    "balanceOf(address)": "70a08231",
    "burn(uint256)": "42966c68",
    "burnFrom(address,uint256)": "79cc6790",
    "checkpoints(address,uint32)": "f1127ed8",
    "contractType()": "cb2ef6f7",
    "contractURI()": "e8a3d485",
    "contractVersion()": "a0a8e460",
    "decimals()": "313ce567",
    "decreaseAllowance(address,uint256)": "a457c2d7",
    "delegate(address)": "5c19a95c",
    "delegateBySig(address,uint256,uint256,uint8,bytes32,bytes32)": "c3cda520",
    "delegates(address)": "587cde1e",
    "getPastTotalSupply(uint256)": "8e539e8c",
    "getPastVotes(address,uint256)": "3a46b1a8",
    "getPlatformFeeInfo()": "d45573f6",
    "getRoleAdmin(bytes32)": "248a9ca3",
    "getRoleMember(bytes32,uint256)": "9010d07c",
    "getRoleMemberCount(bytes32)": "ca15c873",
    "getVotes(address)": "9ab24eb0",
    "grantRole(bytes32,address)": "2f2ff15d",
    "hasRole(bytes32,address)": "91d14854",
    "increaseAllowance(address,uint256)": "39509351",
    "initialize(address,string,string,string,address[],address,address,uint256)": "dfad80a6",
    "isTrustedForwarder(address)": "572b6c05",
    "mintTo(address,uint256)": "449a52f8",
    "mintWithSignature((address,address,uint256,uint256,address,uint128,uint128,bytes32),bytes)": "8f0fefbb",
    "multicall(bytes[])": "ac9650d8",
    "name()": "06fdde03",
    "nonces(address)": "7ecebe00",
    "numCheckpoints(address)": "6fcfff45",
    "pause()": "8456cb59",
    "paused()": "5c975abb",
    "permit(address,address,uint256,uint256,uint8,bytes32,bytes32)": "d505accf",
    "primarySaleRecipient()": "079fe40e",
    "renounceRole(bytes32,address)": "36568abe",
    "revokeRole(bytes32,address)": "d547741f",
    "setContractURI(string)": "938e3d7b",
    "setPlatformFeeInfo(address,uint256)": "1e7ac488",
    "setPrimarySaleRecipient(address)": "6f4f2837",
    "supportsInterface(bytes4)": "01ffc9a7",
    "symbol()": "95d89b41",
    "totalSupply()": "18160ddd",
    "transfer(address,uint256)": "a9059cbb",
    "transferFrom(address,address,uint256)": "23b872dd",
    "unpause()": "3f4ba83a",
    "verify((address,address,uint256,uint256,address,uint128,uint128,bytes32),bytes)": "c1b606e2"
  },
  "id": 73
}